:0400000007EF00F016
:100008002D8209ED00F0E1EF00F00600FACF16F0BE
:10001800FBCF17F0E9CF18F0EACF19F0E1CF1AF0CB
:10002800E2CF1BF0D9CF1CF0DACF1DF0F3CF1EF0D2
:10003800F4CF1FF0F6CF20F0F7CF21F0F8CF22F061
:10004800F5CF23F02DC024F02EC025F02FC026F0C8
:1000580030C027F0F2B4F2AA07D0060ED626000E5A
:10006800D722C2EC00F0F294F2B2F2A803D05CEC12
:1000780001F0F292F0B0F0A603D05BEC01F0F09042
:10008800F0B2F0A803D05AEC01F0F09227C030F09B
:1000980026C02FF025C02EF024C02DF023C0F5FF78
:1000A80022C0F8FF21C0F7FF20C0F6FF1FC0F4FFF1
:1000B8001EC0F3FF1DC0DAFF1CC0D9FF1BC0E2FF42
:1000C8001AC0E1FF19C0EAFF18C0E9FF17C0FBFF1B
:1000D80016C0FAFF2D92110043D0899A89842C50BA
:1000E800010D010EF324D96E000EF420DA6EDF50F4
:1000F8008C6E010E286E1200899489862A50010D93
:10010800010EF324D96E000EF420DA6EDF508C6EE7
:10011800020E286E1200899689882B50010D010E57
:10012800F324D96E000EF420DA6EDF508C6E030EC5
:10013800286E12008998898A2950010D010EF3242E
:10014800D96E000EF420DA6EDF508C6E000E286E29
:100158001200899489968998899A000E286E12004F
:100168002850000AD8B4B9D7010AD8B4C5D7030AA9
:10017800D8B4D1D7010AD8B4DDD7EBD7155007E1E9
:10018800050E145CD8B003D0144A152A06D070ECBA
:1001980000F0000E156E010E146EF40E125C010EC6
:1001A8001358D8B003D0124A132A1200FDEC00F0FD
:1001B800000E136E010E126E1200840EF66E020E01
:1001C800F76E000EF86E00EE01F010EE15F0090063
:1001D800F5CFEEFFE550E150FAE12C6A2B6A2A6A66
:1001E800296A286A2D902D92000EF86E00014DEFB5
:1001F80001F02A2A2906090E2A6403D02C2A000EA7
:100208002A6E090E2C6402D0000E2C6E2950D8B428
:1002180003D02928D8A403D02B06090E296E2B2831
:10022800D8A41200090E2B6E12000F0EC16EC30E59
:10023800926E030E936E000E956E000E896E000E80
:100248008C6E000E8A6E120052EC01F019EC01F06F
:1002580035EC01F0898489868988898A56EC01F011
:100268001200900EF26E050EF16ED80EF06ED10EE1
:10027800D56E000ED76E060ED66E12003F065B4F87
:10028800666D7D077F6F777C395E797100010001AB
:010298000065
:10029A0028EC01F059EC01F0FDD7D09EF29EF29CB9
:1002AA001200F28AF28E12001200120012001200DC
:020000040020DA
:08000000FFFFFFFFFFFFFFFF00
:020000040030CA
:0E000000FF021F1EFF8381FF0FC00FE00F40A5
:00000001FF
