:0400000007EF00F016
:0A000800798235ED0AF07AEF0CF072
:100600000020202000001850800B216E1850182464
:10061000276E17AE0EEF03F010EF03F011EF03F0AB
:1006200027802750D8B417EF03F019EF03F02CEF11
:1006300003F02728D8A41FEF03F021EF03F029EFE0
:1006400003F0000E156E000E166E000E176E000EF3
:10065000186E178E34EF03F0000E156E000E166E36
:10066000000E176E000E186E1C50800B211A1C50C5
:100670001C24266E1BAE3FEF03F041EF03F042EF68
:1006800003F026802650D8B448EF03F04AEF03F079
:100690005DEF03F02628D8A450EF03F052EF03F0EB
:1006A0005AEF03F0000E196E000E1A6E000E1B6E4C
:1006B000000E1C6E1B8E65EF03F0000E196E000E0F
:1006C0001A6E000E1B6E000E1C6E2650D8B46BEF17
:1006D00003F06DEF03F075EF03F02750D8A473EF2C
:1006E00003F075EF03F07FEF03F0000E156E000EC0
:1006F000166E000E176E000E186E17EF05F01B50E9
:100700001502F3CF2CF0F4CF2DF02C50226E236A7B
:10071000246A256A2D50286E296A2A6A2B6A1A5083
:100720001602F3CF2CF0F4CF2DF02C502226000E21
:100730002322242225222D502826000E29222A2277
:100740002B2219501702F3CF2CF0F4CF2DF02C50A0
:100750002226000E2322242225222D502826000E98
:1007600029222A222B2224C025F023C024F022C0D3
:1007700023F0226A19501602F3CF2CF0F4CF2DF09B
:100780002C5022262D502322000E2422000E25223A
:100790001A501502F3CF2CF0F4CF2DF02C50222656
:1007A0002D502322000E2422000E252224C025F0E5
:1007B00023C024F022C023F0226A19501502F3CF7F
:1007C0002CF0F4CF2DF02C5022262D502322000E99
:1007D0002422000E25221B501602F3CF2CF0F4CF5A
:1007E0002DF02C5028262D502922000E2A22000EF2
:1007F0002B221A501702F3CF2CF0F4CF2DF02C50EF
:1008000028262D502922000E2A22000E2B221B50B2
:100810001702F3CF2CF0F4CF2DF02C501D6E2D507D
:100820001E6E1F6A206A1FC020F01EC01FF01DC070
:100830001EF01D6A1D5028261E5029221F502A22F4
:1008400020502B2222C01DF023C01EF024C01FF018
:1008500025C020F0190E32EF04F0D89020321F325C
:100860001E321D32E82E2DEF04F01D5028261E509A
:1008700029221F502A2220502B2224C025F023C0D9
:1008800024F022C023F0226A265027C01DF01E6AE1
:100890001D26000E1E22820E1D242C6EFF0E1E2011
:1008A0002D6E68EF04F0D890283629362A362B367C
:1008B00025AE5DEF04F05FEF04F060EF04F02880F8
:1008C000D89022362336243625362C06D8A02D067D
:1008D0002AAE6DEF04F06FEF04F053EF04F0000E5A
:1008E000266E25AE76EF04F078EF04F09CEF04F06E
:1008F000FF0E22141D6EFF0E23141E6EFF0E241415
:100900001F6E7F0E2514206E1D501E101F1020100C
:10091000D8B48DEF04F08FEF04F093EF04F0010EE4
:10092000266E9CEF04F028A098EF04F09AEF04F0F4
:100930009CEF04F08FEF04F02650D8B4A2EF04F03F
:10094000A4EF04F0C8EF04F0010E2826000E2922BF
:100950002A222B222BA0AFEF04F0B1EF04F0C8EF56
:1009600004F028C01DF029C01EF02AC01FF02BC0C3
:1009700020F0203420321F321E321D321DC028F0DC
:100980001EC029F01FC02AF020C02BF02C4A2D2AAF
:100990002DBED3EF04F02D5008E12C28D8A0D3EFC2
:1009A00004F0D5EF04F0DFEF04F0000E286E000E27
:1009B000296E800E2A6E7F0E2B6E0DEF05F02DBE78
:1009C000ECEF04F02D5006E12C04D8B0EAEF04F06F
:1009D000ECEF04F0F8EF04F0000E286E000E296E24
:1009E000000E2A6E000E2B6E000E216E0DEF05F02C
:1009F0002CC027F0FF0E2816FF0E29167F0E2A1690
:100A0000000E2B1627A007EF05F009EF05F00AEFFF
:100A100005F02A8ED89027302B6E21502B1228C03B
:100A200015F029C016F02AC017F02BC018F01200DC
:100A30003150800B3E6E31503124456E30AE23EF85
:100A400005F025EF05F026EF05F045804550D8B4B8
:100A50002CEF05F02EEF05F043EF05F04528D8A464
:100A600034EF05F036EF05F03EEF05F0000E2E6E88
:100A7000000E2F6E000E306E000E316E308E000EA6
:100A8000316E4BEF05F0000E2E6E000E2F6E000E35
:100A9000306E000E316E3550800B3E1A35503524C5
:100AA000466E34AE56EF05F058EF05F059EF05F0FD
:100AB00046804650D8B45FEF05F061EF05F076EF61
:100AC00005F04628D8A467EF05F069EF05F071EF4F
:100AD00005F0000E326E000E336E000E346E000E06
:100AE000356E348E000E356E7EEF05F0000E326EE0
:100AF000000E336E000E346E000E356E3250331021
:100B000034103510D8A487EF05F089EF05F0A1EF78
:100B100005F0000E2E6E000E2F6E000E306E000ED1
:100B2000316E800E30127F0E31123E5031122EC0C7
:100B30002EF02FC02FF030C030F031C031F0E4EF94
:100B400006F04550D8A4A7EF05F0A9EF05F0B3EFE4
:100B500005F0000E2E6E000E2F6E000E306E000E91
:100B6000316EE4EF06F0465045C036F0376A365E27
:100B7000000E375A7F0E36243F6E000E3720406E2F
:100B80002EC03AF02FC03BF030C03CF031C03DF0F9
:100B9000000E2E6E000E2F6E000E306E000E316EA7
:100BA000000E416E000E426E000E436E000E446E4B
:100BB000000E466E14EF06F04650D8B4E2EF05F092
:100BC000E4EF05F0FBEF05F0D8903A363B363C36C3
:100BD0003D36D8902E362F363036313644AEF3EFD0
:100BE00005F0F5EF05F0F6EF05F02E80D8904136D0
:100BF00042364336443632503A5C33503B583450D8
:100C00003C5835503D58D8A008EF06F00AEF06F0E2
:100C100013EF06F0448C32503A5E33503B5A345056
:100C20003C5A35503D5A462A190E46641AEF06F0D2
:100C30001CEF06F0DCEF05F03A503B103C103D1085
:100C4000D8B425EF06F027EF06F03FEF06F041801D
:100C50003FEF06F0D8902E362F363036313644AE80
:100C600034EF06F036EF06F037EF06F02E80D8901E
:100C700041364236433644363F06D8A0400630AEB1
:100C800044EF06F046EF06F02AEF06F0000E466E3F
:100C900044AE4DEF06F04FEF06F073EF06F0FF0E97
:100CA0004114366EFF0E4214376EFF0E4314386E39
:100CB0007F0E4414396E3650371038103910D8B4BE
:100CC00064EF06F066EF06F06AEF06F0010E466E7E
:100CD00073EF06F02EA06FEF06F071EF06F073EFE2
:100CE00006F066EF06F04650D8B479EF06F07BEFD9
:100CF00006F09FEF06F0010E2E26000E2F22302266
:100D0000312231A086EF06F088EF06F09FEF06F063
:100D10002EC036F02FC037F030C038F031C039F077
:100D20003934393238323732363236C02EF037C0A5
:100D30002FF038C030F039C031F03F4A402A40BE71
:100D4000AAEF06F0405008E13F28D8A0AAEF06F02D
:100D5000ACEF06F0B7EF06F0000E406E3F68000EF5
:100D60002E6E000E2F6E000E306E000E316E40BEE5
:100D7000C4EF06F0405006E13F04D8B0C2EF06F0E1
:100D8000C4EF06F0D2EF06F0000E406E000E3F6E8C
:100D9000000E2E6E000E2F6E000E306E000E316EA5
:100DA000000E3E6E3FC045F045A0D9EF06F0DBEFE8
:100DB00006F0DEEF06F0308EDFEF06F0309ED890C2
:100DC0004530316E95EF05F012000F6E0F50D8B41C
:100DD000ECEF06F0EEEF06F010EF07F00ABEF5EFCD
:100DE00006F0F3EF06F010EF07F007C00BF008C0B5
:100DF0000CF009C00DF00AC00EF00B1E0C1E0D1EEB
:100E00000E1E0B2A000E0C220D220E220BC011F01A
:100E10000CC012F00DC013F00EC014F018EF07F064
:100E200007C011F008C012F009C013F00AC014F096
:100E30000750081009100A10D8A421EF07F023EF7B
:100E400007F02DEF07F0000E076E000E086E000E83
:100E5000096E000E0A6EBEEF07F0960E106E37EFA9
:100E600007F0102AD8901432133212321132000EC9
:100E700011140B6E000E12140C6E000E13140D6E76
:100E8000FE0E14140E6E0B500C100D100E10D8A484
:100E90004CEF07F04EEF07F031EF07F05CEF07F093
:100EA000102A010E1126000E122213221422D890AD
:100EB0001432133212321132000E11140B6E000E66
:100EC00012140C6E000E13140D6EFF0E14140E6E21
:100ED0000B500C100D100E10D8A471EF07F073EF2B
:100EE00007F050EF07F07BEF07F01006D8901136AF
:100EF00012361336143613BE80EF07F082EF07F078
:100F00008AEF07F0020E106088EF07F08AEF07F013
:100F100075EF07F010B08FEF07F091EF07F092EF49
:100F200007F0139ED890103210C00BF00C6A0D6AB7
:100F30000E6A0BC00EF00D6A0C6A0B6A0B50111290
:100F40000C5012120D5013120E5014120F50D8B430
:100F5000ACEF07F0AEEF07F0B6EF07F00ABEB5EF63
:100F600007F0B3EF07F0B6EF07F0148E11C007F0EB
:100F700012C008F013C009F014C00AF0120051C0EA
:100F80000CF052C00DF0000E0F6E640E0E6E40ECB1
:100F90000CF00C506E6E000E0A6E640E096E51C09D
:100FA00007F052C008F0E0EC0CF007C00CF008C0ED
:100FB0000DF0000E0F6E0A0E0E6E40EC0CF00C5091
:100FC0006D6E51C007F052C008F0000E0A6E0A0E96
:100FD000096EE0EC0CF007506C6EB0EC0BF05DC0ED
:100FE0000CF05EC00DF0030E0F6EE80E0E6E40ECBE
:100FF0000CF00C50666E030E0A6EE80E096E5DC0B2
:1010000007F05EC008F0E0EC0CF007C00CF008C080
:101010000DF0000E0F6E640E0E6E40EC0CF00C50D6
:10102000656E000E0A6E640E096E5DC007F05EC04C
:1010300008F0E0EC0CF007C00CF008C00DF0000E5A
:101040000F6E0A0E0E6E40EC0CF00C50646E5DC01C
:1010500007F05EC008F0000E0A6E0A0E096EE0ECA2
:101060000CF00750636E480E196EE10E1A6EDA0E20
:101070001B6E3F0E1C6EBDC007F0BEC008F0096AB3
:101080000A6A000EE5EC06F007C015F008C016F07D
:1010900009C017F00AC018F003EC03F015C047F0C0
:1010A00016C048F017C049F018C04AF0B1EC09F07A
:1010B00047C051F048C052F06850D8B462EF08F011
:1010C00064EF08F068EF08F018EC09F0000E686EA5
:1010D0006750D8B46EEF08F070EF08F074EF08F0C6
:1010E00075EC08F0000E676E1200000E326EC00E36
:1010F000336E7F0E346E440E356E000E196E000E88
:101100001A6EC80E1B6E420E1C6EC3C007F0C4C020
:1011100008F0096A0A6A000EE5EC06F007C015F04F
:1011200008C016F009C017F00AC018F003EC03F06D
:1011300015C02EF016C02FF017C030F018C031F0D7
:1011400018EC05F02EC047F02FC048F030C049F031
:1011500031C04AF0B1EC09F047C059F048C05AF02C
:101160005A5007E1140E595CD8B0B9EF08F0BBEF44
:1011700008F0BFEF08F0000E5A6E140E596E000E04
:10118000326EC00E336E7F0E346E440E356E000E1E
:10119000196E000E1A6EC80E1B6E420E1C6EC5C074
:1011A00007F0C6C008F0096A0A6A000EE5EC06F00E
:1011B00007C015F008C016F009C017F00AC018F0F3
:1011C00003EC03F015C02EF016C02FF017C030F05E
:1011D00018C031F018EC05F02EC047F02FC048F0D1
:1011E00030C049F031C04AF0B1EC09F047C057F0C7
:1011F00048C058F0585007E1140E575CD8B003EFC0
:1012000009F005EF09F009EF09F0000E586E140E11
:10121000576E575059240001CB6F58505A20CC6F4D
:10122000D890CC31CD6FCB31556ECDC056F0120079
:101230008CCF62F0010EC1EC0DF0800EC1EC0DF010
:1012400059C00CF05AC00DF0000E0F6E0A0E0E6E53
:1012500040EC0CF00C50300FB0EC0DF059C007F022
:101260005AC008F0000E0A6E0A0E096EE0EC0CF08F
:101270000750300FB0EC0DF0DF0EB0EC0DF0430E68
:10128000B0EC0DF0010E096E060E0A6E12EC0DF0B8
:1012900057C00CF058C00DF0000E0F6E0A0E0E6E07
:1012A00040EC0CF00C50300FB0EC0DF057C007F0D4
:1012B00058C008F0000E0A6E0A0E096EE0EC0CF041
:1012C0000750300FB0EC0DF0DF0EB0EC0DF0430E18
:1012D000B0EC0DF0C00EC1EC0DF055C00CF056C0D6
:1012E0000DF0000E0F6E0A0E0E6E40EC0CF00C505E
:1012F000300FB0EC0DF055C007F056C008F0000EEE
:101300000A6E0A0E096EE0EC0CF00750300FB0ECDC
:101310000DF0DF0EB0EC0DF0430EB0EC0DF0010E51
:10132000096E060E0A6E12EC0DF06650300FB0EC2E
:101330000DF06550300FB0EC0DF02E0EB0EC0DF04E
:101340006450300FB0EC0DF06350300FB0EC0DF086
:10135000DF0EB0EC0DF0430EB0EC0DF062C08CFF70
:10136000120049344A340001CA6FCA51D8A4BBEFF5
:1013700009F0BDEF09F0C7EF09F0000E476E000E4F
:10138000486E000E496E000E4A6E34EF0AF047C0F8
:101390004BF048C04CF049C04DF04AC04EF0200E12
:1013A000D7EF09F0D8904E324D324C324B32E82E06
:1013B000D2EF09F04B50C96F498EFF0E4716FF0E52
:1013C0004816FF0E4916000E4A16960ECA5FCABF8F
:1013D000EEEF09F0ECEF09F004EF0AF0CA51800AD1
:1013E000970FD8B0F6EF09F0F8EF09F0FAEF09F02F
:1013F000BDEF09F0D8904A32493248324732CA3FED
:10140000FAEF09F01CEF0AF01F0ECA650AEF0AF0A6
:101410000CEF0AF014EF0AF0BDEF09F0D890473650
:10142000483649364A36CA07CA51D8A41AEF0AF0D4
:101430001CEF0AF00EEF0AF0C951D8B422EF0AF0FF
:1014400024EF0AF02CEF0AF04A1E491E481E476C92
:10145000000E482249224A2247C047F048C048F0BF
:1014600049C049F04AC04AF012000600D9CF05F041
:10147000DACF06F0F2A43FEF0AF041EF0AF048EFAE
:101480000AF0000ED76E060ED66EA9EC0AF0F294A2
:10149000F2A24DEF0AF04FEF0AF057EF0AF0F2A870
:1014A00054EF0AF056EF0AF057EF0AF0F292F0A06C
:1014B0005CEF0AF05EEF0AF066EF0AF0F0A663EF69
:1014C0000AF065EF0AF066EF0AF0F090F0A26BEF19
:1014D0000AF06DEF0AF075EF0AF0F0A872EF0AF06B
:1014E00074EF0AF075EF0AF0F0929EAC7AEF0AF012
:1014F0007CEF0AF08BEF0AF09DAC81EF0AF083EFEE
:101500000AF08BEF0AF0F2AC88EF0AF08AEF0AF0EB
:101510008BEF0AF09E9C9EA290EF0AF092EF0AF0E9
:10152000A3EF0AF09DA297EF0AF099EF0AF0A3EF5C
:101530000AF0F2AC9EEF0AF0A0EF0AF0A3EF0AF077
:101540009EEC0DF09E9206C0DAFF05C0D9FF79929D
:101550001100FAEC0BF0775007E1050E765CD8B07D
:10156000B4EF0AF0B6EF0AF0BAEF0AF0764A772A3B
:10157000C0EF0AF002EC0BF0000E776E010E766EF3
:10158000755007E1FA0E745CD8B0C9EF0AF0CBEFE2
:101590000AF0CFEF0AF0744A752AD5EF0AF0010E6F
:1015A000686E000E756E010E746E735007E10A0EC0
:1015B000725CD8B0DEEF0AF0E0EF0AF0E4EF0AF078
:1015C000724A732AECEF0AF0010E676E5AEC0BF0C8
:1015D000000E736E010E726EF40E705C010E715887
:1015E000D8B0F5EF0AF0F7EF0AF0FBEF0AF0704A17
:1015F000712A01EF0BF0DFEC0DF0000E716E010EA1
:10160000706E12003CEF0BF08984899AA20E6F2451
:10161000D96EDA6A000EDA22DF508C6E010E696E26
:1016200059EF0BF089948986A20E6E24D96EDA6A7E
:10163000000EDA22DF508C6E020E696E59EF0BF04D
:1016400089968988A20E6D24D96EDA6A000EDA2294
:10165000DF508C6E030E696E59EF0BF08998898A02
:10166000A20E6C24D96EDA6A000EDA22DF508C6E7C
:10167000000E696E59EF0BF06950016E026A02505C
:10168000000AD8B446EF0BF059EF0BF00150000AF6
:10169000D8B404EF0BF0010AD8B412EF0BF0030A30
:1016A000D8B420EF0BF0010AD8B42EEF0BF059EFAD
:1016B0000BF0120059505B5C5A505C58D8B063EF85
:1016C0000BF065EF0BF070EF0BF0828A000E026EEC
:1016D000000E016E75EC0DF0010E606E7EEF0BF0EA
:1016E0005B50575C5C505858D8B079EF0BF07BEFEB
:1016F0000BF07EEF0BF0829A000E606E6050D8A463
:1017000084EF0BF086EF0BF0AFEF0BF05B50555C06
:101710005C505658D8B08FEF0BF091EF0BF09DEF67
:101720000BF0829A030E506E4F684FC001F050C00C
:1017300002F075EC0DF0AFEF0BF055505B5C5650BE
:101740005C58D8B0A6EF0BF0A8EF0BF0AFEF0BF0A2
:10175000829A020E506ECC0E4F6E95EF0BF0120077
:10176000000E326EC00E336E7F0E346E440E356E38
:10177000000E196E500E1A6E430E1B6E470E1C6E35
:10178000C7C007F0C8C008F0096A0A6A000EE5EC95
:1017900006F007C015F008C016F009C017F00AC01F
:1017A00018F003EC03F015C02EF016C02FF017C090
:1017B00030F018C031F018EC05F02EC047F02FC003
:1017C00048F030C049F031C04AF0B1EC09F047C0F0
:1017D0005DF048C05EF05DC00CF05EC00DF0000E24
:1017E0000F6E640E0E6E40EC0CF00CC05BF00DC082
:1017F0005CF0120026EF0CF0C3CFC3F0C4CFC4F0EE
:10180000010EF7EC0DF012EC0EF0010E5F6E3FEFE3
:101810000CF0C3CFC5F0C4CFC6F092840C0EC16EDD
:10182000020EF7EC0DF012EC0EF0020E5F6E3FEFC1
:101830000CF0C3CFC7F0C4CFC8F0000EF7EC0DF02A
:1018400012EC0EF0000E5F6E3FEF0CF05F50026E78
:10185000036A0350000AD8B430EF0CF03FEF0CF0ED
:101860000250000AD8B4FCEF0BF0010AD8B409EF1B
:101870000CF0030AD8B419EF0CF03FEF0CF0120093
:10188000000E116E000E106E0E500F10D8B44BEFFC
:101890000CF04DEF0CF075EF0CF0010E126E55EFE1
:1018A0000CF0D8900E360F36122A0FAE5AEF0CF00D
:1018B0005CEF0CF051EF0CF0D890103611360E5052
:1018C0000C5C0F500D58D8A068EF0CF06AEF0CF0CC
:1018D0006FEF0CF00E500C5E0F500D5A1080D89028
:1018E0000F320E32122E5CEF0CF010C00CF011C053
:1018F0000DF01200B60EF66E1A0EF76E000EF86EB0
:1019000000EE80F010EE33F00900F5CFEEFFE55069
:10191000E150FAE1060EF66E1C0EF76E000EF86E40
:1019200000EE70F010EE09F00900F5CFEEFFE55083
:10193000E150FAE100EEB3F0160EEE6AE806FDE1C2
:1019400000EE4FF0210EEE6AE806FDE17990799203
:10195000000EF86E0001E8EF0DF0849284941A0EE8
:10196000096EF80EE82EFED7092EFCD700D084822F
:10197000380EC1EC0DF0070E096E7D0EE82EFED775
:10198000092EFCD700F0380EC1EC0DF0C80E00D0C7
:10199000E82EFDD7380EC1EC0DF0080EC1EC0DF0AD
:1019A0000F0EC1EC0DF0010EC1EC0DF0380EC1ECC4
:1019B0000DF0800EC1EC0DF00C0EC1EC0DF012001C
:1019C00009500A10D8B4E7EF0CF0E9EF0CF00DEF76
:1019D0000DF0010E0B6EF1EF0CF0D89009360A36BF
:1019E0000B2A0AAEF6EF0CF0F8EF0CF0EDEF0CF06E
:1019F0000950075C0A500858D8A001EF0DF003EF1A
:101A00000DF007EF0DF00950075E0A50085AD89004
:101A10000A3209320B2EF8EF0CF007C007F008C0AD
:101A200008F01200000E0D6E25EF0DF00D50092488
:101A30000B6E000E0A200C6E0BC0F6FF0CC0F7FFF9
:101A40000800F550B0EC0DF00D2A0D5009240B6E76
:101A5000000E0A200C6E0BC0F6FF0CC0F7FF08004A
:101A6000F5500009D8A437EF0DF039EF0DF016EF5F
:101A70000DF0120008EC0EF08BEC0DF0D2EC0DF036
:101A8000040ECA6E9D82CB680C0EBD6EF0EC0DF09C
:101A9000898489868988898AADEC0CF0000E6F6E86
:101AA000000E6E6E000E6D6E000E6C6EFEEC0DF094
:101AB00010EC0EF012004142434445464748494A63
:101AC00000000000000000414243444546474849A9
:101AD0004A000000000000003F065B4F666D7D0776
:091AE0007F6F777C395E7971009B
:101AEA00CF0EBD1601C003F0030E03160338F00B28
:101AFA00BD1201C003F002C004F0D89004320332D0
:101B0A00D890043203320350BE6E1200C30E926E96
:101B1A003F0E936EDB0E946E000E956EF80E966E67
:101B2A00000E896E000E8A6E200E8B6E000E8C6E71
:101B3A001200000E82B0010E616E7850615CD8B05E
:101B4A00A9EF0DF0ABEF0DF0ADEF0DF0534A542AAB
:101B5A0061C078F01200086E848208500CEC0EF016
:101B6A0084840D0EE82EFED700F084920D0EE82E26
:101B7A00FED700F084821200086E848208500CECB2
:101B8A000EF084940D0EE82EFED700F084920D0E0E
:101B9A00E82EFED700F084821200900EF26E050E37
:101BAA00F16ED80EF06EC10ED56E000ED76E060E0F
:101BBA00D66E120053C0BDF054C0BEF0000E546E73
:101BCA00000E536E12003AEC0DF0BFEC07F0EAEF8C
:101BDA000DF007EF00F0010EC26E0D0EC16E940EED
:101BEA00C06E1200016E0144E846FC0B0109C26E88
:101BFA001200F28A9D8CF28CF28E12000100010012
:051C0A000100010001D2
:101C1000D09EF29EF29C1200076E07C083FF120056
:081C2000C2821200C282120010
:020000040020DA
:08000000FFFFFFFFFFFFFFFF00
:020000040030CA
:0E000000FF021F1EFF8381FF0FC00FE00F40A5
:00000001FF
