:0400000007EF00F016
:0A0008006A82F3ED04F0B2EF07F096
:1006000000547261623031204A6F68616E6E005032
:05061000574D3A000007
:10061600100E546EF80E936E0F0E956E070E8A121C
:10062600010E8A1A000E4F6E000E4E6E00F04E4AF4
:100636004F2A4FBE28EF03F04F5009E10A0E4E5CD9
:10064600D8A028EF03F02AEF03F019EF03F083CFC9
:1006560055F055B031EF03F033EF03F035EF03F00B
:100666000A0E546E55B23AEF03F03CEF03F03EEF3C
:1006760003F0070E546E55B443EF03F045EF03F055
:1006860047EF03F0040E546E55B64CEF03F04EEFF1
:1006960003F050EF03F0010E546E030E8A1A000E9B
:1006A600516E000E506E00F0504A512A51BE65EF51
:1006B60003F0515009E10A0E505CD8A065EF03F033
:1006C60067EF03F056EF03F083CF55F055B06EEFAA
:1006D60003F070EF03F072EF03F0000E546E55B2A4
:1006E60077EF03F079EF03F07BEF03F0080E546E1B
:1006F60055B480EF03F082EF03F084EF03F0050EAC
:10070600546E55B689EF03F08BEF03F08DEF03F0CF
:10071600020E546E060E8A1A000E536E000E526EAC
:1007260000F0524A532A53BEA2EF03F0535009E198
:100736000A0E525CD8A0A2EF03F0A4EF03F093EFE9
:1007460003F083CF55F055B0ABEF03F0ADEF03F0F8
:10075600AFEF03F00B0E546E55B2B4EF03F0B6EFE5
:1007660003F0B8EF03F0090E546E55B4BDEF03F075
:10077600BFEF03F0C1EF03F0060E546E55B6C6EF99
:1007860003F0C8EF03F0CAEF03F0030E546E93684C
:10079600000E956E545012000BEC03F0426E100ED4
:1007A6004218D8B4D9EF03F0DBEF03F064EF04F09E
:1007B60043504218D8B4E2EF03F0E4EF03F064EFDD
:1007C60004F03AEF04F042C047F04750566E576ABD
:1007D6004850020D320EF324D96E000EF420DA6E64
:1007E60056C0DEFF57C0DDFF47C04DF046C04CF097
:1007F60045C04BF044C04AF057EF04F042C046F003
:100806004650566E576A4850020D320EF324D96E82
:10081600000EF420DA6E56C0DEFF57C0DDFFF7EF9C
:1008260003F042C045F04550566E576A4850020DD7
:10083600320EF324D96E000EF420DA6E56C0DEFFB7
:1008460057C0DDFFF7EF03F042C044F04450566E48
:10085600576A4850020D320EF324D96E000EF4206A
:10086600DA6E56C0DEFF57C0DDFFF7EF03F04850E3
:10087600566E576A5750000AD8B444EF04F057EF43
:1008860004F05650000AD8B4E6EF03F0010AD8B4D3
:1008960001EF04F0030AD8B414EF04F0010AD8B447
:1008A60027EF04F057EF04F0030E48645DEF04F001
:1008B6005FEF04F063EF04F0000E486E64EF04F09F
:1008C600482A42C043F012003CC05CF05D6A4950C1
:1008D600D8B470EF04F072EF04F0F2EF04F05CC0ED
:1008E6005AF05DC05BF0D8905A365B36D8905A36CF
:1008F6005B365AC04EF05BC04FF085EC08F05CC02A
:100906005AF05DC05BF0D8905A365B36D8905A36AE
:100916005B365AC053F05BC054F0030E566EE80EB9
:10092600556EABEC06F05350300F316E030E516E20
:10093600E80E506E5CC05AF05DC05BF0D8905A3637
:100946005B36D8905A365B365AC04EF05BC04FF0D5
:1009560052EC07F04EC053F04FC054F0000E566EE6
:10096600640E556EABEC06F05350300F306E000E31
:10097600516E640E506E5CC05AF05DC05BF0D8904C
:100986005A365B36D8905A365B365AC04EF05BC044
:100996004FF052EC07F04EC053F04FC054F0000E2B
:1009A600566E0A0E556EABEC06F05350300F2F6E96
:1009B6005CC05AF05DC05BF0D8905A365B36D89072
:1009C6005A365B365AC04EF05BC04FF0000E516E81
:1009D6000A0E506E52EC07F04E50300F2E6E12007B
:1009E6000600D9CF5EF0DACF5FF0F3CF60F0F4CF38
:1009F60061F0F6CF62F0F7CF63F0F8CF64F0F5CF91
:100A060065F0F2A409EF05F00BEF05F012EF05F023
:100A1600000ED76E060ED66EBAEC05F0F294F2A270
:100A260017EF05F019EF05F021EF05F0F2A81EEF1C
:100A360005F020EF05F021EF05F0F292F0A026EF89
:100A460005F028EF05F030EF05F0F0A62DEF05F0E4
:100A56002FEF05F030EF05F0F090F0A235EF05F03E
:100A660037EF05F03FEF05F0F0A83CEF05F03EEF5D
:100A760005F03FEF05F0F0929EAC44EF05F046EF2F
:100A860005F050EF05F09DAC4BEF05F04DEF05F08E
:100A960050EF05F084EC07F09E9C65C0F5FF64C03E
:100AA600F8FF63C0F7FF62C0F6FF61C0F4FF60C0E5
:100AB600F3FF5FC0DAFF5EC0D9FF6A9211009CEFB8
:100AC60005F08984899A010E4D24D96EDA6A000EE2
:100AD600DA22DF508C6E010E3F6EB9EF05F0899475
:100AE6008986010E4C24D96EDA6A000EDA22DF50AE
:100AF6008C6E020E3F6EB9EF05F089968988010E5D
:100B06004B24D96EDA6A000EDA22DF508C6E030EA1
:100B16003F6EB9EF05F08998898A010E4A24D96E8D
:100B2600DA6A000EDA22DF508C6E000E3F6EB9EFE5
:100B360005F03F504E6E4F6A4F50000AD8B4A6EFEC
:100B460005F0B9EF05F04E50000AD8B464EF05F091
:100B5600010AD8B472EF05F0030AD8B480EF05F0A5
:100B6600010AD8B48EEF05F0B9EF05F012002A504D
:100B760007E1050E295CD8B0C3EF05F0C5EF05F017
:100B8600C9EF05F0294A2A2ACFEF05F062EC05F0F5
:100B9600000E2A6E010E296E6850275C695028588F
:100BA600D8B0D8EF05F0DAEF05F0DEEF05F0274A0A
:100BB600282AE4EF05F06FEC08F0000E286E010E0F
:100BC600276E6650255C67502658D8B0EDEF05F0C5
:100BD600EFEF05F0F3EF05F0254A262AF7EF05F0CB
:100BE600000E266E010E256E245007E10A0E235CC8
:100BF600D8B000EF06F002EF06F006EF06F0234A43
:100C0600242A10EF06F0CFEC03F011EC06F067ECA7
:100C160004F0000E246E010E236E120081CF5DF0EB
:100C26005DA618EF06F01AEF06F01EEF06F0010EAD
:100C36005A6E20EF06F0000E5A6E5DA825EF06F0FC
:100C460027EF06F02BEF06F0010E5B6E2DEF06F098
:100C5600000E5B6E5DAA32EF06F034EF06F038EF59
:100C660006F0010E5C6E3AEF06F0000E5C6E2D503B
:100C76005A5CD8B041EF06F043EF06F045EF06F0B8
:100C860031EC08F02C505B5CD8B04CEF06F04EEF20
:100C960006F050EF06F045EC09F02B505C5CD8B03E
:100CA60057EF06F059EF06F05BEF06F062EC06F040
:100CB6005AC02DF05BC02CF05CC02BF01200000E69
:100CC600496E32C04EF033C04FF0030E516EE80E3F
:100CD600506EC1EC08F04EC054F04FC055F034C011
:100CE6004EF035C04FF0000E516E640E506EC1ECE2
:100CF60008F04E505424566E4F505520576E36C04D
:100D06004EF037C04FF0000E516E0A0E506EC1EC19
:100D160008F04E505624586E4F505720596E385092
:100D260058243A6E395059203B6E3250300F316E8E
:100D36003450300F306E3650300F2F6E3850300F23
:100D46002E6E3AC04EF03BC04FF085EC08F0120014
:100D5600000E586E000E576E55505610D8B4B6EFAA
:100D660006F0B8EF06F0E0EF06F0010E596EC0EFA0
:100D760006F0D89055365636592A56AEC5EF06F0C7
:100D8600C7EF06F0BCEF06F0D890573658365550E8
:100D9600535C56505458D8A0D3EF06F0D5EF06F062
:100DA600DAEF06F05550535E5650545A5780D89095
:100DB60056325532592EC7EF06F057C053F058C079
:100DC60054F012003DEC09F0D4EC08F007EC09F001
:100DD600050ECA6ECB680C0EBD6E25EC09F0898433
:100DE60089868988898A010E696EF40E686E010EFD
:100DF600676E2C0E666E1EEC07F048EC09F0000ECE
:100E06004D6E000E4C6E000E4B6E000E4A6E010EBD
:100E16000001936F060E946FDFEC07F0C00EAEEC88
:100E260008F00F0E0001936F060E946FDFEC07F0CB
:100E360038EC09F01200849284941A0E0001936F24
:100E4600F80EE82EFED7932FFCD700F08482380EDA
:100E5600AEEC08F0070E0001936F7D0EE82EFED76C
:100E6600932FFCD7380EAEEC08F0C80E00D0E82E53
:100E7600FDD7380EAEEC08F0080EAEEC08F00F0EFB
:100E8600AEEC08F0010EAEEC08F0380EAEEC08F051
:100E9600800EAEEC08F00C0EAEEC08F012005050CE
:100EA6005110D8B459EF07F05BEF07F07FEF07F06A
:100EB600010E526E63EF07F0D89050365136522A23
:100EC60051AE68EF07F06AEF07F05FEF07F050509A
:100ED6004E5C51504F58D8A073EF07F075EF07F0EE
:100EE60079EF07F050504E5E51504F5AD89051321C
:100EF6005032522E6AEF07F04EC04EF04FC04FF000
:100F060012009CEF07F0C4CF3CF0010E2CEC09F068
:100F16004AEC09F0010E3E6EB1EF07F0C4CF3DF08A
:100F2600000E2CEC09F04AEC09F0000E3E6EB1EF13
:100F360007F03E504F6E506A5050000AD8B4A6EFE4
:100F460007F0B1EF07F04F50000AD8B486EF07F06C
:100F5600010AD8B491EF07F0B1EF07F01200280E9E
:100F6600F66E120EF76E000EF86E00EE80F010EEC2
:100F760011F00900F5CFEEFFE550E150FAE1AC0EB5
:100F8600F66E100EF76E000EF86E00EE01F010EE23
:100F960031F00900F5CFEEFFE550E150FAE100EE41
:100FA60032F01C0EEE6AE806FDE16A906A92000EC7
:100FB600F86E00011DEF09F0000E0001976FF4EFC7
:100FC60007F097519325956F000E9421966F95C063
:100FD600F6FF96C0F7FF0800F5509BEC08F00001FD
:100FE600972B97519325956F000E9421966F95C078
:100FF600F6FF96C0F7FF0800F5500009D8A406EFE3
:1010060008F008EF08F0E4EF07F01200000E546E47
:101016001CEF08F054505024526E000E5120536EAF
:1010260052C0F6FF53C0F7FF0800F550E5EC08F094
:10103600542A54505024526E000E5120536E52C002
:10104600F6FF53C0F7FF0800F5500009D8A42EEFAD
:1010560008F030EF08F00DEF08F01200000E4A6EAF
:101066004AC04BF04BC04CF04CC04DF0000E4F6EDA
:10107600000E4E6E85EC08F0300E316E300E306E7E
:10108600300E2F6E300E2E6E000E496E000E486E1C
:10109600000E476E000E466E000E456E000E446E44
:1010A600000E436E12003F065B4F666D7D077F6F35
:1010B600777C395E79710041424344454647484949
:1010C6004A000000000000000100010001000100CC
:0710D6000101012020202090
:1010DE00C00EF6EC08F00F0E506E060E516E09ECB7
:1010EE0008F03150E5EC08F03050E5EC08F02F50E8
:1010FE00E5EC08F02E50E5EC08F01200CF0EBD1610
:10110E004EC050F0030E50165038F00BBD124EC0AC
:10111E0050F04FC051F0D89051325032D8905132D9
:10112E0050325050BE6E12000001926F8482000148
:10113E00925133EC09F084840D0EE82EFED700F0A8
:10114E0084920D0EE82EFED700F08482120000016C
:10115E00926F84820001925133EC09F084940D0E4B
:10116E00E82EFED700F084920D0EE82EFED700F08A
:10117E00848212004E505002F3CF52F0F4CF53F04F
:10118E004E505102F35053264F505002F3505326F7
:10119E0052C04EF053C04FF01200C30E926E3F0E6F
:1011AE00936EFB0E946E000E956EF90E966E000EFB
:1011BE00896E000E8A6E000E8C6E12004F6E848247
:1011CE004F5041EC09F084840D0EE82EFED700F04E
:1011DE0084920D0EE82EFED700F0848212004F6E20
:1011EE0084824F5041EC09F084940D0EE82EFED708
:1011FE0000F084920D0EE82EFED700F084821200CD
:10120E00900EF26E050EF16ED80EF06EC10ED56E0A
:10121E00000ED76E060ED66E12004142434445466E
:0B122E004748494A0000000000000093
:10123A00E5EC06F04CEC09F01FEF09F007EF00F0BF
:10124A00010EC26E0D0EC16E140EC06E12004E6EED
:10125A004E44E846FC0B0109C26E12000001916F70
:10126A0091C083FF1200F28A9D8CF28CF28E1200DA
:10127A00D09EF29EF29C12004E6E4EC083FF120068
:10128A00010E496E1200C2821200C28212001200BE
:020000040020DA
:08000000FFFFFFFFFFFFFFFF00
:020000040030CA
:0E000000FF021F1EFF8381FF0FC00FE00F40A5
:00000001FF
