:0400000007EF00F016
:0A0008007F8264ED17F014EF1CF086
:10060000002020202020202020202020202020200A
:1006100000202020202025332E3266252500696EFB
:0706200066006E616E000030
:10062800000E696E41C06CF042C06DF043C06EF0C0
:1006380044C06FF06FBE25EF03F023EF03F039EFEE
:1006480003F0010E696E6CC001F06DC002F06EC05F
:1006580003F06FC004F061EC1EF001C06CF002C042
:100668006DF003C06EF004C06FF0000E6B6E000EEC
:100678006A6EBAC059F0BBC05AF06950D8B447EF97
:1006880003F049EF03F05DEF03F06950D8A44FEF92
:1006980003F051EF03F057EF03F0000E4F6E2B0EEF
:1006A8004E6E5BEF03F0000E4F6E2D0E4E6E4EC079
:1006B80069F06CC001F06DC002F06EC003F06FC04D
:1006C80004F0E5EC17F001040210D8A46EEF03F073
:1006D80070EF03F0A1EF03F06950D8B476EF03F0A0
:1006E80078EF03F081EF03F069C038F15906D8A01C
:1006F8005A06000E6B6E010E6A6E380E6A24016E81
:10070800010E6B20026E1E0E036E060E046E04ECC4
:100718001EF0FD0E5926FF0E5A223FC011F040C0B0
:1007280012F0380E136E010E146E59C015F05AC02F
:1007380016F0A7EC19F0FCEF07F06CC001F06DC0E3
:1007480002F06EC003F06FC004F0E5EC17F0015042
:100758000210D8A4B2EF03F0B4EF03F0D3EF03F024
:100768006950D8B4BAEF03F0BCEF03F0C5EF03F05B
:1007780069C038F15906D8A05A06000E6B6E010EF2
:100788006A6E380E6A24016E010E6B20026E220E0C
:10079800036E060E046E04EC1EF08DEF03F0000EDF
:1007A800706E000E716E800E726E3F0E736E000ECC
:1007B800586E000E576E6CC001F06DC002F06EC02E
:1007C80003F06FC004F0000E056E000E066E000EFA
:1007D800076E000E086EFEEC19F0D8B0F6EF03F0C5
:1007E800F8EF03F0D3EF04F004EF04F05BC070F00F
:1007F8005CC071F05DC072F05EC073F0574A582A51
:1008080070C01AF071C01BF072C01CF073C01DF0EC
:10081800000E1E6E000E1F6E200E206E410E216E01
:100828007DEC0CF01AC05BF01BC05CF01CC05DF0E6
:100838001DC05EF05B506C5C016E5C506D58026EC2
:100848005D506E58036E5E506F58046E7AEC1CF063
:1008580004BE3AEF04F004500310021009E1020E3E
:10086800015CD8A03AEF04F03CEF04F0FAEF03F093
:100878005BC033F05CC034F05DC035F05EC036F06C
:100888006CC037F06DC038F06EC039F06FC03AF008
:1008980061EC16F0D8A053EF04F055EF04F0FAEF2E
:1008A80003F070506C5C016E71506D58026E72509E
:1008B8006E58036E73506F58046E7AEC1CF004BEC9
:1008C80073EF04F004500310021007E1020E015CFC
:1008D800D8B071EF04F073EF04F0BAEF04F070C011
:1008E8006CF071C06DF072C06EF073C06FF0D3EF32
:1008F80004F070C001F071C002F072C003F073C060
:1009080004F0000E056E000E066E200E076E410EF6
:10091800086E92EC0EF001C070F002C071F003C0D6
:1009280072F004C073F05706D8A0580670506C5C7B
:10093800016E71506D58026E72506E58036E73508E
:100948006F58046E7AEC1CF004BEB8EF04F0045043
:100958000310021007E1020E015CD8B0B6EF04F0F4
:10096800B8EF04F0BAEF04F073EF04F06CC033F0A2
:100978006DC034F06EC035F06FC036F070C037F01F
:1009880071C038F072C039F073C03AF061EC16F0FB
:10099800D8A0D1EF04F0D3EF04F07DEF04F045C008
:1009A80051F051C052F00001BDBFDDEF04F0DFEFA0
:1009B80004F0E5EF04F0BCC04AF0BDC04BF0E9EF2D
:1009C80004F0000E4B6E060E4A6E4AC055F04BC03E
:1009D80056F0554A562A660E5218D8A4F6EF04F077
:1009E800F8EF04F018EF05F058BEFFEF04F0FDEF44
:1009F80004F00BEF05F0000E706E000E716E800EA5
:100A0800726E3F0E736E000E586E000E576E670EB4
:100A18005118D8B412EF05F014EF05F018EF05F0EF
:100A28005750552658505622000E606E000E5F6EC5
:100A38006CC061F06DC062F06EC063F06FC064F0AE
:100A480070C05BF071C05CF072C05DF073C05EF0A6
:100A5800A8EF05F061C001F062C002F063C003F0C6
:100A680064C004F070C005F071C006F072C007F0F1
:100A780073C008F092EC0EF001C01AF002C01BF02F
:100A880003C01CF004C01DF05FEC10F01AC065F044
:100A98001BC066F01CC067F01DC068F065C001F09F
:100AA80066C002F067C003F068C004F0DEEC15F021
:100AB80001C053F002C054F061C033F062C034F09A
:100AC80063C035F064C036F065C01EF066C01FF024
:100AD80067C020F068C021F070C01AF071C01BF028
:100AE80072C01CF073C01DF07DEC0CF01AC037F01A
:100AF8001BC038F01CC039F01DC03AF07AEC1DF06C
:100B080033C061F034C062F035C063F036C064F0C1
:100B180070C001F071C002F072C003F073C004F03D
:100B2800000E056E000E066E200E076E410E086E52
:100B380092EC0EF001C070F002C071F003C072F0C8
:100B480004C073F05F4A602A55505F5C6050800AA9
:100B5800466E5650800A4658D8A0B5EF05F0B7EF54
:100B680005F02EEF05F070C01AF071C01BF072C0CE
:100B78001CF073C01DF0000E1E6E000E1F6EA00E3E
:100B8800206E400E216E7DEC0CF01AC065F01BC083
:100B980066F01CC067F01DC068F061C033F062C029
:100BA80034F063C035F064C036F065C037F066C015
:100BB80038F067C039F068C03AF061EC16F0D8B088
:100BC800E8EF05F0EAEF05F0F4EF05F0000E656ECA
:100BD800000E666E000E676E000E686E1CEF06F063
:100BE80061C001F062C002F063C003F064C004F0A9
:100BF80065C005F066C006F067C007F068C008F079
:100C0800FEEC19F0D8A00BEF06F00DEF06F01CEF84
:100C180006F053B012EF06F014EF06F01CEF06F0E2
:100C2800000E656E000E666E000E676E000E686E32
:100C38006CC001F06DC002F06EC003F06FC004F02C
:100C480065C005F066C006F067C007F068C008F028
:100C5800FDEC07F001C061F002C062F003C063F070
:100C680004C064F061C033F062C034F063C035F092
:100C780064C036F0000E1E6E000E1F6E200E206E31
:100C8800410E216E5BC01AF05CC01BF05DC01CF009
:100C98005EC01DF07DEC0CF01AC037F01BC038F0B8
:100CA8001CC039F01DC03AF061EC16F0D8A05FEF17
:100CB80006F061EF06F088EF06F0574A582A5BC045
:100CC8001AF05CC01BF05DC01CF05EC01DF0000E89
:100CD8001E6E000E1F6E200E206E410E216E7DECE2
:100CE8000CF01AC05BF01BC05CF01CC05DF01DC0AE
:100CF8005EF0660E5218D8A484EF06F086EF06F070
:100D080088EF06F0554A562A5BC070F05CC071F057
:100D18005DC072F05EC073F057C048F058C049F02B
:100D2800000E506E000E4D6E000E4C6E000E606E82
:100D3800000E5F6E82EF07F061C001F062C002F042
:100D480063C003F064C004F070C005F071C006F021
:100D580072C007F073C008F092EC0EF001C01AF0F0
:100D680002C01BF003C01CF004C01DF05FEC10F0C3
:100D78001AC065F01BC066F01CC067F01DC068F0A3
:100D880065C001F066C002F067C003F068C004F0F7
:100D9800DEEC15F002BEDCEF06F0025007E10A0EA9
:100DA800015CD8B0DAEF06F0DCEF06F0ECEF06F005
:100DB80065C001F066C002F067C003F068C004F0C7
:100DC800DEEC15F001C053F002C054F0F0EF06F06D
:100DD800000E546E090E536E5050D8A4F6EF06F06C
:100DE800F8EF06F020EF07F049BEFFEF06F0FDEF41
:100DF80006F020EF07F0380E6A24D96E010E6B203A
:100E0800DA6E2E0EDF6E6A4A6B2A5906D8A05A0689
:100E1800010E506E20EF07F0380E6A24D96E010ECD
:100E28006B20DA6E300EDF6E6A4A6B2A5906D8A03C
:100E38005A064C06D8A04D064C504D10D8A427EFA2
:100E480007F029EF07F010EF07F0380E6A24D96E83
:100E5800010E6B20DA6E5350300FDF6E6A4A6B2A30
:100E68005906D8A05A0661C033F062C034F063C096
:100E780035F064C036F065C01EF066C01FF067C06C
:100E880020F068C021F070C01AF071C01BF072C069
:100E98001CF073C01DF07DEC0CF01AC037F01BC0BD
:100EA80038F01CC039F01DC03AF07AEC1DF033C0A0
:100EB80061F034C062F035C063F036C064F070C0D1
:100EC80001F071C002F072C003F073C004F0000EAC
:100ED800056E000E066E200E076E410E086E92EC2F
:100EE8000EF001C070F002C071F003C072F004C0CF
:100EF80073F04806D8A049065F4A602A55505F5CDF
:100F08006050800A466E5650800A4658D8B08FEF17
:100F180007F091EF07F09FEF07F06BBE9DEF07F02A
:100F28006B5009E14B0E6A5CD8A09DEF07F09FEF6C
:100F380007F0A0EF06F0000E606E4F0E5F6E380EE1
:100F48005F24D96E010E6020DA6E000EDF6E380E57
:100F5800466E010E476E6A50465E6B50475A5F50A8
:100F68004624016E60504720026E380E036E010E53
:100F7800046E6AC005F06BC006F02AEC1DF06A50DA
:100F88005F5C6A6E6B5060586B6E6950D8A4CFEF87
:100F980007F0D2EF07F0010ED3EF07F0000E5F6EF7
:100FA800606A6950D8B4DBEF07F0DDEF07F0E8EFCF
:100FB80007F06A06D8A06B06380E6A24D96E010EAF
:100FC8006B20DA6E69C0DFFF5F50595E60505A5A75
:100FD8003FC011F040C012F0380E6A24136E010EA3
:100FE8006B20146E59C015F05AC016F0A7EC19F012
:100FF80012000450800B0D6E045004240F6E03AED3
:1010080008EF08F00AEF08F00BEF08F00F800F5018
:10101800D8B411EF08F013EF08F028EF08F00F2804
:10102800D8A419EF08F01BEF08F023EF08F0000E22
:10103800016E000E026E000E036E000E046E038E2B
:10104800000E046E30EF08F0000E016E000E026E06
:10105800000E036E000E046E0850800B0E6E0D50CD
:101068000E18D8B43AEF08F03CEF08F03DEF08F05E
:101078000D8C085008240E6E07AE45EF08F047EFB8
:1010880008F048EF08F00E800E50D8B44EEF08F084
:1010980050EF08F065EF08F00E28D8A456EF08F0D6
:1010A80058EF08F060EF08F0000E056E000E066EAF
:1010B800000E076E000E086E078E000E086E6DEFAC
:1010C80008F0000E056E000E066E000E076E000E8C
:1010D800086E0F500E5CD8B074EF08F076EF08F089
:1010E8009DEF08F00DAC7BEF08F07DEF08F07FEF87
:1010F80008F0800E0D1A0FC010F00EC00FF010C0CF
:101108000EF001C010F005C001F010C005F002C0DB
:1011180010F006C002F010C006F003C010F007C0BF
:1011280003F010C007F004C010F008C004F010C0AD
:1011380008F0000E106E0F500EC009F00A6A095E22
:10114800000E0A5A0ABEB2EF08F00A5009E11A0E58
:10115800095CD8A0B2EF08F0B4EF08F0EBEF08F0A4
:101168000150021003100410D8A4BDEF08F0C0EF1E
:1011780008F0010EC1EF08F0000E106E000E016EAF
:10118800000E026E000E036E000E046E0EC00FF00D
:10119800F4EF08F010A0D3EF08F0D5EF08F0DBEF7C
:1011A80008F0D89010300109106EDDEF08F0D890E3
:1011B800103201A0E2EF08F0E4EF08F0E5EF08F0E4
:1011C800108E043404320332023201320F2A0E50D8
:1011D8000F5CD8A0F2EF08F0F4EF08F0CEEF08F0BB
:1011E8000DBCF9EF08F0FBEF08F03BEF09F00F50EA
:1011F800D8A401EF09F003EF09F00DEF09F0000E94
:10120800016E000E026E000E036E000E046E5CEF9F
:101218000AF0055001260650022207500322085002
:10122800042204A01AEF09F01CEF09F0C8EF09F036
:1012380010A021EF09F023EF09F029EF09F0D89069
:1012480010300109106E2BEF09F0D890103201A070
:1012580030EF09F032EF09F033EF09F0108E043463
:1012680004320332023201320F2AC8EF09F0055066
:10127800015C06500258075003580450800A096E52
:101288000850800A0958D8B04CEF09F04EEF09F021
:1012980079EF09F00150055C096E025006580A6E94
:1012A800035007580B6E045008580C6EFF0E0924A3
:1012B800016EFF0E0A20026EFF0E0B20036EFF0E5A
:1012C8000C20046E800E0D1A106C1050D8A46FEF0D
:1012D80009F071EF09F081EF09F0010E0126000E07
:1012E80002220322042281EF09F00550015E065014
:1012F800025A0750035A0850045A015002100310AA
:101308000410D8A48AEF09F08CEF09F0C1EF09F0B6
:101318001050D8A492EF09F094EF09F0C1EF09F04A
:10132800000E016E000E026E000E036E000E046EBB
:101338005CEF0AF0D890013602360336043610AE58
:10134800A8EF09F0AAEF09F0ABEF09F0018010A0AF
:10135800B0EF09F0B2EF09F0B6EF09F0D880103617
:10136800B8EF09F0D89010360F50D8B4BEEF09F096
:10137800C0EF09F0C1EF09F00F0603AEC6EF09F0A0
:10138800C8EF09F09EEF09F0000E0E6E10AECFEF19
:1013980009F0D1EF09F0E9EF09F010C009F07F0E6C
:1013A8000916D8B4DAEF09F0DCEF09F0E0EF09F03C
:1013B800010E0E6EE9EF09F001A0E5EF09F0E7EF85
:1013C80009F0E9EF09F0DCEF09F00E50D8B4EFEFBF
:1013D80009F0F1EF09F01CEF0AF0010E0126000EEA
:1013E80002220322042204A0FCEF09F0FEEF09F018
:1013F8001CEF0AF001C009F002C00AF003C00BF0AC
:1014080004C00CF00C340C320B320A32093209C019
:1014180001F00AC002F00BC003F00CC004F00F2862
:10142800D8B419EF0AF01BEF0AF01CEF0AF00F2AE4
:101438000F28D8B422EF0AF024EF0AF02CEF0AF0B4
:101448000F50D8A42AEF0AF02CEF0AF03EEF0AF06A
:10145800000E016E000E026E000E036E000E046E8A
:101468000F50D8A43AEF0AF03CEF0AF03EEF0AF02A
:10147800000E0D6E0FA043EF0AF045EF0AF048EF9B
:101488000AF0038E49EF0AF0039ED8900F30046EDD
:101498000DAE51EF0AF053EF0AF054EF0AF0048E44
:1014A80001C001F002C002F003C003F004C004F060
:1014B800120076C0D9FF77C0DAFFDECFF6FFDDCFA6
:1014C800F7FF0800F550250AD8A46DEF0AF06FEF72
:1014D8000AF068EF0CF076C0D9FF77C0DAFFDE2A91
:1014E800000EDD22000E0001BB6F000EBA6FBAC0FD
:1014F800CCF0BC69BD6976C0D9FF77C0DAFFDECF12
:10150800F6FFDDCFF7FF0800F5502A0AD8A48FEFC1
:101518000AF091EF0AF0BAEF0AF076C0D9FF77C067
:10152800DAFFDE2A000EDD2278C0D9FF79C0DAFFA3
:10153800DFCF7AF0020EDE26DFCF7BF0000EDD2251
:101548007AC0D9FF7BC0DAFFDECFBAF0DDCFBBF0BF
:10155800BBBFB3EF0AF0B1EF0AF0EDEF0AF0CC81B0
:10156800BA6DBB1FD8B0BB2BEDEF0AF076C0D9FF20
:1015780077C0DAFFDECF0EF0DDCF0FF098EC14F075
:101588000EC0BAF00FC0BBF0D1EF0AF076C0D9FF99
:1015980077C0DAFFDE2A000EDD2276C0D9FF77C0D9
:1015A800DAFFDECFF6FFDDCFF7FF0800F5CF7AF0E0
:1015B800D00E7A247B6E7C6AFF0E7C227C5009E177
:1015C8000A0E7B5CD8A0EBEF0AF0EDEF0AF0CAEF49
:1015D8000AF076C0D9FF77C0DAFFDECFF6FFDDCF9D
:1015E800F7FF0800F5502E0AD8A4FDEF0AF0FFEF28
:1015F8000AF06DEF0BF0000E0001BD6F000EBC6F1E
:1016080076C0D9FF77C0DAFFDE2A000EDD2276C069
:10161800D9FF77C0DAFFDECFF6FFDDCFF7FF08008E
:10162800F5502A0AD8A41BEF0BF01DEF0BF03AEF88
:101638000BF076C0D9FF77C0DAFFDE2A000EDD2274
:1016480078C0D9FF79C0DAFFDFCF7AF0020EDE2644
:10165800DFCF7BF0000EDD227AC0D9FF7BC0DAFF36
:10166800DECFBCF0DDCFBDF06DEF0BF076C0D9FF5B
:1016780077C0DAFFDECF0EF0DDCF0FF098EC14F074
:101688000EC0BCF00FC0BDF051EF0BF076C0D9FF13
:1016980077C0DAFFDE2A000EDD2276C0D9FF77C0D8
:1016A800DAFFDECFF6FFDDCFF7FF0800F5CF7AF0DF
:1016B800D00E7A247B6E7C6AFF0E7C227C5009E176
:1016C8000A0E7B5CD8A06BEF0BF06DEF0BF04AEFC6
:1016D8000BF076C0D9FF77C0DAFFDECF89F0DDCF17
:1016E8008AF089C0F6FF8AC0F7FF0800F5CF88F0B6
:1016F8008AEF0BF0894B8A2BA4EF0BF06C0E886FE6
:10170800A4EF0BF0000E886FA4EF0BF000018851D6
:101718007A6E7B6A7B50000AD8B495EF0BF086EF9F
:101728000BF07A504C0AD8B47EEF0BF02A0AD8B4E2
:1017380082EF0BF00A0AD8B47EEF0BF086EF0BF0BD
:1017480089C0F6FF8AC0F7FF0800F550660AD8A4DA
:10175800B0EF0BF0B2EF0BF03AEF0CF0E8EF0BF054
:1017680078C0D9FF79C0DAFFDFCF7AF0040EDE2621
:10177800DFCF7BF0000EDD227AC0D9FF7BC0DAFF15
:10178800DECF80F0DECF81F0DECF82F0DECF83F0D7
:10179800FDEF0BF078C0D9FF79C0DAFFDFCF7AF020
:1017A800040EDE26DFCF7BF0000EDD227AC0D9FFE3
:1017B8007BC0DAFFDECF80F0DECF81F0DECF82F0B3
:1017C800DECF83F0FDEF0BF088517A6E7B6A7B5099
:1017D800000AD8B4F2EF0BF0FDEF0BF07A504C0A88
:1017E800D8B4CEEF0BF0200AD8B4B4EF0BF0FDEF6D
:1017F8000BF0010E89257A6E000E8A217B6E76C069
:10180800D9FF77C0DAFF7AC0DEFF7BC0DDFF24EFA7
:101818000CF074C03FF075C040F080C041F081C04A
:1018280042F082C043F083C044F089C0F6FF8AC00A
:10183800F7FF0800F5CF45F014EC03F07CEF0CF04F
:1018480089C0F6FF8AC0F7FF0800F5507A6E7B6AF8
:101858007B50000AD8B433EF0CF03AEF0CF07A5012
:10186800660AD8B40DEF0CF03AEF0CF076C0D9FF49
:1018780077C0DAFFDECFF6FFDDCFF7FF0800F550BF
:10188800250AD8A44AEF0CF04CEF0CF05FEF0CF0EF
:1018980076C0D9FF77C0DAFFDE2A000EDD22000EFF
:1018A800026E250E016E74C003F075C004F042ECA0
:1018B80019F07CEF0CF076C0D9FF77C0DAFFDE2A8A
:1018C800000EDD227CEF0CF076C0D9FF77C0DAFF7E
:1018D800DECFF6FFDDCFF7FF0800F550016E026A94
:1018E80074C003F075C004F042EC19F05FEF0CF01F
:1018F80012001D50800B266E1D501D242C6E1CAE30
:1019080088EF0CF08AEF0CF08BEF0CF02C802C5049
:10191800D8B491EF0CF093EF0CF0A6EF0CF02C2854
:10192800D8A499EF0CF09BEF0CF0A3EF0CF0000E8D
:101938001A6E000E1B6E000E1C6E000E1D6E1C8EA5
:10194800AEEF0CF0000E1A6E000E1B6E000E1C6E31
:10195800000E1D6E2150800B261A215021242B6E5B
:1019680020AEB9EF0CF0BBEF0CF0BCEF0CF02B8005
:101978002B50D8B4C2EF0CF0C4EF0CF0D7EF0CF03A
:101988002B28D8A4CAEF0CF0CCEF0CF0D4EF0CF055
:10199800000E1E6E000E1F6E000E206E000E216ED1
:1019A800208EDFEF0CF0000E1E6E000E1F6E000E74
:1019B800206E000E216E2B50D8B4E5EF0CF0E7EF47
:1019C8000CF0EFEF0CF02C50D8A4EDEF0CF0EFEF8B
:1019D8000CF0F9EF0CF0000E1A6E000E1B6E000EE4
:1019E8001C6E000E1D6E91EF0EF020501A02F3CF00
:1019F80031F0F4CF32F03150276E286A296A2A6A0A
:101A080032502D6E2E6A2F6A306A1F501B02F3CF98
:101A180031F0F4CF32F031502726000E2822292247
:101A28002A2232502D26000E2E222F2230221E501E
:101A38001C02F3CF31F0F4CF32F031502726000EDC
:101A4800282229222A2232502D26000E2E222F2229
:101A5800302229C02AF028C029F027C028F0276A98
:101A68001E501B02F3CF31F0F4CF32F0315027264D
:101A780032502822000E2922000E2A221F501A0254
:101A8800F3CF31F0F4CF32F03150272632502822EC
:101A9800000E2922000E2A2229C02AF028C029F087
:101AA80027C028F0276A1E501A02F3CF31F0F4CF6E
:101AB80032F03150272632502822000E2922000EFB
:101AC8002A2220501B02F3CF31F0F4CF32F03150EC
:101AD8002D2632502E22000E2F22000E30221F50AB
:101AE8001C02F3CF31F0F4CF32F031502D263250B2
:101AF8002E22000E2F22000E302220501C02F3CF7F
:101B080031F0F4CF32F03150226E3250236E246A15
:101B1800256A24C025F023C024F022C023F0226ABD
:101B280022502D2623502E2224502F222550302299
:101B380027C022F028C023F029C024F02AC025F0AD
:101B4800190EACEF0DF0D890253224322332223210
:101B5800E82EA7EF0DF022502D2623502E222450D8
:101B68002F222550302229C02AF028C029F027C06A
:101B780028F0276A2B502CC022F0236A2226000E58
:101B88002322820E2224316EFF0E2320326EE2EFD2
:101B98000DF0D8902D362E362F3630362AAED7EFA8
:101BA8000DF0D9EF0DF0DAEF0DF02D80D890273633
:101BB800283629362A363106D8A032062FAEE7EF66
:101BC8000DF0E9EF0DF0CDEF0DF0000E2B6E2AAE03
:101BD800F0EF0DF0F2EF0DF016EF0EF0FF0E2714F8
:101BE800226EFF0E2814236EFF0E2914246E7F0E1A
:101BF8002A14256E2250231024102510D8B407EF7C
:101C08000EF009EF0EF00DEF0EF0010E2B6E16EF31
:101C18000EF02DA012EF0EF014EF0EF016EF0EF0EE
:101C280009EF0EF02B50D8B41CEF0EF01EEF0EF09B
:101C380042EF0EF0010E2D26000E2E222F2230220A
:101C480030A029EF0EF02BEF0EF042EF0EF02DC072
:101C580022F02EC023F02FC024F030C025F0253408
:101C6800253224322332223222C02DF023C02EF016
:101C780024C02FF025C030F0314A322A32BE4DEF51
:101C88000EF0325008E13128D8A04DEF0EF04FEF9A
:101C98000EF059EF0EF0000E2D6E000E2E6E800E17
:101CA8002F6E7F0E306E87EF0EF032BE66EF0EF0AD
:101CB800325006E13104D8B064EF0EF066EF0EF052
:101CC80072EF0EF0000E2D6E000E2E6E000E2F6EAF
:101CD800000E306E000E266E87EF0EF031C02CF02D
:101CE800FF0E2D16FF0E2E167F0E2F16000E301625
:101CF8002CA081EF0EF083EF0EF084EF0EF02F8E04
:101D0800D8902C30306E265030122DC01AF02EC0CC
:101D18001BF02FC01CF030C01DF012000450800BC7
:101D2800116E04500424186E03AE9DEF0EF09FEF61
:101D38000EF0A0EF0EF018801850D8B4A6EF0EF0F1
:101D4800A8EF0EF0BDEF0EF01828D8A4AEEF0EF0F5
:101D5800B0EF0EF0B8EF0EF0000E016E000E026E3E
:101D6800000E036E000E046E038E000E046EC5EFA7
:101D78000EF0000E016E000E026E000E036E000ED5
:101D8800046E0850800B111A08500824196E07AE0B
:101D9800D0EF0EF0D2EF0EF0D3EF0EF019801950FD
:101DA800D8B4D9EF0EF0DBEF0EF0F0EF0EF01928F3
:101DB800D8A4E1EF0EF0E3EF0EF0EBEF0EF0000E1B
:101DC800056E000E066E000E076E000E086E078E7A
:101DD800000E086EF8EF0EF0000E056E000E066E8F
:101DE800000E076E000E086E05500610071008104A
:101DF800D8A401EF0FF003EF0FF01BEF0FF0000E68
:101E0800016E000E026E000E036E000E046E800E50
:101E180003127F0E04121150041201C001F002C017
:101E280002F003C003F004C004F05EEF10F0185095
:101E3800D8A421EF0FF023EF0FF02DEF0FF0000ED5
:101E4800016E000E026E000E036E000E046E5EEF51
:101E580010F0195018C009F00A6A095E000E0A5AF3
:101E68007F0E0924126E000E0A20136E01C00DF0B9
:101E780002C00EF003C00FF004C010F0000E016E97
:101E8800000E026E000E036E000E046E000E146E3D
:101E9800000E156E000E166E000E176E000E196EEF
:101EA8008EEF0FF01950D8B45CEF0FF05EEF0FF023
:101EB80075EF0FF0D8900D360E360F361036D890D5
:101EC800013602360336043617AE6DEF0FF06FEFAA
:101ED8000FF070EF0FF00180D890143615361636D3
:101EE800173605500D5C06500E5807500F5808500D
:101EF8001058D8A082EF0FF084EF0FF08DEF0FF09D
:101F0800178C05500D5E06500E5A07500F5A085090
:101F1800105A192A190E196494EF0FF096EF0FF062
:101F280056EF0FF00D500E100F101010D8B49FEF91
:101F38000FF0A1EF0FF0B9EF0FF01480B9EF0FF029
:101F4800D890013602360336043617AEAEEF0FF0DE
:101F5800B0EF0FF0B1EF0FF00180D89014361536BE
:101F6800163617361206D8A0130603AEBEEF0FF0CA
:101F7800C0EF0FF0A4EF0FF0000E196E17AEC7EF09
:101F88000FF0C9EF0FF0EDEF0FF0FF0E1414096E0C
:101F9800FF0E15140A6EFF0E16140B6E7F0E171423
:101FA8000C6E09500A100B100C10D8B4DEEF0FF0AD
:101FB800E0EF0FF0E4EF0FF0010E196EEDEF0FF008
:101FC80001A0E9EF0FF0EBEF0FF0EDEF0FF0E0EF0E
:101FD8000FF01950D8B4F3EF0FF0F5EF0FF019EF39
:101FE80010F0010E0126000E02220322042204A092
:101FF80000EF10F002EF10F019EF10F001C009F037
:1020080002C00AF003C00BF004C00CF00C340C3210
:102018000B320A32093209C001F00AC002F00BC0C3
:1020280003F00CC004F0124A132A13BE24EF10F078
:10203800135008E11228D8A024EF10F026EF10F072
:1020480031EF10F0000E136E1268000E016E000ED4
:10205800026E000E036E000E046E13BE3EEF10F00B
:10206800135006E11204D8B03CEF10F03EEF10F028
:102078004CEF10F0000E136E000E126E000E016E83
:10208800000E026E000E036E000E046E000E116E3E
:1020980012C018F018A053EF10F055EF10F058EFD9
:1020A80010F0038E59EF10F0039ED8901830046E8C
:1020B8000FEF0FF0120028C12AF029C12BF02AC116
:1020C8002CF02BC12DF01AC02AF01BC02BF01CC01D
:1020D8002CF01DC02DF0810E1E6EFF0E1F6E2AC043
:1020E80020F02BC021F02CC022F02DC023F0180EB8
:1020F80083EF10F0D8902332223221322032E82E9A
:102108007EEF10F020501E24286E000E1F20296E2E
:1021180029BE98EF10F0295009E1170E285CD8A0C5
:1021280098EF10F09AEF10F0A4EF10F01AC01AF020
:102138001BC01BF01CC01CF01DC01DF067EF11F088
:1021480029BEA9EF10F0ABEF10F01BEF11F028C07B
:102158001EF0FF0E1F6EFF0E206E7F0E216E000E0A
:10216800226E1E66BAEF10F0C2EF10F0223422324F
:10217800213220321F321E2EB5EF10F01FC024F07E
:1021880020C025F021C026F022C027F024502A14B0
:102198001E6E25502B141F6E26502C14206E2750AF
:1021A8002D14216E1E501F1020102110D8A4DFEF0F
:1021B80010F0E1EF10F0E3EF10F09AEF10F02AC002
:1021C8001EF02BC01FF02CC020F02DC021F0200ED7
:1021D800F3EF10F0D890213220321F321E32E82E51
:1021E800EEEF10F01E501F1020102110D8B4FFEF92
:1021F80010F001EF11F009EF11F024502A262550B4
:102208002B2226502C2227502D22241C1E6E251CE2
:102218001F6E261C206E271C216E1E502A161F506A
:102228002B1620502C1621502D165FEF11F02AC0C6
:102238001EF02BC01FF02CC020F02DC021F0200E66
:102248002BEF11F0D890213220321F321E32E82EA7
:1022580026EF11F01E501F1020102110D8A437EFC0
:1022680011F039EF11F043EF11F0000E2A6E000E55
:102278002B6E000E2C6E000E2D6E5FEF11F0D890B5
:102288002A341E6E2B341F6E2C34206E2D34216E92
:102298001E501F1020102110D8B455EF11F057EF21
:1022A80011F05FEF11F0000E2A6E000E2B6E800EFB
:1022B8002C6EBF0E2D6E2AC01AF02BC01BF02CC03E
:1022C8001CF02DC01DF01200096E0950D8B46FEF34
:1022D80011F071EF11F093EF11F004BE78EF11F0E7
:1022E80076EF11F093EF11F001C005F002C006F08F
:1022F80003C007F004C008F0051E061E071E081ECE
:10230800052A000E06220722082205C00BF006C087
:102318000CF007C00DF008C00EF09BEF11F001C0E3
:102328000BF002C00CF003C00DF004C00EF0015019
:10233800021003100410D8A4A4EF11F0A6EF11F0B6
:10234800B0EF11F0000E016E000E026E000E036E6B
:10235800000E046E41EF12F0960E0A6EBAEF11F0FD
:102368000A2AD8900E320D320C320B32000E0B14A2
:10237800056E000E0C14066E000E0D14076EFE0E90
:102388000E14086E0550061007100810D8A4CFEFD9
:1023980011F0D1EF11F0B4EF11F0DFEF11F00A2ACC
:1023A800010E0B26000E0C220D220E22D8900E32A2
:1023B8000D320C320B32000E0B14056E000E0C148D
:1023C800066E000E0D14076EFF0E0E14086E0550F3
:1023D800061007100810D8A4F4EF11F0F6EF11F06A
:1023E800D3EF11F0FEEF11F00A06D8900B360C3639
:1023F8000D360E360DBE03EF12F005EF12F00DEF9D
:1024080012F0020E0A600BEF12F00DEF12F0F8EF67
:1024180011F00AB012EF12F014EF12F015EF12F0EB
:102428000D9ED8900A320AC005F0066A076A086A43
:1024380005C008F0076A066A056A05500B120650BF
:102448000C1207500D1208500E120950D8B42FEF75
:1024580012F031EF12F039EF12F004BE38EF12F03B
:1024680036EF12F039EF12F00E8E0BC001F00CC0EF
:1024780002F00DC003F00EC004F012000B6E73EFF3
:1024880012F0030E52EC1DF00009D8A44EEF12F022
:1024980050EF12F055EF12F0010E0001DA6FB6EFAF
:1024A80012F0000E0001DA6FB6EF12F0030ED7EC4F
:1024B80013F00009D8B463EF12F065EF12F0B6EF2D
:1024C80012F00001DA51D8B46CEF12F06FEF12F08D
:1024D800010E70EF12F0000EDA6FB6EF12F00B502B
:1024E800096E0A6A0A50000AD8B47DEF12F0B6EFF6
:1024F80012F00950000AD8B445EF12F0010AD8B416
:102508005AEF12F0B6EF12F0040E52EC1DF000096B
:10251800D8A491EF12F093EF12F098EF12F0010E99
:102528000001D96FF9EF12F0000E0001D96FF9EF31
:1025380012F0040ED7EC13F00009D8B4A6EF12F08D
:10254800A8EF12F0F9EF12F00001D951D8B4AFEFAB
:1025580012F0B2EF12F0010EB3EF12F0000ED96FC5
:10256800F9EF12F00750096E0A6A0A50000AD8B447
:10257800C0EF12F0F9EF12F00950000AD8B488EF52
:1025880012F0010AD8B49DEF12F0F9EF12F0050E1F
:1025980052EC1DF00009D8A4D4EF12F0D6EF12F0D7
:1025A800DBEF12F0010E0001D86F0EEF13F0000EF2
:1025B8000001D86F0EEF13F0050ED7EC13F00009E9
:1025C800D8B4E9EF12F0EBEF12F00EEF13F00001C0
:1025D800D851D8B4F2EF12F0F5EF12F0010EF6EF81
:1025E80012F0000ED86F0EEF13F00850096E0A6A49
:1025F8000A50000AD8B403EF13F00EEF13F0095095
:10260800000AD8B4CBEF12F0010AD8B4E0EF12F008
:102618000EEF13F01200100E0101C76FF80E936E43
:102628000F0E956E070E8A12010E8A1A000EC26FDF
:10263800000EC16F00F00101C14BC22BC2BF2EEFCB
:1026480013F0C25109E10A0EC15DD8A02EEF13F0B4
:1026580030EF13F01EEF13F083CFC8F1C8B137EF96
:1026680013F039EF13F03BEF13F00A0EC76FC8B33E
:1026780040EF13F042EF13F044EF13F0070EC76F6B
:10268800C8B549EF13F04BEF13F04DEF13F0040EFC
:10269800C76FC8B752EF13F054EF13F056EF13F0AB
:1026A800010EC76F030E8A1A000EC46F000EC36FA7
:1026B80000F00101C34BC42BC4BF6CEF13F0C4512D
:1026C80009E10A0EC35DD8A06CEF13F06EEF13F0AA
:1026D8005CEF13F083CFC8F1C8B175EF13F077EF53
:1026E80013F079EF13F0000EC76FC8B37EEF13F045
:1026F80080EF13F082EF13F0080EC76FC8B587EFAD
:1027080013F089EF13F08BEF13F0050EC76FC8B7FE
:1027180090EF13F092EF13F094EF13F0020EC76FDF
:10272800060E8A1A000EC66F000EC56F00F0010172
:10273800C54BC62BC6BFAAEF13F0C65109E10A0E56
:10274800C55DD8A0AAEF13F0ACEF13F09AEF13F021
:1027580083CFC8F1C8B1B3EF13F0B5EF13F0B7EFFB
:1027680013F00B0EC76FC8B3BCEF13F0BEEF13F036
:10277800C0EF13F0090EC76FC8B5C5EF13F0C7EF68
:1027880013F0C9EF13F0060EC76FC8B7CEEF13F0FA
:10279800D0EF13F0D2EF13F0030EC76F9368000E5B
:1027A800956EC7511200046E000E056E81CF03F0BE
:1027B8007DEF14F004C001F0010E026E012AE7EF6C
:1027C80013F0D8900236012EE5EF13F002500314EF
:1027D8000009D8B4F2EF13F0F4EF13F0F8EF13F0A8
:1027E800000E066EFAEF13F0010E066E0001F151AD
:1027F800065CD8B002EF14F004EF14F00FEF14F0F9
:102808000550D8B40AEF14F00DEF14F0010E0EEFD6
:1028180014F0000E056E06C0F1F096EF14F004C037
:1028280001F0010E026E012A1CEF14F0D890023656
:10283800012E1AEF14F0025003140009D8B427EF40
:1028480014F029EF14F02DEF14F0000E066E2FEFA0
:1028580014F0010E066E0001CE51065CD8B037EFB9
:1028680014F039EF14F044EF14F00550D8B43FEFEA
:1028780014F042EF14F0010E43EF14F0000E056E51
:1028880006C0CEF096EF14F004C001F0010E026EFF
:10289800012A51EF14F0D8900236012E4FEF14F0B0
:1028A800025003140009D8B45CEF14F05EEF14F082
:1028B80062EF14F0000E066E64EF14F0010E066E5F
:1028C8000001CD51065CD8B06CEF14F06EEF14F037
:1028D80079EF14F00550D8B474EF14F077EF14F0D2
:1028E800010E78EF14F0000E056E06C0CDF096EFDD
:1028F80014F00450016E026A0250000AD8B487EF3F
:1029080014F096EF14F00150030AD8B4DEEF13F078
:10291800070AD8B413EF14F0010AD8B448EF14F03A
:1029280096EF14F005501200000E166E000E156E8C
:10293800000E146E000E136EA4EF14F00E4A0F2A48
:102948000EC0F6FF0FC0F7FF0800F550200AD8B4F4
:10295800B0EF14F0B2EF14F0A2EF14F00EC0F6FFCF
:102968000FC0F7FF0800F5CF10F0F70E1024116E16
:10297800126AFF0E1222125009E1050E115CD8A04E
:10298800C8EF14F0CAEF14F0A2EF14F0D4EF14F06B
:10299800000E146E010E136E0E4A0F2A09EF15F081
:1029A8000EC0F6FF0FC0F7FF0800F550106E116A51
:1029B8001150000AD8B4E3EF14F009EF15F01050E5
:1029C8002B0AD8B4D0EF14F0060AD8B4CCEF14F020
:1029D80009EF15F015C008F016C009F0000E0B6ECF
:1029E8000A0E0A6E0FEC1FF00EC0F6FF0FC0F7FFBD
:1029F8000800F550085E000E095A300E0824156EBE
:102A0800000E0920166ED0EF14F00EC0F6FF0FC0AE
:102A1800F7FF0800F5CF10F0D00E1024116E126ADF
:102A2800FF0E1222125009E10A0E115CD8A01FEF06
:102A380015F021EF15F0EEEF14F013501410D8A490
:102A480028EF15F02AEF15F038EF15F015C010F043
:102A580016C011F0101E111E104A112A10C00EF0D7
:102A680011C00FF03CEF15F015C00EF016C00FF0B6
:102A78001200030E046E0368C8C001F0C9C002F05A
:102A8800A6EC1BF001C008F002C009F0000E0B6EA6
:102A9800640E0A6E0FEC1FF008C036F109C037F15A
:102AA8000001DA51D8B45BEF15F05DEF15F07AEF5D
:102AB80015F0000EC96F000EC86FC8C001F0C9C07C
:102AC80002F094EC1EF0C8C001F0C9C002F0036A1D
:102AD800046A000E68EC11F001C0A6F002C0A7F06D
:102AE80003C0A8F004C0A9F0A4EC1AF00001D95161
:102AF800D8B481EF15F083EF15F0A3EF15F0010EB0
:102B080024EC1EF001C0C8F002C0C9F0C8C001F032
:102B1800C9C002F094EC1EF0C8C001F0C9C002F0B0
:102B2800036A046A000E68EC11F001C0A6F002C046
:102B3800A7F003C0A8F004C0A9F0A4EC1AF00001A3
:102B4800D851D8B4AAEF15F0ACEF15F0DDEF15F0B9
:102B5800040ECB5DD8B0B3EF15F0B5EF15F0DDEF8F
:102B680015F0CAC0C8F0CBC0C9F0C8C001F0C9C0D0
:102B780002F094EC1EF0C8C001F0C9C002F0036A6C
:102B8800046A000E68EC11F001C0A6F002C0A7F0BC
:102B980003C0A8F004C0A9F0A4EC1AF0000E0001CC
:102BA800E86F000EE76F000E0101B06F000E000124
:102BB800D36F1200033404340A6E0A50D8A4E7EF26
:102BC80015F0E9EF15F0F3EF15F0000E016E000EA9
:102BD800026E000E036E000E046E60EF16F001C068
:102BE80005F002C006F003C007F004C008F0200E8C
:102BF80003EF16F0D8900832073206320532E82E75
:102C0800FEEF15F00550096E038EFF0E0116FF0E3C
:102C18000216FF0E0316000E0416960E0A5E0ABE72
:102C28001AEF16F018EF16F030EF16F00A50800A77
:102C3800970FD8B022EF16F024EF16F026EF16F013
:102C4800E9EF15F0D89004320332023201320A3E1D
:102C580026EF16F048EF16F01F0E0A6436EF16F04E
:102C680038EF16F040EF16F0E9EF15F0D89001367E
:102C78000236033604360A060A50D8A446EF16F080
:102C880048EF16F03AEF16F00950D8B44EEF16F0A8
:102C980050EF16F058EF16F0041E031E021E016CCA
:102CA800000E02220322042201C001F002C002F039
:102CB80003C003F004C004F01200000E33143B6E8E
:102CC800000E34143C6E800E35143D6E7F0E3614A3
:102CD8003E6E3B503C103D103E10D8A476EF16F0E7
:102CE80078EF16F080EF16F0000E336E000E346E9B
:102CF800000E356E000E366E000E37143B6E000E59
:102D080038143C6E800E39143D6E7F0E3A143E6EB8
:102D18003B503C103D103E10D8A495EF16F097EFAD
:102D280016F09FEF16F0000E376E000E386E000E8C
:102D3800396E000E3A6E36AEA4EF16F0A6EF16F016
:102D4800AFEF16F0336C341ED8B0342A351ED8B025
:102D5800352A800E36563AAEB4EF16F0B6EF16F0B6
:102D6800BFEF16F0376C381ED8B0382A391ED8B0E5
:102D7800392A800E3A56000E331A000E341A000E05
:102D8800351A800E361A000E371A000E381A000E41
:102D9800391A800E3A1A3750335C38503458395043
:102DA80035583A503658D8B0DCEF16F0DEEF16F04A
:102DB800E1EF16F0D890E2EF16F0D88012000FEC91
:102DC80013F00001CF6F010E0101C16F100E000159
:102DD800CF19D8B4F2EF16F0F4EF16F061EF17F050
:102DE800100EF219D8A4FBEF16F0FDEF16F061EF04
:102DF80017F0B00ED325D96EDA6A010EDA22CF5158
:102E0800300FDF6EB10ED325D96EDA6A010EDA22E1
:102E1800000EDF6E110ED36114EF17F016EF17F0E6
:102E280017EF17F0D32BE7C0C1F1E8C0C2F1000ECD
:102E38000101C46F0A0EC36FD5EC1EF00001CF511B
:102E48000101C1250001E76F000E0101C221000147
:102E5800E86F0B0ECF19D8B434EF17F036EF17F030
:102E68003FEF17F00A0ECF19D8A43DEF17F03FEF48
:102E780017F049EF17F0000EE86F000EE76F000E2D
:102E88000101B06F000E0001D36F800EFCEC1EF044
:102E9800010E0101C36F060EC46FF0EC1AF0800E2C
:102EA800FCEC1EF0B00E0101C36F010EC46FF0EC14
:102EB8001AF0E7C0CAF0E8C0CBF0CFC0F2F01200B9
:102EC8000600E9CFAEF0EACFAFF0E1CFB0F0E2CF45
:102ED800B1F0D9CFB2F0DACFB3F0F3CFB4F0F4CF8A
:102EE800B5F0F6CFB6F0F7CFB7F0F8CFB8F0F5CF2A
:102EF800B9F0F2A482EF17F084EF17F089EF17F01A
:102F0800060ED62664EC18F0F294F2A28EEF17F0B3
:102F180090EF17F09AEF17F0F2A895EF17F097EFE8
:102F280017F09AEF17F06DEC1FF0F292F0A09FEFF8
:102F380017F0A1EF17F0ABEF17F0F0A6A6EF17F018
:102F4800A8EF17F0ABEF17F060EC1FF0F090F0A2CD
:102F5800B0EF17F0B2EF17F0BCEF17F0F0A8B7EF2B
:102F680017F0B9EF17F0BCEF17F053EC1FF0F09221
:102F78009EACC1EF17F0C3EF17F0CBEF17F09DAC85
:102F8800C8EF17F0CAEF17F0CBEF17F09E9CB9C047
:102F9800F5FFB8C0F8FFB7C0F7FFB6C0F6FFB5C079
:102FA800F4FFB4C0F3FFB3C0DAFFB2C0D9FFB1C0B9
:102FB800E2FFB0C0E1FFAFC0EAFFAEC0E9FF7F9219
:102FC80011002CC10BF02DC10CF02EC10DF02FC13A
:102FD8000EF001C00BF002C00CF003C00DF004C0ED
:102FE8000EF00BC005F00CC006F00DC007F00EC0C7
:102FF80008F0180E05EF18F0D8900832073206329C
:103008000532E82E00EF18F00550096E0A6A0950DB
:103018000A10D8A412EF18F014EF18F034EF18F0D3
:10302800D8900B34056E0C34066E0D34076E0E34D2
:10303800086E0550061007100810D8A426EF18F0DF
:1030480028EF18F02EEF18F0000E026E020E016E37
:1030580063EF18F0000E026E030E016E63EF18F0B6
:1030680009280A10D8A43BEF18F03DEF18F05FEFDD
:1030780018F00BC005F00CC006F00DC007F00EC02C
:1030880008F0090ED8900536063607360836E82EB9
:1030980046EF18F00550061007100810D8B457EF7F
:1030A80018F05AEF18F0010E5BEF18F0000E016EE1
:1030B800026A63EF18F0000E026E040E016E120031
:1030C80096908DA06AEF18F06DEF18F08D806EEF76
:1030D80018F08D900101D5510001ED5D0101D65127
:1030E8000001EE59D8B07BEF18F07DEF18F081EFB2
:1030F80018F0ED4BEE2B88EF18F0CCEC1FF0000E1B
:103108000001EE6F010EED6F0101D3510001EB5D7F
:103118000101D4510001EC59D8B095EF18F097EFA0
:1031280018F09BEF18F0EB4BEC2BA2EF18F086ECA5
:103138001FF0000E0001EC6F010EEB6F0101D15181
:103148000001E95D0101D2510001EA59D8B0AFEFA1
:1031580018F0B1EF18F0B5EF18F0E94BEA2BBCEF17
:1031680018F03DEC15F0000E0001EA6F010EE96F52
:103178000101CF510001C45D0101D0510001C559C1
:10318800D8B0C9EF18F0CBEF18F0CFEF18F0C44B58
:10319800C52BD6EF18F0D1EC1FF0000E0001C56F5B
:1031A800010EC46F12000001D751D8A4DEEF18F049
:1031B800E0EF18F03DEF19F020EF19F089888996B3
:1031C800880E0101D925D96EDA6A010EDA22DF509C
:1031D8008C6E010E0001D66F41EF19F08998898A2B
:1031E800880EF325D96EDA6A010EDA22DF508C6E6A
:1031F800020ED66F41EF19F0899A8984880E010171
:10320800D725D96EDA6A010EDA22DF508C6E030EEA
:103218000001D66F41EF19F089948986880E010163
:10322800D825D96EDA6A010EDA22DF508C6E000ECC
:103238000001D66F41EF19F0D651016E026A0250B3
:10324800000AD8B42AEF19F041EF19F00150000A2A
:10325800D8B4E2EF18F0010AD8B4F2EF18F0030A74
:10326800D8B400EF19F0010AD8B410EF19F041EF03
:1032780019F08998899A8994899612000350041044
:10328800D8B449EF19F04BEF19F054EF19F0035087
:103298000410D8A452EF19F054EF19F059EF19F0AF
:1032A8000150D2EC1FF0A6EF19F020EE09F0035000
:1032B800D9260450DA22DE50DE10D8B466EF19F0B1
:1032C80068EF19F083EF19F020EE09F00350D926C2
:1032D8000450DA2210EE03F00350E1260450E222F3
:1032E800DE50E65CE650800A096EDE50800A095816
:1032F800D8B081EF19F083EF19F0A6EF19F020EE9E
:1033080003F00350D9260450DA22DECF05F0DDCFD2
:1033180006F003C0D9FF04C0DAFFDECF07F0DDCF27
:1033280008F005500724D96E06500820DA6E01C04F
:10333800DFFF20EE03F00350D9260450DA22DE2AFC
:10334800000EDD2212000001CCA1ADEF19F0AFEFA5
:1033580019F0B9EF19F013C00AF014C00BF011C03E
:103368000CF012C00DF0E2EC1DF016BEBEEF19F025
:10337800C0EF19F0C6EF19F015C01AF016C01BF00F
:10338800CAEF19F0000E1B6E000E1A6E000E196EB1
:10339800000E186EDCEF19F0000E026E200E016EA2
:1033A80011C003F012C004F042EC19F0184A192AAF
:1033B8001A50185C1950800A176E1B50800A17584B
:1033C800D8A0E9EF19F0EBEF19F0D0EF19F00001F0
:1033D800CCB1F1EF19F0F3EF19F0FDEF19F013C0CC
:1033E8000AF014C00BF011C00CF012C00DF0E2ECA2
:1033F8001DF01200000E0114096E000E02140A6E70
:10340800800E03140B6E7F0E04140C6E09500A1004
:103418000B100C10D8A413EF1AF015EF1AF01DEFCB
:103428001AF0000E016E000E026E000E036E000E02
:10343800046E000E0514096E000E06140A6E800E46
:1034480007140B6E7F0E08140C6E09500A100B102F
:103458000C10D8A432EF1AF034EF1AF03CEF1AF03F
:10346800000E056E000E066E000E076E000E086E4A
:10347800055001180FE1065002180CE10750031817
:1034880009E108500418D8B44CEF1AF04EEF1AF0BE
:1034980051EF1AF0D89052EF1AF0D8801200CDC12F
:1034A800C6F0CEC1C7F0C6C0C6F1C7C0C7F1030E8B
:1034B8000101C96FE80EC86F6BEC1BF00101C65122
:1034C800D76F030EC46FE80EC36FC6C0C1F1C7C083
:1034D800C2F147EC1CF0C1C1C6F1C2C1C7F1000E70
:1034E8000101C96F640EC86F6BEC1BF00101C65176
:1034F800D86F000EC46F640EC36FC6C0C1F1C7C0D9
:10350800C2F147EC1CF0C1C1C6F1C2C1C7F1000E3F
:103518000101C96F0A0EC86F6BEC1BF00101C6519F
:10352800D96FC6C0C1F1C7C0C2F1000EC46F0A0E80
:10353800C36F47EC1CF00101C1510001F36F120089
:10354800000E056EC00E066E7F0E076E440E086EE6
:10355800A6C001F0A7C002F0A8C003F0A9C004F0FB
:1035680092EC0EF001C01AF002C01BF003C01CF070
:1035780004C01DF0000E1E6E000E1F6EC80E206ED9
:10358800420E216E7DEC0CF01AC0AAF01BC0ABF005
:103598001CC0ACF01DC0ADF09F0E0001916F010E74
:1035A800926F110E936F060E946FAAC095F0ABC080
:1035B80096F0ACC097F0ADC098F0D9EC1CF0010EB5
:1035C80033EC1FF0C00E33EC1FF09F0E036E010E9C
:1035D800046E2FEC1BF01200000E0101C76F10EFF4
:1035E8001BF00101C751C325C56F000EC421C66F6A
:1035F800C5C1F6FFC6C1F7FFF86A050EF76403D028
:103608000800F55005D0F6CFE9FFF7CFEAFFEF50F5
:10361800E9EC1EF00101C72BC751C325C56F000E89
:10362800C421C66FC5C1F6FFC6C1F7FFF86A050E0B
:10363800F76403D00800F55005D0F6CFE9FFF7CFBF
:10364800EAFFEF500009D8A42CEF1BF02EEF1BF077
:10365800F5EF1AF01200000E076E4CEF1BF0075042
:103668000324056E000E0420066E05C0F6FF06C092
:10367800F7FFF86A050EF76403D00800F55005D087
:10368800F6CFE9FFF7CFEAFFEF5022EC1FF0072A49
:1036980007500324056E000E0420066E05C0F6FFD1
:1036A80006C0F7FFF86A050EF76403D00800F55066
:1036B80005D0F6CFE9FFF7CFEAFFEF500009D8A40D
:1036C80068EF1BF06AEF1BF033EF1BF01200000EDF
:1036D8000101CC6F000ECB6FC851C911D8B477EF78
:1036E8001BF079EF1BF0A1EF1BF0010ECA6F81EF01
:1036F8001BF0D890C837C937CA2BC9AF86EF1BF063
:1037080088EF1BF07DEF1BF0D890CB37CC37C85132
:10371800C65DC951C759D8A094EF1BF096EF1BF0AE
:103728009BEF1BF0C851C65FC951C75BCB81D890CE
:10373800C933C833CA2F88EF1BF0CBC1C6F1CCC13F
:10374800C7F11200000E066E000E056E035004103D
:10375800D8B4B1EF1BF0B3EF1BF0DBEF1BF0010E99
:10376800076EBBEF1BF0D89003360436072A04AE69
:10377800C0EF1BF0C2EF1BF0B7EF1BF0D890053677
:1037880006360350015C04500258D8A0CEEF1BF057
:10379800D0EF1BF0D5EF1BF00350015E0450025A26
:1037A8000580D89004320332072EC2EF1BF005C003
:1037B80001F006C002F01200849284941A0E0101EE
:1037C800C36FF80EE82EFED7C32FFCD700F0848213
:1037D800380EFCEC1EF0070E0101C36F7D0EE82EBB
:1037E800FED7C32FFCD7380EFCEC1EF0C80E00D055
:1037F800E82EFDD7380EFCEC1EF0080EFCEC1EF08F
:103808000F0EFCEC1EF0010EFCEC1EF0380EFCEC6A
:103818001EF0800EFCEC1EF00C0EFCEC1EF01200EC
:10382800880EF66E3C0EF76E000EF86E01EE88F00C
:1038380010EE39F00900F5CFEEFFE550E150FAE15E
:103848005A0EF66E3F0EF76E000EF86E00EEE9F0B7
:1038580010EE0AF00900F5CFEEFFE550E150FAE16D
:1038680001EE00F0880EEE6AE806FDE100EEBAF01F
:103878002F0EEE6AE806FDE17F907F92000EF86E4B
:10388800000191EF1FF00101C351C411D8B44FEFEB
:103898001CF051EF1CF075EF1CF0010EC56F59EFCD
:1038A8001CF0D890C337C437C52BC4AF5EEF1CF0EB
:1038B80060EF1CF055EF1CF0C351C15DC451C259F3
:1038C800D8A069EF1CF06BEF1CF06FEF1CF0C35130
:1038D800C15FC451C25BD890C433C333C52F60EFF6
:1038E8001CF0C1C1C1F1C2C1C2F1120004BE89EF0E
:1038F8001CF004500310021006E10104D8B087EF51
:103908001CF089EF1CF0A4EF1CF001C005F002C008
:1039180006F003C007F004C008F0051E061E071EC7
:10392800081E052A000E06220722082205C001F0FB
:1039380006C002F007C003F008C004F0ACEF1CF0AA
:1039480001C001F002C002F003C003F004C004F09B
:103958001200000E0101D66F010ED56F000ED46F54
:103968000A0ED36F000ED26F140ED16F000ED06FF7
:10397800280ECF6F010ED76F020ED86F030ED96FC6
:10398800040E0001F36FCFEC1FF0000E0001D76F9B
:10399800E0EC1BF0030E0101C26F200EC16F7DEC3D
:1039A8001EF0010EFCEC1EF01200950E0001996F3E
:1039B800000E9A6F91C09BF092C09CF0000E9F6F12
:1039C800000E9E6F000EA56F000EA46F9B0E8B6FEE
:1039D800000E8C6F93C08DF094C08EF0990E8F6F8F
:1039E800000E906F02EC1DF000019E519125D96EDA
:1039F8009F519221DA6E000EDF6E12008DC07DF0AD
:103A08008EC07EF016EF1DF08BC074F08CC075F080
:103A18007D0E766E000E776E8FC078F090C079F0CC
:103A28005DEC0AF07DC0F6FF7EC0F7FF0800F55098
:103A38000009D8A422EF1DF024EF1DF008EF1DF0B7
:103A4800000E00018C6F000E8B6F120003C009F08E
:103A580004C00AF001C007F002C008F044EF1DF0EE
:103A680009C0D9FF0AC0DAFFDF500B6E094A0A2ADB
:103A780007C0D9FF08C0DAFF0BC0DFFF074A082AD2
:103A88000506D8A00606052806E10628D8A44FEFA3
:103A98001DF051EF1DF034EF1DF01200036E000E03
:103AA800056E81CF04F003C001F0010E026E012AF9
:103AB80060EF1DF0D8900236012E5EEF1DF0025027
:103AC80004140009D8B46BEF1DF06DEF1DF078EF0A
:103AD8001DF00550D8B473EF1DF076EF1DF0010E00
:103AE80077EF1DF0000E056E05501200000E371A14
:103AF800000E381A000E391A800E3A1A33C001F037
:103B080034C002F035C003F036C004F037C005F009
:103B180038C006F039C007F03AC008F0FDEC07F0ED
:103B280001C033F002C034F003C035F004C036F0F1
:103B38001200010E056E200E01180210D8B4A7EF6E
:103B48001DF0A9EF1DF0BCEF1DF0F70E0124036E68
:103B5800FF0E0220046E045009E1050E035CD8A094
:103B6800B8EF1DF0BAEF1DF0BCEF1DF0000E056EAA
:103B780005C001F0026A12000101C36F0101C345CB
:103B8800E846FC0B0109C26EC282C2B2CEEF1DF03C
:103B9800D0EF1DF0C9EF1DF0C3CFC2F00001C36B19
:103BA800C450C16FC06BC251C011BE6FC351C111A7
:103BB800BF6FBEC0C1F1BFC0C2F11200000E106ECF
:103BC800000E0F6EF3EF1DF00EC001F0026A0CC07C
:103BD80003F00DC004F042EC19F00F4A102A0F5000
:103BE8000A24D96E10500B20DA6EDF500E6E0E507C
:103BF800D8A401EF1EF003EF1EF0E8EF1DF012004D
:103C080003C005F004C006F001C007F002C008F0C8
:103C180005C0F6FF06C0F7FF054A062A07C0D9FF08
:103C280008C0DAFF074A082A0800F5CFDFFFDF508F
:103C3800D8A421EF1EF023EF1EF00CEF1EF01200A7
:103C4800036E0344E846FC0B0109C26EC282C2B28D
:103C580030EF1EF032EF1EF02BEF1EF0C3CFC2F094
:103C68000001C36BC450C16FC06BC251C011BE6F9D
:103C7800C351C111BF6FBEC001F0BFC002F0120036
:103C88003F065B4F666D7D077F6F777C395E797184
:103C9800002000200020004142434445464748494F
:103CA8004A0000000000000041424344454647489E
:093CB800494A0000000000000070
:103CC2000150021003100410D8B46AEF1EF06CEF1A
:103CD2001EF074EF1EF0000E011A000E021A000E02
:103CE200031A800E041A01C001F002C002F003C0E0
:103CF20003F004C004F01200CF0EBD16C1C1C3F11F
:103D0200030E0101C317C339F00BBD12C1C1C3F1C8
:103D1200C2C1C4F1D890C433C333D890C433C333BF
:103D2200C351BE6E1200CF0EBD1601C003F0030ECA
:103D320003160338F00BBD1201C003F002C004F0F9
:103D4200D89004320332D890043203320350BE6E4C
:103D52001200D00E0124036EFF0E0220046E0450E6
:103D62000AE10A0E035CD8A0B9EF1EF0BCEF1EF008
:103D7200010EBDEF1EF0000E016E026A12000F0E60
:103D8200C16EC30E926E3F0E936EDB0E946E000EEA
:103D9200956EF90E966E000E896E000E8C6E000EF8
:103DA2008A6E200E8B6E12000101C151C303F3CF44
:103DB200C5F1F4CFC6F1C151C403F350C627C251B5
:103DC200C303F350C627C5C1C1F1C6C1C2F1120077
:103DD2000101C26F84820101C251BCEC1FF08484D4
:103DE2000D0EE82EFED700F084920D0EE82EFED7BF
:103DF20000F0848212000101C26F84820101C2516B
:103E0200BCEC1FF084940D0EE82EFED700F08492D5
:103E12000D0EE82EFED700F08482120008500A022E
:103E2200F3CF0CF0F4CF0DF008500B02F3500D2637
:103E320009500A02F3500D260CC008F00DC009F01B
:103E42001200026E84820250C5EC1FF084840D0EB3
:103E5200E82EFED700F084920D0EE82EFED700F079
:103E620084821200026E84820250C5EC1FF0849498
:103E72000D0EE82EFED700F084920D0EE82EFED72E
:103E820000F084821200C1EC1FF0C0EC1EF099EC2D
:103E92001FF0B7EC1FF0A0EC1FF0A7EC1FF0C9EC6D
:103EA2001FF012000001DB51D8B45AEF1FF05DEF92
:103EB2001FF0010E5EEF1FF0000EDB6F120000011B
:103EC200DC51D8B467EF1FF06AEF1FF0010E6BEF01
:103ED2001FF0000EDC6F12000001DD51D8B474EF48
:103EE2001FF077EF1FF0010E78EF1FF0000EDD6F6D
:103EF2001200E3EC16F0010EC0EC1DF0C1C1CDF1D1
:103F0200C2C1CEF153EC1AF01200000E076E000E81
:103F1200086E000E42EC12F0010E24EC1EF01200AC
:103F2200B2EC1FF07AEC1FF093EF1FF007EF00F0F6
:103F3200300EF26E050EF16ED80EF06E1200010E0A
:103F4200C26E0D0EC16E940EC06E1200050ECA6EC8
:103F5200CB680C0EBD6E12000100010001002000B2
:103F6200011044EC1FF0ADEC1CF01200D10ED56E26
:103F7200060ED66E12000101C16FC1C183FF12008D
:103F8200D09EF29EF29C1200016E01C083FF1200CD
:103F9200F28AF28E1200D7EC18F01200C2821200DE
:043FA20012001200F7
:020000040020DA
:08000000FFFFFFFFFFFFFFFF00
:020000040030CA
:0E000000FF021F1EFF8381FF0FC00FE00F40A5
:00000001FF
