:0400000007EF00F016
:0A0008007F8242ED0FF05AEF11F075
:1006000000202020000000019151800B9A6F915131
:100610009125A06F90AF0FEF03F011EF03F012EFF1
:1006200003F0A081A051D8B418EF03F01AEF03F043
:100630002DEF03F0A029D8A420EF03F022EF03F060
:100640002AEF03F0000E8E6F000E8F6F000E906F7A
:10065000000E916F908F35EF03F0000E8E6F000E3D
:100660008F6F000E906F000E916F9551800B9A1B4B
:10067000955195259F6F94AF40EF03F042EF03F043
:1006800043EF03F09F819F51D8B449EF03F04BEF44
:1006900003F05EEF03F09F29D8A451EF03F053EF6E
:1006A00003F05BEF03F0000E926F000E936F000EED
:1006B000946F000E956F948F66EF03F0000E926FAB
:1006C000000E936F000E946F000E956F9F51D8B47B
:1006D0006CEF03F06EEF03F076EF03F0A051D8A4B7
:1006E00074EF03F076EF03F080EF03F0000E8E6FEF
:1006F000000E8F6F000E906F000E916F18EF05F0D7
:1007000094518E03F3CFA5F0F4CFA6F0A5519B6FC3
:100710009C6B9D6B9E6BA651A16FA26BA36BA46B90
:1007200093518F03F3CFA5F0F4CFA6F0A5519B27EB
:10073000000E9C239D239E23A651A127000EA223D9
:10074000A323A42392519003F3CFA5F0F4CFA6F0F6
:10075000A5519B27000E9C239D239E23A651A127D4
:10076000000EA223A323A4239DC09EF09CC09DF055
:100770009BC09CF09B6B92518F03F3CFA5F0F4CFFD
:10078000A6F0A5519B27A6519C23000E9D23000E89
:100790009E2393518E03F3CFA5F0F4CFA6F0A5517D
:1007A0009B27A6519C23000E9D23000E9E239DC0D7
:1007B0009EF09CC09DF09BC09CF09B6B92518E0361
:1007C000F3CFA5F0F4CFA6F0A5519B27A6519C230B
:1007D000000E9D23000E9E2394518F03F3CFA5F0AE
:1007E000F4CFA6F0A551A127A651A223000EA32362
:1007F000000EA42393519003F3CFA5F0F4CFA6F0FD
:10080000A551A127A651A223000EA323000EA423C5
:1008100094519003F3CFA5F0F4CFA6F0A551966FB5
:10082000A651976F986B996B98C099F097C098F004
:1008300096C097F0966B9651A1279751A223985195
:10084000A3239951A4239BC096F09CC097F09DC010
:1008500098F09EC099F0190E33EF04F0D8909933B8
:10086000983397339633E82E2EEF04F09651A12754
:100870009751A2239851A3239951A4239DC09EF080
:100880009CC09DF09BC09CF09B6B9F51A0C096F0BC
:10089000976B9627000E9723820E9625A56FFF0E65
:1008A0009721A66F69EF04F0D890A137A237A3373C
:1008B000A4379EAF5EEF04F060EF04F061EF04F048
:1008C000A181D8909B379C379D379E37A507D8A02C
:1008D000A607A3AF6EEF04F070EF04F054EF04F03E
:1008E000000E9F6F9EAF77EF04F079EF04F09DEF5D
:1008F00004F0FF0E9B15966FFF0E9C15976FFF0E71
:100900009D15986F7F0E9E15996F965197119811AE
:100910009911D8B48EEF04F090EF04F094EF04F046
:10092000010E9F6F9DEF04F0A1A199EF04F09BEFE2
:1009300004F09DEF04F090EF04F09F51D8B4A3EFC2
:1009400004F0A5EF04F0C9EF04F0010EA127000E9A
:10095000A223A323A423A4A1B0EF04F0B2EF04F0D8
:10096000C9EF04F0A1C096F0A2C097F0A3C098F020
:10097000A4C099F09935993398339733963396C03C
:10098000A1F097C0A2F098C0A3F099C0A4F0A54B25
:10099000A62BA6BFD4EF04F0A65108E1A529D8A044
:1009A000D4EF04F0D6EF04F0E0EF04F0000EA16FF6
:1009B000000EA26F800EA36F7F0EA46F0EEF05F0E6
:1009C000A6BFEDEF04F0A65106E1A505D8B0EBEF08
:1009D00004F0EDEF04F0F9EF04F0000EA16F000E4B
:1009E000A26F000EA36F000EA46F000E9A6F0EEFA1
:1009F00005F0A5C0A0F0FF0EA117FF0EA2177F0EF5
:100A0000A317000EA417A0A108EF05F00AEF05F048
:100A10000BEF05F0A38FD890A031A46F9A51A413C7
:100A2000A1C08EF0A2C08FF0A3C090F0A4C091F03E
:100A300012001250800B1B6E12501224216E11AE48
:100A400024EF05F026EF05F027EF05F02180215077
:100A5000D8B42DEF05F02FEF05F042EF05F0212877
:100A6000D8A435EF05F037EF05F03FEF05F0000EA5
:100A70000F6E000E106E000E116E000E126E118EB3
:100A80004AEF05F0000E0F6E000E106E000E116E94
:100A9000000E126E1650800B1B1A16501624206E74
:100AA00015AE55EF05F057EF05F058EF05F0208033
:100AB0002050D8B45EEF05F060EF05F073EF05F05D
:100AC0002028D8A466EF05F068EF05F070EF05F078
:100AD000000E136E000E146E000E156E000E166ED4
:100AE000158E7BEF05F0000E136E000E146E000ED7
:100AF000156E000E166E2050D8B481EF05F083EF0E
:100B000005F08BEF05F02150D8A489EF05F08BEFAD
:100B100005F095EF05F0000E0F6E000E106E000E42
:100B2000116E000E126E2DEF07F015500F02F3CF6D
:100B300026F0F4CF27F026501C6E1D6A1E6A1F6A2D
:100B40002750226E236A246A256A14501002F3CFBC
:100B500026F0F4CF27F026501C26000E1D221E2260
:100B60001F2227502226000E232224222522135042
:100B70001102F3CF26F0F4CF27F026501C26000EEA
:100B80001D221E221F2227502226000E232224224D
:100B900025221EC01FF01DC01EF01CC01DF01C6AC7
:100BA00013501002F3CF26F0F4CF27F026501C2666
:100BB00027501D22000E1E22000E1F2214500F026D
:100BC000F3CF26F0F4CF27F026501C2627501D2205
:100BD000000E1E22000E1F221EC01FF01DC01EF0A0
:100BE0001CC01DF01C6A13500F02F3CF26F0F4CF87
:100BF00027F026501C2627501D22000E1E22000E14
:100C00001F2215501002F3CF26F0F4CF27F0265004
:100C1000222627502322000E2422000E25221450C3
:100C20001102F3CF26F0F4CF27F0265022262750CA
:100C30002322000E2422000E252215501102F3CF8C
:100C400026F0F4CF27F02650176E2750186E196A39
:100C50001A6A19C01AF018C019F017C018F0176AEC
:100C60001750222618502322195024221A502522C8
:100C70001CC017F01DC018F01EC019F01FC01AF0DC
:100C8000190E48EF06F0D8901A321932183217327E
:100C9000E82E43EF06F01750222618502322195051
:100CA00024221A5025221EC01FF01DC01EF01CC099
:100CB0001DF01C6A205021C017F0186A1726000E7C
:100CC0001822820E1724266EFF0E1820276E7EEF44
:100CD00006F0D89022362336243625361FAE73EF21
:100CE00006F075EF06F076EF06F02280D8901C36FD
:100CF0001D361E361F362606D8A0270624AE83EFE3
:100D000006F085EF06F069EF06F0000E206E1FAECC
:100D10008CEF06F08EEF06F0B2EF06F0FF0E1C141B
:100D2000176EFF0E1D14186EFF0E1E14196E7F0E27
:100D30001F141A6E1750181019101A10D8B4A3EFF8
:100D400006F0A5EF06F0A9EF06F0010E206EB2EF57
:100D500006F022A0AEEF06F0B0EF06F0B2EF06F01C
:100D6000A5EF06F02050D8B4B8EF06F0BAEF06F0C1
:100D7000DEEF06F0010E2226000E23222422252279
:100D800025A0C5EF06F0C7EF06F0DEEF06F022C0A3
:100D900017F023C018F024C019F025C01AF01A3437
:100DA0001A3219321832173217C022F018C023F045
:100DB00019C024F01AC025F0264A272A27BEE9EFD9
:100DC00006F0275008E12628D8A0E9EF06F0EBEF5F
:100DD00006F0F5EF06F0000E226E000E236E800E78
:100DE000246E7F0E256E23EF07F027BE02EF07F07B
:100DF000275006E12604D8B000EF07F002EF07F015
:100E00000EEF07F0000E226E000E236E000E246E11
:100E1000000E256E000E1B6E23EF07F026C021F09A
:100E2000FF0E2216FF0E23167F0E2416000E251627
:100E300021A01DEF07F01FEF07F020EF07F0248E31
:100E4000D8902130256E1B50251222C00FF023C0F0
:100E500010F024C011F025C012F012000001AA51B8
:100E6000800BB76FAA51AA25BE6FA9AF3AEF07F062
:100E70003CEF07F03DEF07F0BE81BE51D8B443EF21
:100E800007F045EF07F05AEF07F0BE29D8A44BEF63
:100E900007F04DEF07F055EF07F0000EA76F000EBB
:100EA000A86F000EA96F000EAA6FA98F000EAA6F7F
:100EB00062EF07F0000EA76F000EA86F000EA96F7B
:100EC000000EAA6FAE51800BB71BAE51AE25BF6F9F
:100ED000ADAF6DEF07F06FEF07F070EF07F0BF8178
:100EE000BF51D8B476EF07F078EF07F08DEF07F039
:100EF000BF29D8A47EEF07F080EF07F088EF07F056
:100F0000000EAB6F000EAC6F000EAD6F000EAE6F3B
:100F1000AD8F000EAE6F95EF07F0000EAB6F000EB9
:100F2000AC6F000EAD6F000EAE6FAB51AC11AD11DA
:100F3000AE11D8A49EEF07F0A0EF07F0B8EF07F0CE
:100F4000000EA76F000EA86F000EA96F000EAA6F0B
:100F5000800EA9137F0EAA13B751AA13A7C0A7F03A
:100F6000A8C0A8F0A9C0A9F0AAC0AAF0FBEF08F099
:100F7000BE51D8A4BEEF07F0C0EF07F0CAEF07F0EC
:100F8000000EA76F000EA86F000EA96F000EAA6FCB
:100F9000FBEF08F0BF51BEC0AFF0B06BAF5F000E0B
:100FA000B05B7F0EAF25B86F000EB021B96FA7C040
:100FB000B3F0A8C0B4F0A9C0B5F0AAC0B6F0000E56
:100FC000A76F000EA86F000EA96F000EAA6F000E8B
:100FD000BA6F000EBB6F000EBC6F000EBD6F000E2F
:100FE000BF6F2BEF08F0BF51D8B4F9EF07F0FBEF5C
:100FF00007F012EF08F0D890B337B437B537B637EB
:10100000D890A737A837A937AA37BDAF0AEF08F09D
:101010000CEF08F00DEF08F0A781D890BA37BB3776
:10102000BC37BD37AB51B35DAC51B459AD51B559B7
:10103000AE51B659D8A01FEF08F021EF08F02AEF03
:1010400008F0BD8DAB51B35FAC51B45BAD51B55B36
:10105000AE51B65BBF2B190EBF6531EF08F033EF11
:1010600008F0F3EF07F0B351B411B511B611D8B4CD
:101070003CEF08F03EEF08F056EF08F0BA8156EF6B
:1010800008F0D890A737A837A937AA37BDAF4BEFDC
:1010900008F04DEF08F04EEF08F0A781D890BA376E
:1010A000BB37BC37BD37B807D8A0B907A9AF5BEFCE
:1010B00008F05DEF08F041EF08F0000EBF6FBDAF24
:1010C00064EF08F066EF08F08AEF08F0FF0EBA153B
:1010D000AF6FFF0EBB15B06FFF0EBC15B16F7F0E6B
:1010E000BD15B26FAF51B011B111B211D8B47BEFD1
:1010F00008F07DEF08F081EF08F0010EBF6F8AEF76
:1011000008F0A7A186EF08F088EF08F08AEF08F052
:101110007DEF08F0BF51D8B490EF08F092EF08F0DF
:10112000B6EF08F0010EA727000EA823A923AA23D3
:10113000AAA19DEF08F09FEF08F0B6EF08F0A7C056
:10114000AFF0A8C0B0F0A9C0B1F0AAC0B2F0B235FB
:10115000B233B133B033AF33AFC0A7F0B0C0A8F0F3
:10116000B1C0A9F0B2C0AAF0B84BB92BB9BFC1EF5A
:1011700008F0B95108E1B829D8A0C1EF08F0C3EFD1
:1011800008F0CEEF08F0000EB96FB869000EA76F37
:10119000000EA86F000EA96F000EAA6FB9BFDBEF9B
:1011A00008F0B95106E1B805D8B0D9EF08F0DBEF87
:1011B00008F0E9EF08F0000EB96F000EB86F000EEE
:1011C000A76F000EA86F000EA96F000EAA6F000E89
:1011D000B76FB8C0BEF0BEA1F0EF08F0F2EF08F0B4
:1011E000F5EF08F0A98FF6EF08F0A99FD890BE316F
:1011F000AA6FACEF07F012002B50800B386E2B500B
:101200002B243F6E2AAE07EF09F009EF09F00AEF31
:1012100009F03F803F50D8B410EF09F012EF09F009
:1012200027EF09F03F28D8A418EF09F01AEF09F0CA
:1012300022EF09F0000E286E000E296E000E2A6EB5
:10124000000E2B6E2A8E000E2B6E2FEF09F0000E73
:10125000286E000E296E000E2A6E000E2B6E2F5087
:10126000800B381A2F502F24406E2EAE3AEF09F023
:101270003CEF09F03DEF09F040804050D8B443EF17
:1012800009F045EF09F05AEF09F04028D8A44BEFD8
:1012900009F04DEF09F055EF09F0000E2C6E000E2D
:1012A0002D6E000E2E6E000E2F6E2E8E000E2F6EE7
:1012B00062EF09F0000E2C6E000E2D6E000E2E6EE9
:1012C000000E2F6E2C502D102E102F10D8A46BEF67
:1012D00009F06DEF09F085EF09F0000E286E000EA1
:1012E000296E000E2A6E000E2B6E800E2A127F0EC3
:1012F0002B1238502B1228C028F029C029F02AC000
:101300002AF02BC02BF0C8EF0AF03F50D8A48BEF87
:1013100009F08DEF09F097EF09F0000E286E000E2E
:10132000296E000E2A6E000E2B6EC8EF0AF0405098
:101330003FC030F0316A305E000E315A7F0E3024EB
:10134000396E000E31203A6E28C034F029C035F0D5
:101350002AC036F02BC037F0000E286E000E296E22
:10136000000E2A6E000E2B6E000E3B6E000E3C6EC1
:10137000000E3D6E000E3E6E000E406EF8EF09F05E
:101380004050D8B4C6EF09F0C8EF09F0DFEF09F01C
:10139000D8903436353636363736D8902836293612
:1013A0002A362B363EAED7EF09F0D9EF09F0DAEF47
:1013B00009F02880D8903B363C363D363E362C50DE
:1013C000345C2D5035582E5036582F503758D8A0F1
:1013D000ECEF09F0EEEF09F0F7EF09F03E8C2C503E
:1013E000345E2D50355A2E50365A2F50375A402AD7
:1013F000190E4064FEEF09F000EF0AF0C0EF09F0AB
:101400003450351036103710D8B409EF0AF00BEF0E
:101410000AF023EF0AF03B8023EF0AF0D890283639
:1014200029362A362B363EAE18EF0AF01AEF0AF0AC
:101430001BEF0AF02880D8903B363C363D363E36CE
:101440003906D8A03A062AAE28EF0AF02AEF0AF0A9
:101450000EEF0AF0000E406E3EAE31EF0AF033EFB1
:101460000AF057EF0AF0FF0E3B14306EFF0E3C14EB
:10147000316EFF0E3D14326E7F0E3E14336E3050CF
:10148000311032103310D8B448EF0AF04AEF0AF0A6
:101490004EEF0AF0010E406E57EF0AF028A053EF0E
:1014A0000AF055EF0AF057EF0AF04AEF0AF0405001
:1014B000D8B45DEF0AF05FEF0AF083EF0AF0010E97
:1014C0002826000E29222A222B222BA06AEF0AF0BE
:1014D0006CEF0AF083EF0AF028C030F029C031F039
:1014E0002AC032F02BC033F033343332323231324F
:1014F000303230C028F031C029F032C02AF033C079
:101500002BF0394A3A2A3ABE8EEF0AF03A5008E1F7
:101510003928D8A08EEF0AF090EF0AF09BEF0AF07E
:10152000000E3A6E3968000E286E000E296E000E0D
:101530002A6E000E2B6E3ABEA8EF0AF03A5006E172
:101540003904D8B0A6EF0AF0A8EF0AF0B6EF0AF017
:10155000000E3A6E000E396E000E286E000E296ED7
:10156000000E2A6E000E2B6E000E386E39C03FF052
:101570003FA0BDEF0AF0BFEF0AF0C2EF0AF02A8EDB
:10158000C3EF0AF02A9ED8903F302B6E79EF09F016
:1015900012000001886F00018851D8B4D2EF0AF020
:1015A000D4EF0AF0F6EF0AF083BFDBEF0AF0D9EFD1
:1015B0000AF0F6EF0AF080C084F081C085F082C0A6
:1015C00086F083C087F0841F851F861F871F842BAA
:1015D000000E85238623872384C08AF085C08BF084
:1015E00086C08CF087C08DF0FEEF0AF080C08AF0D4
:1015F00081C08BF082C08CF083C08DF0805181114E
:1016000082118311D8A407EF0BF009EF0BF013EF51
:101610000BF0000E806F000E816F000E826F000EC7
:10162000836FA4EF0BF0960E896F1DEF0BF0892BE3
:10163000D8908D338C338B338A33000E8A15846FA8
:10164000000E8B15856F000E8C15866FFE0E8D15A6
:10165000876F8451851186118711D8A432EF0BF062
:1016600034EF0BF017EF0BF042EF0BF0892B010E6C
:101670008A27000E8B238C238D23D8908D338C33B7
:101680008B338A33000E8A15846F000E8B15856F9D
:10169000000E8C15866FFF0E8D15876F8451851196
:1016A00086118711D8A457EF0BF059EF0BF036EFE6
:1016B0000BF061EF0BF08907D8908A378B378C37A6
:1016C0008D378CBF66EF0BF068EF0BF070EF0BF00F
:1016D000020E89616EEF0BF070EF0BF05BEF0BF019
:1016E00089B175EF0BF077EF0BF078EF0BF08C9F73
:1016F000D890893389C084F0856B866B876B84C0F2
:1017000087F0866B856B846B84518A1385518B13AC
:1017100086518C1387518D138851D8B492EF0BF0FA
:1017200094EF0BF09CEF0BF083BF9BEF0BF099EF66
:101730000BF09CEF0BF08D8F8AC080F08BC081F096
:101740008CC082F08DC083F01200096E0950D8B4AD
:10175000ACEF0BF0AEEF0BF0D0EF0BF004BEB5EF3B
:101760000BF0B3EF0BF0D0EF0BF001C005F002C0AF
:1017700006F003C007F004C008F0051E061E071E91
:10178000081E052A000E06220722082205C00BF0BB
:1017900006C00CF007C00DF008C00EF0D8EF0BF03B
:1017A00001C00BF002C00CF003C00DF004C00EF03D
:1017B0000150021003100410D8A4E1EF0BF0E3EF86
:1017C0000BF0EDEF0BF0000E016E000E026E000E3E
:1017D000036E000E046E7EEF0CF0960E0A6EF7EFAD
:1017E0000BF00A2AD8900E320D320C320B32000E5A
:1017F0000B14056E000E0C14066E000E0D14076E11
:10180000FE0E0E14086E0550061007100810D8A41E
:101810000CEF0CF00EEF0CF0F1EF0BF01CEF0CF0F6
:101820000A2A010E0B26000E0C220D220E22D89041
:101830000E320D320C320B32000E0B14056E000E00
:101840000C14066E000E0D14076EFF0E0E14086EBB
:101850000550061007100810D8A431EF0CF033EF34
:101860000CF010EF0CF03BEF0CF00A06D8900B36A2
:101870000C360D360E360DBE40EF0CF042EF0CF07C
:101880004AEF0CF0020E0A6048EF0CF04AEF0CF041
:1018900035EF0CF00AB04FEF0CF051EF0CF052EFB7
:1018A0000CF00D9ED8900A320AC005F0066A076A4D
:1018B000086A05C008F0076A066A056A05500B1237
:1018C00006500C1207500D1208500E120950D8B4D1
:1018D0006CEF0CF06EEF0CF076EF0CF004BE75EFD1
:1018E0000CF073EF0CF076EF0CF00E8E0BC001F0E5
:1018F0000CC002F00DC003F00EC004F01200000E88
:101900002C6EC00E2D6E7F0E2E6E440E2F6E000EAE
:10191000136E000E146EC80E156E420E166E71C058
:1019200001F072C002F0036A046A000EA5EC0BF02D
:1019300001C00FF002C010F003C011F004C012F09B
:1019400019EC05F00FC028F010C029F011C02AF0E2
:1019500012C02BF0FCEC08F028C041F029C042F086
:101960002AC043F02BC044F03EEC0EF041C05FF0C3
:1019700042C060F0605007E1140E5F5CD8B0C3EF66
:101980000CF0C5EF0CF0C9EF0CF0000E606E140EF9
:101990005F6E000E2C6EC00E2D6E7F0E2E6E440EEE
:1019A0002F6E000E136E000E146EC80E156E420ED2
:1019B000166E73C001F074C002F0036A046A000E70
:1019C000A5EC0BF001C00FF002C010F003C011F045
:1019D00004C012F019EC05F00FC028F010C029F077
:1019E00011C02AF012C02BF0FCEC08F028C041F026
:1019F00029C042F02AC043F02BC044F03EEC0EF068
:101A000041C05DF042C05EF05E5007E1140E5D5CC7
:101A1000D8B00DEF0DF00FEF0DF013EF0DF0000E3D
:101A20005E6E140E5D6E5D505F244B6E5E506020E6
:101A30004C6ED8904C304D6E4B305B6E4DC05CF0B0
:101A400012008CCF67F0010E83EC13F0800E83EC54
:101A500013F05FC001F060C002F0000E046E0A0EC9
:101A6000036E12EC12F00150300F94EC13F05FC0D3
:101A700001F060C002F0000E046E0A0E036E7FECEF
:101A800012F00150300F94EC13F0DF0E94EC13F0D1
:101A9000430E94EC13F0010E036E060E046EB1ECCF
:101AA00012F05DC001F05EC002F0000E046E0A0E7E
:101AB000036E12EC12F00150300F94EC13F05DC085
:101AC00001F05EC002F0000E046E0A0E036E7FECA1
:101AD00012F00150300F94EC13F0DF0E94EC13F081
:101AE000430E94EC13F0C00E83EC13F05BC001F0D6
:101AF0005CC002F0000E046E0A0E036E12EC12F0CF
:101B00000150300F94EC13F05BC001F05CC002F0A8
:101B1000000E046E0A0E036E7FEC12F00150300FBF
:101B200094EC13F0DF0E94EC13F0430E94EC13F0EE
:101B3000010E036E060E046EB1EC12F06B50300F06
:101B400094EC13F06A50300F94EC13F02E0E94ECDA
:101B500013F06950300F94EC13F06850300F94EC90
:101B600013F0DF0E94EC13F0430E94EC13F067C007
:101B70008CFF12000001C235C335C96FC951D8A40A
:101B8000C4EF0DF0C6EF0DF0D0EF0DF0000EC06FFA
:101B9000000EC16F000EC26F000EC36F3DEF0EF05E
:101BA000C0C0C4F0C1C0C5F0C2C0C6F0C3C0C7F059
:101BB000200EE0EF0DF0D890C733C633C533C433E1
:101BC000E82EDBEF0DF0C451C86FC28FFF0EC017B7
:101BD000FF0EC117FF0EC217000EC317960EC95F86
:101BE000C9BFF7EF0DF0F5EF0DF00DEF0EF0C95195
:101BF000800A970FD8B0FFEF0DF001EF0EF003EF62
:101C00000EF0C6EF0DF0D890C333C233C133C033EA
:101C1000C93F03EF0EF025EF0EF01F0EC96513EF5D
:101C20000EF015EF0EF01DEF0EF0C6EF0DF0D89090
:101C3000C037C137C237C337C907C951D8A423EF4A
:101C40000EF025EF0EF017EF0EF0C851D8B42BEFC1
:101C50000EF02DEF0EF035EF0EF0C31FC21FC11FA7
:101C6000C06D000EC123C223C323C0C0C0F0C1C0D9
:101C7000C1F0C2C0C2F0C3C0C3F012004334443448
:101C80004A6E4A50D8A447EF0EF049EF0EF053EFDA
:101C90000EF0000E416E000E426E000E436E000EFE
:101CA000446EC0EF0EF041C045F042C046F043C064
:101CB00047F044C048F0200E63EF0EF0D890483251
:101CC000473246324532E82E5EEF0EF04550496EFF
:101CD000438EFF0E4116FF0E4216FF0E4316000EF6
:101CE0004416960E4A5E4ABE7AEF0EF078EF0EF07A
:101CF00090EF0EF04A50800A970FD8B082EF0EF0A6
:101D000084EF0EF086EF0EF049EF0EF0D8904432DB
:101D10004332423241324A3E86EF0EF0A8EF0EF0D7
:101D20001F0E4A6496EF0EF098EF0EF0A0EF0EF043
:101D300049EF0EF0D89041364236433644364A06D3
:101D40004A50D8A4A6EF0EF0A8EF0EF09AEF0EF0CE
:101D50004950D8B4AEEF0EF0B0EF0EF0B8EF0EF081
:101D6000441E431E421E416C000E42224322442266
:101D700041C041F042C042F043C043F044C044F08F
:101D80001200F6C085F0F7C086F0000E0001886FE3
:101D9000640E876F9DEC11F000018551FE6F000EFF
:101DA000836F640E826FF6C080F0F7C081F04CEC58
:101DB00012F080C085F081C086F0000E0001886FAF
:101DC0000A0E876F9DEC11F000018551FD6FF6C082
:101DD00080F0F7C081F0000E836F0A0E826F4CEC2A
:101DE00012F000018051FC6FC8EC10F0F8C085F0D3
:101DF000F9C086F0030E0001886FE80E876F9DEC36
:101E000011F0000185516B6E030E836FE80E826F37
:101E1000F8C080F0F9C081F04CEC12F080C085F081
:101E200081C086F0000E0001886F640E876F9DEC04
:101E300011F0000185516A6E000E836F640E826F8F
:101E4000F8C080F0F9C081F04CEC12F080C085F051
:101E500081C086F0000E0001886F0A0E876F9DEC2E
:101E600011F000018551696EF8C080F0F9C081F071
:101E7000000E836F0A0E826F4CEC12F0000180514D
:101E8000686E12000600D9CF4FF0DACF50F0F3CFD2
:101E900051F0F4CF52F0F6CF53F0F7CF54F0F8CF23
:101EA00055F0F5CF56F0F2A458EF0FF05AEF0FF0BF
:101EB00061EF0FF0000ED76E060ED66EB6EC0FF087
:101EC000F294F2A266EF0FF068EF0FF070EF0FF0F0
:101ED000F2A86DEF0FF06FEF0FF070EF0FF0F292CE
:101EE000F0A075EF0FF077EF0FF07FEF0FF0F0A697
:101EF0007CEF0FF07EEF0FF07FEF0FF0F090F0A28D
:101F000084EF0FF086EF0FF08EEF0FF0F0A88BEF5D
:101F10000FF08DEF0FF08EEF0FF0F0929EAC93EF7D
:101F20000FF095EF0FF0A4EF0FF09DAC9AEF0FF0CC
:101F30009CEF0FF0A4EF0FF0F2ACA1EF0FF0A3EFC6
:101F40000FF0A4EF0FF09E9C56C0F5FF55C0F8FFB0
:101F500054C0F7FF53C0F6FF52C0F4FF51C0F3FF67
:101F600050C0DAFF4FC0D9FF7F9211008250010BA1
:101F70008D6E14EC11F07E5007E1080E7D5CD8B038
:101F8000C4EF0FF0C6EF0FF0CAEF0FF07D4A7E2AC4
:101F9000D0EF0FF011EC13F0000E7E6E010E7D6E8F
:101FA0007C5007E1320E7B5CD8B0D9EF0FF0DBEF4D
:101FB0000FF0DFEF0FF07B4A7C2AE5EF0FF016EC15
:101FC00010F0000E7C6E010E7B6EE80E795C030E45
:101FD0007A58D8B0EEEF0FF0F0EF0FF0F4EF0FF00B
:101FE000794A7A2AFEEF0FF071EC10F021EC0DF037
:101FF0004CEC13F0000E7A6E010E796E785007E10A
:10200000640E775CD8B007EF10F009EF10F00DEF19
:1020100010F0774A782A15EF10F011EC13F07FECEE
:102020000CF0000E786E010E776E120053EF10F078
:102030008984899ADB0E6F24D96EDA6A000EDA225F
:10204000DF508C6E010E6C6E70EF10F089948986F3
:10205000DB0E0001FE25D96EDA6A000EDA22DF50AF
:102060008C6E020E6C6E70EF10F089968988DB0E14
:102070000001FD25D96EDA6A000EDA22DF508C6E7F
:10208000030E6C6E70EF10F08998898ADB0E0001E8
:10209000FC25D96EDA6A000EDA22DF508C6E000E53
:1020A0006C6E70EF10F06C50016E026A0250000A04
:1020B000D8B45DEF10F070EF10F00150000AD8B402
:1020C00018EF10F0010AD8B426EF10F0030AD8B4C4
:1020D00035EF10F0010AD8B444EF10F070EF10F0B3
:1020E00012005F50615C60506258D8B07AEF10F017
:1020F0007CEF10F087EF10F0828A000E026E000E67
:10210000016EFBEC12F0010E656E95EF10F0615060
:102110005D5C62505E58D8B090EF10F092EF10F016
:1021200095EF10F0829A000E656E6550D8A49BEF73
:1021300010F09DEF10F0C7EF10F061505B5C625043
:102140005C58D8B0A6EF10F0A8EF10F0B5EF10F083
:10215000829A020E586E700E576E57C001F058C02A
:1021600002F0FBEC12F0C7EF10F05B50615C5C50CA
:102170006258D8B0BEEF10F0C0EF10F0C7EF10F00B
:10218000829A010E586EB40E576EADEF10F0120029
:10219000000E0001AB6FC00EAC6F7F0EAD6F440E32
:1021A000AE6F000E926F500E936F430E946F470EFA
:1021B000956F75C080F076C081F0826B836B000EE6
:1021C000C9EC0AF080C08EF081C08FF082C090F020
:1021D00083C091F003EC03F08EC0A7F08FC0A8F08D
:1021E00090C0A9F091C0AAF02EEC07F0A7C0C0F0F3
:1021F000A8C0C1F0A9C0C2F0AAC0C3F0BAEC0DF0EB
:10220000C0C0F8F0C1C0F9F0F8C085F0F9C086F0A0
:10221000000E0001886F640E876F9DEC11F085C081
:1022200061F086C062F0120040EF11F0C3CF71F090
:10223000C4CF72F0010ECAEC13F0E9EC13F0010EFA
:10224000706E59EF11F0C3CF73F0C4CF74F0928465
:102250000C0EC16E020ECAEC13F0E9EC13F0020E84
:10226000706E59EF11F0C3CF75F0C4CF76F0000E49
:10227000CAEC13F0E9EC13F0000E706E59EF11F098
:102280007050026E036A0350000AD8B44AEF11F08E
:1022900059EF11F00250000AD8B416EF11F0010AFC
:1022A000D8B423EF11F0030AD8B433EF11F059EF8B
:1022B00011F01200640EF66E270EF76E000EF86E27
:1022C00001EE00F010EE11F00900F5CFEEFFE55041
:1022D000E150FAE1E40EF66E260EF76E000EF86E8F
:1022E00000EECAF010EE22F00900F5CFEEFFE55047
:1022F000E150FAE1B60EF66E270EF76E000EF86E9C
:1023000000EE77F010EE08F00900F5CFEEFFE55093
:10231000E150FAE100EEECF0130EEE6AE806FDE1A2
:1023200000EE57F0200EEE6AE806FDE17F907F9206
:10233000000EF86E0001BBEF13F0000E00018A6F73
:10234000000E896F87518811D8B4A9EF11F0ABEF57
:1023500011F0D3EF11F0010E8B6FB3EF11F0D890A5
:10236000873788378B2B88AFB8EF11F0BAEF11F0B1
:10237000AFEF11F0D89089378A378751855D885142
:102380008659D8A0C6EF11F0C8EF11F0CDEF11F0CB
:102390008751855F8851865B8981D89088338733E0
:1023A0008B2FBAEF11F089C085F08AC086F0120039
:1023B00084928494410E0001826FEE0EE82EFED7C7
:1023C000822FFCD700F08482380E39EC13F0110E06
:1023D0000001826F3A0EE82EFED7822FFCD700F064
:1023E000380E39EC13F0040E0001826F3D0EE82E1A
:1023F000FED7822FFCD700D0380E39EC13F0080E30
:1024000039EC13F00F0E39EC13F0010E39EC13F028
:10241000380E39EC13F0800E39EC13F00C0E39EC59
:1024200013F01200000E066E000E056E035004102D
:10243000D8B41DEF12F01FEF12F047EF12F0010EAB
:10244000076E27EF12F0D89003360436072A04AE41
:102450002CEF12F02EEF12F023EF12F0D890053689
:1024600006360350015C04500258D8A03AEF12F02F
:102470003CEF12F041EF12F00350015E0450025A9B
:102480000580D89004320332072E2EEF12F005C0DB
:1024900001F006C002F01200000182518311D8B48D
:1024A00054EF12F056EF12F07AEF12F0010E846F33
:1024B0005EEF12F0D89082378337842B83AF63EFBF
:1024C00012F065EF12F05AEF12F08251805D8351E5
:1024D0008159D8A06EEF12F070EF12F074EF12F085
:1024E0008251805F8351815BD89083338233842F04
:1024F00065EF12F080C080F081C081F012000350BF
:102500000410D8B486EF12F088EF12F0ACEF12F09E
:10251000010E056E90EF12F0D89003360436052AAE
:1025200004AE95EF12F097EF12F08CEF12F003501B
:10253000015C04500258D8A0A0EF12F0A2EF12F0F4
:10254000A6EF12F00350015E0450025AD8900432F4
:102550000332052E97EF12F001C001F002C002F025
:102560001200000E076EC4EF12F007500324056E30
:10257000000E0420066E05C0F6FF06C0F7FF080037
:10258000F55094EC13F0072A07500324056E000E53
:102590000420066E05C0F6FF06C0F7FF0800F550E0
:1025A0000009D8A4D6EF12F0D8EF12F0B5EF12F070
:1025B0001200DFEC13F026EC13F0A5EC13F0070E7D
:1025C000CA6E9B0ECB6E0C0EBD6EC3EC13F08984ED
:1025D00089868988898AD8EC11F0000E6F6E000E0A
:1025E0000001FE6F000EFD6F000EFC6FD6EC13F0C5
:1025F000E7EC13F01200CF0EBD1601C003F0030E7E
:1026000003160338F00BBD1201C003F002C004F042
:10261000D89004320332D890043203320350BE6E95
:10262000120082A016EF13F018EF13F019EF13F059
:10263000662A060E66641FEF13F021EF13F025EFF4
:1026400013F0594A5A2A000E666E1200C30E926E9B
:102650003F0E936EDB0E946E000E956EF80E966E26
:10266000000E896E000E8A6E200E8B6E000E8C6E30
:1026700012000001816F848200018151D1EC13F0BE
:102680008494210EE82EFED700F08492210EE82ECD
:10269000FED700F08482120059C001F05AC002F047
:1026A000000E046E640E036E5FEC13F001C0F6F0D2
:1026B00002C0F7F0000E5A6E000E596E1200015063
:1026C0000302F3CF05F0F4CF06F001500402F350FB
:1026D000062602500302F350062605C001F006C08C
:1026E00002F012004142434445464748494A00002F
:1026F00000000000003F065B4F666D7D077F6F772F
:102700007C395E797100026E84820250E3EC13F032
:102710008494210EE82EFED700F08492210EE82E3C
:10272000FED700F084821200026E84820250E3EC35
:1027300013F08484210EE82EFED700F08492210E3F
:10274000E82EFED700F084821200900EF26E050E85
:10275000F16ED80EF06EC90ED56E000ED76E060E55
:10276000D66E12004142434445464748494A00005C
:05277000000000000064
:10277600D9EC12F0C1EC0EF0BDEF13F007EF00F04C
:10278600010EC26E0D0EC16E910EC06E1200016E6C
:102796000144E846FC0B0109C26E12000001806F7D
:1027A60080C083FF1200F28A9D8CF29CF28E12008A
:1027B6000100010001000100D09EF29EF29C120071
:1027C600016E01C083FF1200C2821200C282120093
:020000040020DA
:08000000FFFFFFFFFFFFFFFF00
:020000040030CA
:0E000000FF021F1EFF8381FF0FC00FE00F40A5
:00000001FF
