:0400000007EF00F016
:10000800318296ED03F073EF04F083EF00F0000EF9
:10001800286E010E276E140E1C6EC8EF00F0000E3D
:10002800286E020E276E010E1C6EC8EF00F0000E3F
:10003800286E040E276E020E1C6EC8EF00F0000E2C
:10004800286E050E276E040E1C6EC8EF00F0000E19
:10005800286E070E276E050E1C6EC8EF00F0000E06
:10006800286E080E276E070E1C6EC8EF00F0010EF2
:10007800286E000E276E080E1C6EC8EF00F0010EE9
:10008800286E010E276E0A0E1C6EC8EF00F0010ED6
:10009800286E030E276E0B0E1C6EC8EF00F0010EC3
:1000A800286E040E276E0D0E1C6EC8EF00F0010EB0
:1000B800286E060E276E0E0E1C6EC8EF00F0010E9D
:1000C800286E070E276E100E1C6EC8EF00F0010E8A
:1000D800286E090E276E110E1C6EC8EF00F0020E76
:1000E800286E000E276E130E1C6EC8EF00F0000E6F
:1000F800286E000E276E140E1C6EC8EF00F01C5000
:100108002D6E2E6A2E50000AD8B48DEF00F07BEFCA
:1001180000F02D50010AD8B40BEF00F0030AD8B450
:1001280013EF00F0060AD8B41BEF00F0010AD8B4A8
:1001380023EF00F0020AD8B42BEF00F00F0AD8B46E
:1001480033EF00F0020AD8B43BEF00F0010AD8B44C
:1001580043EF00F0060AD8B44BEF00F0030AD8B416
:1001680053EF00F01E0AD8B45BEF00F0010AD8B4D0
:1001780063EF00F0020AD8B46BEF00F0070AD8B4B6
:1001880073EF00F07BEF00F0120043EF01F0000E78
:10019800286E010E276E020E1C6E88EF01F0000E0D
:1001A800286E020E276E040E1C6E88EF01F0000EFA
:1001B800286E040E276E050E1C6E88EF01F0000EE7
:1001C800286E050E276E070E1C6E88EF01F0000ED4
:1001D800286E070E276E080E1C6E88EF01F0000EC1
:1001E800286E080E276E0A0E1C6E88EF01F0010EAD
:1001F800286E000E276E0B0E1C6E88EF01F0010EA4
:10020800286E010E276E0D0E1C6E88EF01F0010E90
:10021800286E030E276E0E0E1C6E88EF01F0010E7D
:10022800286E040E276E100E1C6E88EF01F0010E6A
:10023800286E060E276E110E1C6E88EF01F0010E57
:10024800286E070E276E130E1C6E88EF01F0010E44
:10025800286E090E276E140E1C6E88EF01F0020E30
:10026800286E000E276E010E1C6E88EF01F0000E3E
:10027800286E000E276E000E1C6E88EF01F01C50D1
:100288002D6E2E6A2E50000AD8B44DEF01F03BEFC8
:1002980001F02D50010AD8B4CBEF00F0030AD8B40E
:1002A800D3EF00F0060AD8B4DBEF00F0010AD8B4A7
:1002B800E3EF00F0020AD8B4EBEF00F00F0AD8B46D
:1002C800F3EF00F0020AD8B4FBEF00F0010AD8B44B
:1002D80003EF01F0060AD8B40BEF01F0030AD8B413
:1002E80013EF01F01E0AD8B41BEF01F0010AD8B4CD
:1002F80023EF01F0020AD8B42BEF01F0070AD8B4B3
:1003080033EF01F03BEF01F01200FBEF01F0000EBC
:10031800266E000E256E010E246E3CEF02F0000ED4
:10032800266E010E256E040E246E3CEF02F0000EC0
:10033800266E040E256E060E246E3CEF02F0000EAB
:10034800266E060E256E080E246E3CEF02F0000E97
:10035800266E080E256E090E246E3CEF02F0000E84
:10036800266E090E256E0A0E246E3CEF02F0000E72
:10037800266E0A0E256E0C0E246E3CEF02F0000E5F
:10038800266E0C0E256E0E0E246E3CEF02F0000E4B
:10039800266E0E0E256E0F0E246E3CEF02F0000E38
:1003A800266E0F0E256E100E246E3CEF02F0010E25
:1003B800266E000E256E120E246E3CEF02F0010E22
:1003C800266E020E256E140E246E3CEF02F0010E0E
:1003D800266E040E256E000E246E3CEF02F0000E11
:1003E800266E000E256E000E246E3CEF02F024509F
:1003F8002D6E2E6A2E50000AD8B405EF02F0F3EFE6
:1004080001F02D50000AD8B48BEF01F0010AD8B4DE
:1004180093EF01F0050AD8B49BEF01F0020AD8B4B3
:10042800A3EF01F00E0AD8B4ABEF01F0010AD8B47B
:10043800B3EF01F0030AD8B4BBEF01F0060AD8B451
:10044800C3EF01F0020AD8B4CBEF01F0010AD8B427
:10045800D3EF01F01F0AD8B4DBEF01F0020AD8B4D9
:10046800E3EF01F0060AD8B4EBEF01F0F3EF01F087
:100478001200A7EF02F0000E266E000E256E140E75
:10048800246EE8EF02F0000E266E010E256E000EB7
:10049800246EE8EF02F0000E266E040E256E010EA3
:1004A800246EE8EF02F0000E266E060E256E040E8E
:1004B800246EE8EF02F0000E266E080E256E060E7A
:1004C800246EE8EF02F0000E266E090E256E080E67
:1004D800246EE8EF02F0000E266E0A0E256E090E55
:1004E800246EE8EF02F0000E266E0C0E256E0A0E42
:1004F800246EE8EF02F0000E266E0E0E256E0C0E2E
:10050800246EE8EF02F0000E266E0F0E256E0E0E1A
:10051800246EE8EF02F0010E266E000E256E0F0E17
:10052800246EE8EF02F0010E266E020E256E100E04
:10053800246EE8EF02F0010E266E040E256E120EF0
:10054800246EE8EF02F024502D6E2E6A2E50000A19
:10055800D8B4B1EF02F03FEF02F02D50000AD8B442
:100568003FEF02F0010AD8B447EF02F0050AD8B409
:100578004FEF02F0020AD8B457EF02F00E0AD8B4CF
:100588005FEF02F0010AD8B467EF02F0030AD8B4AB
:100598006FEF02F0060AD8B477EF02F0020AD8B477
:1005A8007FEF02F0010AD8B487EF02F01F0AD8B42F
:1005B8008FEF02F0020AD8B497EF02F0060AD8B417
:1005C8009FEF02F03FEF02F0120023EF03F089845F
:1005D800899A010E2824D96EDA6A000EDA22DF50D1
:1005E8008C6E010E206E40EF03F089948986010E0F
:1005F8002724D96EDA6A000EDA22DF508C6E020EDA
:10060800206E40EF03F089968988010E2624D96E62
:10061800DA6A000EDA22DF508C6E030E206E40EF8D
:1006280003F08998898A010E2524D96EDA6A000EAA
:10063800DA22DF508C6E000E206E40EF03F020505F
:100648002D6E2E6A2E50000AD8B42DEF03F040EF1D
:1006580003F02D50000AD8B4EBEF02F0010AD8B429
:10066800F9EF02F0030AD8B407EF03F0010AD8B48F
:1006780015EF03F040EF03F01200195007E1050EE3
:10068800185CD8B04AEF03F04CEF03F050EF03F0DA
:10069800184A192A56EF03F0E9EC02F0000E196E19
:1006A800010E186E2B50165C2C501758D8B05FEFFF
:1006B80003F061EF03F065EF03F0164A172A6BEFBA
:1006C80003F0A7EC04F0000E176E010E166E295009
:1006D800145C2A501558D8B074EF03F076EF03F085
:1006E8007AEF03F0144A152A80EF03F090EC04F037
:1006F800000E156E010E146E135007E10A0E125CFF
:10070800D8B089EF03F08BEF03F08FEF03F0124AB4
:10071800132A95EF03F0E2EC03F0000E136E010EBE
:10072800126E12000600D9CF2FF0DACF30F0F2A403
:10073800A0EF03F0A2EF03F0A9EF03F0000ED76ECD
:10074800060ED66E41EC03F0F294F2A2AEEF03F07F
:10075800B0EF03F0BAEF03F0F2A8B5EF03F0B7EF8C
:1007680003F0BAEF03F04FEC04F0F292F0A0BFEF01
:1007780003F0C1EF03F0CBEF03F0F0A6C6EF03F0F0
:10078800C8EF03F0CBEF03F02BEC04F0F090F0A2ED
:10079800D0EF03F0D2EF03F0DCEF03F0F0A8D7EFCF
:1007A80003F0D9EF03F0DCEF03F007EC04F0F0926C
:1007B80030C0DAFF2FC0D9FF3192110081CF2DF060
:1007C8002DA6E9EF03F0EBEF03F0F1EF03F0020ED3
:1007D8002C6E580E2B6EF5EF03F0010E2C6E2C0EBE
:1007E8002B6E2DA8FAEF03F0FCEF03F002EF04F0F4
:1007F800030E2A6EE80E296E06EF04F0010E2A6E2B
:10080800F40E296E120015EF04F0000E226E010E90
:100818001D6E2AEF04F0010E226E000E1D6E2AEFE7
:1008280004F01D502D6E2E6A2E50000AD8B41FEF0A
:1008380004F02AEF04F02D50000AD8B409EF04F0B0
:10084800010AD8B40FEF04F02AEF04F0120039EFD0
:1008580004F0000E236E010E1E6E4EEF04F0010E22
:10086800236E000E1E6E4EEF04F01E502D6E2E6A83
:100878002E50000AD8B443EF04F04EEF04F02D5088
:10088800000AD8B42DEF04F0010AD8B433EF04F00D
:100898004EEF04F012005DEF04F0000E216E010E21
:1008A8001F6E72EF04F0010E216E000E1F6E72EFC4
:1008B80004F01F502D6E2E6A2E50000AD8B467EF30
:1008C80004F072EF04F02D50000AD8B451EF04F090
:1008D800010AD8B457EF04F072EF04F01200C40E06
:1008E800F66E090EF76E000EF86E00EE01F010EECF
:1008F8001CF00900F5CFEEFFE550E150FAE100EEFB
:100908001DF00C0EEE6AE806FDE131903192000E02
:10091800F86E0001FDEF04F02150D8A496EF04F022
:1009280098EF04F0A6EF04F02250D8A49EEF04F04C
:10093800A0EF04F0A4EF04F089EC01F0A6EF04F0B6
:100948003DEC02F012002150D8A4ADEF04F0AFEF57
:1009580004F0BDEF04F02350D8A4B5EF04F0B7EFCE
:1009680004F0BBEF04F0C9EC00F0BDEF04F009ECB3
:1009780000F0120005EC05F0D3EC04F0F0EC04F004
:10098800898489868988898A010E2C6E2C0E2B6EA3
:10099800010E2A6EF40E296E09EC05F012000F0EF6
:1009A800C16EC30E926E1F0E936E000E956E000EF2
:1009B800896E000E8C6E000E8A6E12003F065B4F29
:1009C800666D7D077F6F777C395E79710001000164
:1009D8000001000100010101900EF26E050EF16E9A
:1009E800D80EF06EC10ED56E000ED76E060ED66EFE
:1009F8001200BEEC04F00CEC05F0FFEF04F007EF7A
:100A080000F0D09EF29EF29C1200F28AF28E120042
:020A18001200CA
:020000040020DA
:08000000FFFFFFFFFFFFFFFF00
:020000040030CA
:0E000000FF021F1EFF8381FF0FC00FE00F40A5
:00000001FF
