:0400000007EF00F016
:100008001F8269ED00F01DEF01F04BEF00F08984CD
:1000180089968998899A010E1A24D96EDA6A000E8F
:10002800DA22DF508C6E010E166E68EF00F08994AC
:1000380089868998899A010E1824D96EDA6A000E81
:10004800DA22DF508C6E020E166E68EF00F089948B
:1000580089968988899A010E1924D96EDA6A000E60
:10006800DA22DF508C6E030E166E68EF00F089946A
:1000780089968998898A010E1724D96EDA6A000E42
:10008800DA22DF508C6E000E166E68EF00F0165004
:100098001B6E1C6A1C50000AD8B455EF00F068EFBC
:1000A80000F01B50000AD8B40BEF00F0010AD8B4D6
:1000B8001BEF00F0030AD8B42BEF00F0010AD8B404
:1000C8003BEF00F068EF00F012000600D9CF1DF0FA
:1000D800DACF1EF0F2A473EF00F075EF00F07CEFBA
:1000E80000F0000ED76E060ED66EF2EC00F0F29419
:1000F800F2A281EF00F083EF00F08DEF00F0F2A89C
:1001080088EF00F08AEF00F08DEF00F07FEC01F04F
:10011800F292F0A092EF00F094EF00F09EEF00F062
:10012800F0A699EF00F09BEF00F09EEF00F07EEC58
:1001380001F0F090F0A2A3EF00F0A5EF00F0AFEF10
:1001480000F0F0A8AAEF00F0ACEF00F0AFEF00F07D
:100158007DEC01F0F0921EC0DAFF1DC0D9FF1F929E
:100168001100182A1706090E1864BDEF00F0BFEF3A
:1001780000F0C2EF00F01A2A000E186E1750D8B41B
:10018800C8EF00F0CAEF00F0D2EF00F01728D8A4AB
:10019800D0EF00F0D2EF00F0D5EF00F01906090E0D
:1001A800176E090E1A64DBEF00F0DDEF00F0DFEFE9
:1001B80000F0000E1A6E1950D8B4E5EF00F0E7EF22
:1001C80000F0EFEF00F01928D8A4EDEF00F0EFEF02
:1001D80000F0F1EF00F0090E196E1200155007E15A
:1001E800050E145CD8B0FBEF00F0FDEF00F001EF56
:1001F80001F0144A152A07EF01F009EC00F0000E8F
:10020800156E010E146EF40E125C010E1358D8B060
:1002180010EF01F012EF01F016EF01F0124A132A65
:100228001CEF01F0B5EC00F0000E136E010E126E1B
:100238001200C40EF66E020EF76E000EF86E00EE97
:1002480001F010EE15F00900F5CFEEFFE550E15092
:10025800FAE11A6A196A186A176A166A1F901F92D1
:10026800000EF86E00016DEF01F00F0EC16EC30EA7
:10027800926E030E936E000E956E000E896E000E40
:100288008C6E000E8A6E120075EC01F039EC01F0EC
:1002980055EC01F0898489868988898A79EC01F08E
:1002A8001200900EF26E050EF16ED80EF06EC10EB1
:1002B800D56E000ED76E060ED66E12003F065B4F47
:1002C800666D7D077F6F777C395E7971000100016B
:0102D8000025
:1002DA0048EC01F07CEC01F06FEF01F007EF00F061
:1002EA00D09EF29EF29C1200F28AF28E1200120046
:0602FA00120012001200C8
:020000040020DA
:08000000FFFFFFFFFFFFFFFF00
:020000040030CA
:0E000000FF021F1EFF8381FF0FC00FE00F40A5
:00000001FF
