:0400000007EF00F016
:100008003982A1ED02F0FFEF04F07BEF00F0000E63
:10001800296E000E2A6E520E276EBCEF00F0030EFA
:10002800296E060E2A6E000E276EBCEF00F0060E33
:10003800296E040E2A6E3F0E276EBCEF00F0050EE7
:10004800296E010E2A6E2E0E276EBCEF00F0050EEB
:10005800296E020E2A6E0F0E276EBCEF00F0000EFE
:10006800296E060E2A6E190E276EBCEF00F0020EDE
:10007800296E010E2A6E3C0E276EBCEF00F0040EAE
:10008800296E060E2A6E0C0E276EBCEF00F0070EC6
:10009800296E040E2A6E400E276EBCEF00F0040E87
:1000A800296E070E2A6E2F0E276EBCEF00F0080E81
:1000B800296E060E2A6E4A0E276EBCEF00F0080E57
:1000C800296E020E2A6E440E276EBCEF00F0020E57
:1000D800296E080E2A6E1C0E276EBCEF00F0000E6B
:1000E800296E000E2A6E000E276EBCEF00F0275016
:1000F8002D6E2E6A2E50000AD8B485EF00F073EFEB
:1001080000F02D50000AD8B40BEF00F00C0AD8B458
:100118003BEF00F0030AD8B423EF00F0160AD8B476
:100128002BEF00F0050AD8B463EF00F0320AD8B418
:100138001BEF00F0010AD8B44BEF00F0130AD8B453
:1001480033EF00F0030AD8B413EF00F07F0AD8B4F5
:1001580043EF00F0040AD8B45BEF00F00E0AD8B4FD
:1001680053EF00F0180AD8B46BEF00F073EF00F00B
:1001780012002FEF01F0000E296E000E2A6E3F0EBE
:10018800276E70EF01F0030E296E060E2A6E2E0EF2
:10019800276E70EF01F0060E296E040E2A6E0F0E00
:1001A800276E70EF01F0050E296E010E2A6E190EEA
:1001B800276E70EF01F0050E296E020E2A6E3C0EB6
:1001C800276E70EF01F0000E296E060E2A6E0C0ED7
:1001D800276E70EF01F0020E296E010E2A6E400E96
:1001E800276E70EF01F0040E296E060E2A6E2F0E90
:1001F800276E70EF01F0070E296E040E2A6E4A0E64
:10020800276E70EF01F0040E296E070E2A6E440E59
:10021800276E70EF01F0080E296E060E2A6E1C0E6E
:10022800276E70EF01F0080E296E020E2A6E520E2C
:10023800276E70EF01F0020E296E080E2A6E000E6E
:10024800276E70EF01F0000E296E000E2A6E000E68
:10025800276E70EF01F027502D6E2E6A2E50000A7F
:10026800D8B439EF01F027EF01F02D50000AD8B4C7
:10027800BFEF00F00C0AD8B4EFEF00F0030AD8B4CF
:10028800D7EF00F0160AD8B4DFEF00F0050AD8B4AB
:1002980017EF01F0320AD8B4CFEF00F0010AD8B452
:1002A800FFEF00F0130AD8B4E7EF00F0030AD8B460
:1002B800C7EF00F07F0AD8B4F7EF00F0040AD8B40B
:1002C8000FEF01F00E0AD8B407EF01F0180AD8B4FE
:1002D8001FEF01F027EF01F01200C7EF01F0000E49
:1002E800286E020E266E08EF02F00C0E286E000E25
:1002F800266E08EF02F0080E286E0C0E266E08EF28
:1003080002F0090E286E080E266E08EF02F00E0E97
:10031800286E090E266E08EF02F0010E286E0E0EEA
:10032800266E08EF02F0050E286E010E266E08EF05
:1003380002F00A0E286E050E266E08EF02F0040E73
:10034800286E0A0E266E08EF02F00F0E286E040EB5
:10035800266E08EF02F0030E286E0F0E266E08EFC9
:1003680002F0060E286E030E266E08EF02F0020E4B
:10037800286E060E266E08EF02F0000E286E000E9C
:10038800266E08EF02F026502D6E2E6A2E50000AB7
:10039800D8B4D1EF01F0C1EF01F02D50000AD8B464
:1003A80073EF01F0010AD8B491EF01F0030AD8B451
:1003B800BBEF01F0010AD8B4AFEF01F0070AD8B4D7
:1003C800A3EF01F0010AD8B497EF01F0030AD8B4FB
:1003D800B5EF01F00E0AD8B47FEF01F0010AD8B4E6
:1003E80085EF01F0030AD8B49DEF01F0060AD8B4EE
:1003F80079EF01F0020AD8B48BEF01F0010AD8B402
:10040800A9EF01F0C1EF01F012005FEF02F0000E5A
:10041800286E0C0E266EA0EF02F00C0E286E080E49
:10042800266EA0EF02F0080E286E090E266EA0EFC9
:1004380002F0090E286E0E0E266EA0EF02F00E0EC8
:10044800286E010E266EA0EF02F0010E286E050E32
:10045800266EA0EF02F0050E286E0A0E266EA0EF9B
:1004680002F00A0E286E040E266EA0EF02F0040EAB
:10047800286E0F0E266EA0EF02F00F0E286E030EE8
:10048800266EA0EF02F0030E286E060E266EA0EF71
:1004980002F0060E286E020E266EA0EF02F0020E83
:1004A800286E000E266EA0EF02F0000E286E000ED9
:1004B800266EA0EF02F026502D6E2E6A2E50000AEE
:1004C800D8B469EF02F059EF02F02D50000AD8B401
:1004D8000BEF02F0010AD8B429EF02F0030AD8B4EE
:1004E80053EF02F0010AD8B447EF02F0070AD8B474
:1004F8003BEF02F0010AD8B42FEF02F0030AD8B498
:100508004DEF02F00E0AD8B417EF02F0010AD8B482
:100518001DEF02F0030AD8B435EF02F0060AD8B48A
:1005280011EF02F0020AD8B423EF02F0010AD8B49E
:1005380041EF02F059EF02F012000600D9CF30F077
:10054800DACF31F0F2A4ABEF02F0ADEF02F0B4EF86
:1005580002F0000ED76E060ED66EFEEC02F0F29494
:10056800F2A2B9EF02F0BBEF02F0C5EF02F0F2A879
:10057800C0EF02F0C2EF02F0C5EF02F0DBEC04F0CE
:10058800F292F0A0CAEF02F0CCEF02F0D6EF02F040
:10059800F0A6D1EF02F0D3EF02F0D6EF02F078EC3C
:1005A80005F0F090F0A2DBEF02F0DDEF02F0E7EFEC
:1005B80002F0F0A8E2EF02F0E4EF02F0E7EF02F059
:1005C80063EC05F0F0929EACECEF02F0EEEF02F077
:1005D800F8EF02F09DACF3EF02F0F5EF02F0F8EF60
:1005E80002F0ADEC04F09E9C31C0DAFF30C0D9FFB8
:1005F80039921100195007E1050E185CD8B007EFC1
:1006080003F009EF03F00DEF03F0184A192A13EF6E
:1006180003F057EC03F0000E196E010E186E3750F8
:10062800165C38501758D8B01CEF03F01EEF03F0D3
:1006380022EF03F0164A172A28EF03F04CEC05F0D6
:10064800000E176E010E166E3550145C3650155894
:10065800D8B031EF03F033EF03F037EF03F0144A6B
:10066800152A3DEF03F035EC05F0000E156E010E6E
:10067800146E135007E10A0E125CD8B046EF03F06F
:1006880048EF03F04CEF03F0124A132A56EF03F039
:10069800AFEC03F000EC04F043EC04F0000E136E32
:1006A800010E126E120091EF03F08984899A010EEF
:1006B8002B24D96EDA6A000EDA22DF508C6E010E16
:1006C800256EAEEF03F089948986010E2A24D96E2F
:1006D800DA6A000EDA22DF508C6E020E256EAEEF5B
:1006E80003F089968988010E2924D96EDA6A000EEA
:1006F800DA22DF508C6E030E256EAEEF03F0899878
:10070800898A010E2824D96EDA6A000EDA22DF50AF
:100718008C6E000E256EAEEF03F025502D6E2E6AFE
:100728002E50000AD8B49BEF03F0AEEF03F02D5023
:10073800000AD8B459EF03F0010AD8B467EF03F000
:10074800030AD8B475EF03F0010AD8B483EF03F0B5
:10075800AEEF03F012002450D8A4B5EF03F0B7EFC2
:1007680003F0C3EF03F02350D8A4BDEF03F0BFEFAD
:1007780003F0C3EF03F0030E2B6EFFEF03F02450DA
:10078800D8A4C9EF03F0CBEF03F0D7EF03F0235061
:10079800D8B4D1EF03F0D3EF03F0D7EF03F0020E94
:1007A8002B6EFFEF03F02450D8B4DDEF03F0DFEF3A
:1007B80003F0EBEF03F02350D8A4E5EF03F0E7EFE5
:1007C80003F0EBEF03F0010E2B6EFFEF03F0245064
:1007D800D8B4F1EF03F0F3EF03F0FFEF03F0235089
:1007E800D8B4F9EF03F0FBEF03F0FFEF03F0000ECE
:1007F8002B6EFFEF03F012001C50D8B406EF04F084
:1008080008EF04F00BEF04F08A8E0CEF04F08A9ED8
:100818002450D8A412EF04F014EF04F017EF04F0FA
:100828008A8C18EF04F08A9C2350D8A41EEF04F099
:1008380020EF04F023EF04F08A8A24EF04F08A9A68
:100848002C0E371806E13804D8A42DEF04F02FEF4A
:1008580004F032EF04F08A8833EF04F08A982C0E03
:10086800351806E13604D8A43CEF04F03EEF04F056
:1008780041EF04F08A8642EF04F08A9612001D4484
:10088800E846030B226E61EF04F0000E246E000EA2
:10089800236E7EEF04F0000E246E010E236E7EEFB1
:1008A80004F0010E246E000E236E7EEF04F0010E9C
:1008B800246E010E236E7EEF04F022502D6E2E6AF8
:1008C8002E50000AD8B46BEF04F07EEF04F02D50E0
:1008D800000AD8B449EF04F0010AD8B44FEF04F085
:1008E800030AD8B455EF04F0010AD8B45BEF04F05A
:1008F8007EEF04F0120097EF04F0C4CF1DF0010E54
:10090800C4EC05F0DBEC05F0010E2C6EACEF04F046
:10091800C4CF1EF0000EC4EC05F0DBEC05F0000EB1
:100928002C6EACEF04F02C50336E346A3450000A4D
:10093800D8B4A1EF04F0ACEF04F03350000AD8B4F7
:1009480081EF04F0010AD8B48CEF04F0ACEF04F0A6
:100958001200C5EF04F0C4CF1DF0010ECBEC05F07A
:10096800DDEC05F0010E2C6EDAEF04F0C4CF1EF0BA
:10097800000ECBEC05F0DDEC05F0000E2C6EDAEF86
:1009880004F02C502E6E2F6A2F50000AD8B4CFEFE7
:1009980004F0DAEF04F02E50000AD8B4AFEF04F0F8
:1009A800010AD8B4BAEF04F0DAEF04F01200E9EF64
:1009B80004F0000E1C6E010E216EFEEF04F0010E15
:1009C8001C6E000E216EFEEF04F021502D6E2E6A73
:1009D8002E50000AD8B4F3EF04F0FEEF04F02D50C7
:1009E800000AD8B4DDEF04F0010AD8B4E3EF04F04C
:1009F800FEEF04F012001A0EF66E0B0EF76E000EE4
:100A0800F86E00EE01F010EE1CF00900F5CFEEFFD5
:100A1800E550E150FAE100EE1DF0100EEE6AE8062E
:100A2800FDE139903992000EF86E0001B5EF05F03E
:100A3800D7EC05F09BEC05F0A8EC05F0BDEC05F053
:100A4800898489868988898A010E386E2C0E376ECA
:100A5800010E366E2C0E356E7FEC04F0D2EC05F0EC
:100A680012001C50D8A43BEF05F03DEF05F04BEF0A
:100A780005F02350D8A443EF05F045EF05F049EF02
:100A880005F009EC02F04BEF05F071EC01F01200F3
:100A98001C50D8A452EF05F054EF05F062EF05F0B2
:100AA8002450D8A45AEF05F05CEF05F060EF05F08C
:100AB800BDEC00F062EF05F009EC00F01200010E49
:100AC8001F1A1F50D8A46BEF05F06DEF05F073EFF8
:100AD80005F0010E366E2C0E356E77EF05F0020E1E
:100AE800366E580E356E1200010E201A2050D8A40A
:100AF80080EF05F082EF05F088EF05F0010E386E03
:100B08002C0E376E8CEF05F0020E386E580E376ECD
:100B180012003F065B4F666D7D077F6F777C395EFD
:100B28007971000100010001000100010101C30EFB
:100B3800926E070E936E000E956E000E896E000E73
:100B48008C6E000E8A6E1200900EF26E050EF16E1B
:100B5800D80EF06EC10ED56E000ED76E060ED66E8C
:100B680012001CEC05F0DFEC05F0B7EF05F007EF1D
:100B780000F0010EC26E0D0EC16E140EC06E120092
:100B8800326E3244E846FC0B0109C26E12002D6E2B
:100B98002D44E846FC0B0109C26E1200F28A9D8CB6
:100BA800F28CF28E1200D09EF29EF29C1200C2824B
:080BB8001200C28212001200BB
:020000040020DA
:08000000FFFFFFFFFFFFFFFF00
:020000040030CA
:0E000000FF021F1EFF8381FF0FC00FE00F40A5
:00000001FF
