:0400000007EF00F016
:100008003A82FCED03F06BEF04F063EF00F0020EB0
:100018002A6E000E296E3E0E276E98EF00F0010E34
:100028002A6E020E296E140E276E98EF00F0080E45
:100038002A6E010E296E0C0E276E98EF00F0030E43
:100048002A6E010E296E510E276E98EF00F0070EEA
:100058002A6E050E296E1F0E276E98EF00F0060E09
:100068002A6E050E296E4B0E276E98EF00F0090ECA
:100078002A6E000E296E410E276E98EF00F0010ED1
:100088002A6E060E296E5A0E276E98EF00F0050E9E
:100098002A6E080E296E100E276E98EF00F0060ED5
:1000A8002A6E020E296E3A0E276E98EF00F0010EA6
:1000B8002A6E060E296E100E276E98EF00F0275054
:1000C8002E6E2F6A2F50000AD8B46DEF00F05BEF48
:1000D80000F02E500C0AD8B413EF00F01C0AD8B464
:1000E80043EF00F0040AD8B40BEF00F00B0AD8B4C1
:1000F80023EF00F0250AD8B44BEF00F0040AD8B477
:1001080053EF00F07F0AD8B433EF00F00A0AD8B4EE
:100118002BEF00F01A0AD8B41BEF00F00B0AD8B482
:100128003BEF00F05BEF00F01200F3EF00F0020E7F
:100138002A6E000E296E0C0E276E28EF01F0010EB4
:100148002A6E020E296E510E276E28EF01F0080E56
:100158002A6E010E296E1F0E276E28EF01F0030E7E
:100168002A6E010E296E4B0E276E28EF01F0070E3E
:100178002A6E050E296E410E276E28EF01F0060E35
:100188002A6E050E296E5A0E276E28EF01F0090E09
:100198002A6E000E296E100E276E28EF01F0010E50
:1001A8002A6E060E296E3A0E276E28EF01F0050E0C
:1001B8002A6E080E296E3E0E276E28EF01F0060EF5
:1001C8002A6E020E296E140E276E28EF01F0010E1A
:1001D8002A6E060E296E100E276E28EF01F02750A2
:1001E8002E6E2F6A2F50000AD8B4FDEF00F0EBEF07
:1001F80000F02E500C0AD8B4A3EF00F01C0AD8B4B3
:10020800D3EF00F0040AD8B49BEF00F00B0AD8B47F
:10021800B3EF00F0250AD8B4DBEF00F0040AD8B435
:10022800E3EF00F07F0AD8B4C3EF00F00A0AD8B4AD
:10023800BBEF00F01A0AD8B4ABEF00F00B0AD8B441
:10024800CBEF00F0EBEF00F0120083EF01F0010EAE
:100258002C6E030E2B6E290E286EB8EF01F0020EDD
:100268002C6E090E2B6E0D0E286EB8EF01F0020EE3
:100278002C6E070E2B6E1D0E286EB8EF01F0040EC3
:100288002C6E070E2B6E1B0E286EB8EF01F0050EB4
:100298002C6E020E2B6E2F0E286EB8EF01F0050E95
:1002A8002C6E010E2B6E340E286EB8EF01F0080E7E
:1002B8002C6E030E2B6E330E286EB8EF01F0070E6E
:1002C8002C6E080E2B6E530E286EB8EF01F0050E3B
:1002D8002C6E000E2B6E4E0E286EB8EF01F0040E39
:1002E8002C6E010E2B6E320E286EB8EF01F0020E46
:1002F8002C6E070E2B6E1B0E286EB8EF01F02850DF
:100308002E6E2F6A2F50000AD8B48DEF01F07BEFC4
:1003180001F02E500D0AD8B42BEF01F0160AD8B40C
:100328003BEF01F0060AD8B433EF01F0340AD8B431
:1003380073EF01F0060AD8B443EF01F01D0AD8B4F0
:100348006BEF01F0010AD8B453EF01F0070AD8B4F3
:100358004BEF01F07A0AD8B463EF01F01D0AD8B464
:100368005BEF01F07BEF01F0120013EF02F0010EDA
:100378002C6E030E2B6E1D0E286E48EF02F0020E37
:100388002C6E090E2B6E1B0E286E48EF02F0020E23
:100398002C6E070E2B6E2F0E286E48EF02F0040EFF
:1003A8002C6E070E2B6E340E286E48EF02F0050EE9
:1003B8002C6E020E2B6E330E286E48EF02F0050EDF
:1003C8002C6E010E2B6E530E286E48EF02F0080EAD
:1003D8002C6E030E2B6E4E0E286E48EF02F0070EA1
:1003E8002C6E080E2B6E320E286E48EF02F0050EAA
:1003F8002C6E000E2B6E290E286E48EF02F0040EAC
:100408002C6E010E2B6E0D0E286E48EF02F0020EB8
:100418002C6E070E2B6E1B0E286E48EF02F028502C
:100428002E6E2F6A2F50000AD8B41DEF02F00BEF82
:1004380002F02E500D0AD8B4BBEF01F0160AD8B45A
:10044800CBEF01F0060AD8B4C3EF01F0340AD8B4F0
:1004580003EF02F0060AD8B4D3EF01F01D0AD8B4AE
:10046800FBEF01F0010AD8B4E3EF01F0070AD8B4B2
:10047800DBEF01F07A0AD8B4F3EF01F01D0AD8B423
:10048800EBEF01F00BEF02F01200195007E1050E37
:10049800185CD8B052EF02F054EF02F058EF02F0B7
:1004A800184A192A5EEF02F0A2EC02F0000E196E4B
:1004B800010E186E3850165C39501758D8B067EFCF
:1004C80002F069EF02F06DEF02F0164A172A73EF97
:1004D80002F09FEC04F0000E176E010E166E3650F7
:1004E800145C37501558D8B07CEF02F07EEF02F05C
:1004F80082EF02F0144A152A88EF02F088EC04F023
:10050800000E156E010E146E135007E10A0E125CF0
:10051800D8B091EF02F093EF02F097EF02F0124A91
:10052800132AA1EF02F04FEC03F0FAEC02F092EC80
:1005380003F0000E136E010E126E1200DCEF02F0D3
:100548008984899A010E2C24D96EDA6A000EDA227F
:10055800DF508C6E010E266EF9EF02F089948986C1
:10056800010E2B24D96EDA6A000EDA22DF508C6E67
:10057800020E266EF9EF02F089968988010E2A2468
:10058800D96EDA6A000EDA22DF508C6E030E266E00
:10059800F9EF02F08998898A010E2924D96EDA6A5E
:1005A800000EDA22DF508C6E000E266EF9EF02F094
:1005B80026502E6E2F6A2F50000AD8B4E6EF02F0AC
:1005C800F9EF02F02E50000AD8B4A4EF02F0010AA5
:1005D800D8B4B2EF02F0030AD8B4C0EF02F0010AAF
:1005E800D8B4CEEF02F0F9EF02F0120081CF33F069
:1005F80033A601EF03F003EF03F007EF03F0010E5A
:10060800306E0DEF03F0000E306E010E396E2C0EB9
:10061800386E33A812EF03F014EF03F018EF03F06D
:10062800010E316E1AEF03F0000E316E33AA1FEF80
:1006380003F021EF03F025EF03F0010E326E27EFF0
:1006480003F0000E326E1C50305CD8B02EEF03F071
:1006580030EF03F032EF03F026EC04F01B50315C6E
:10066800D8B039EF03F03BEF03F03DEF03F0CBECEC
:1006780004F01A50325CD8B044EF03F046EF03F0B0
:1006880048EF03F0B6EC04F030C01CF031C01BF0AA
:1006980032C01AF012001D50D8B455EF03F057EFCE
:1006A80003F05AEF03F08A805BEF03F08A9025503D
:1006B800D8A461EF03F063EF03F066EF03F08A82DA
:1006C80067EF03F08A922450D8A46DEF03F06FEF20
:1006D80003F072EF03F08A8473EF03F08A942C0E10
:1006E800381806E13904D8A47CEF03F07EEF03F054
:1006F80081EF03F08A8C82EF03F08A9C2C0E361867
:1007080006E13704D8A48BEF03F08DEF03F090EFE8
:1007180003F08A8E91EF03F08A9E12001E44E84689
:10072800030B236EB0EF03F0000E256E000E246E4F
:10073800CDEF03F0000E256E010E246ECDEF03F011
:10074800010E256E000E246ECDEF03F0010E256E0E
:10075800010E246ECDEF03F023502E6E2F6A2F501A
:10076800000AD8B4BAEF03F0CDEF03F02E50000A18
:10077800D8B498EF03F0010AD8B49EEF03F0030A47
:10078800D8B4A4EF03F0010AD8B4AAEF03F0CDEF70
:1007980003F01200E6EF03F0C4CF1EF0010E18ECD0
:1007A80005F02AEC05F0010E2D6EFBEF03F0C4CF27
:1007B8001FF0000E18EC05F02AEC05F0000E2D6E67
:1007C800FBEF03F02D502F6E306A3050000AD8B47A
:1007D800F0EF03F0FBEF03F02F50000AD8B4D0EF8E
:1007E80003F0010AD8B4DBEF03F0FBEF03F01200CB
:1007F8000600D9CF34F0DACF35F0F2A406EF04F0D2
:1008080008EF04F00FEF04F0000ED76E060ED66E58
:1008180049EC02F0F2949EAC14EF04F016EF04F0E9
:1008280020EF04F09DAC1BEF04F01DEF04F020EF67
:1008380004F0CEEC03F09E9C35C0DAFF34C0D9FF3B
:100848003A92110034EF04F0000E1D6E010E226E74
:1008580049EF04F0010E1D6E000E226E49EF04F000
:1008680022502E6E2F6A2F50000AD8B43EEF04F0A3
:1008780049EF04F02E50000AD8B428EF04F0010A1A
:10088800D8B42EEF04F049EF04F0120024EC05F080
:10089800EFEC04F0FCEC04F011EC05F08984898697
:1008A8008988898A010E396E2C0E386E010E376ED2
:1008B8002C0E366E28EC05F0000E2C6E000E2B6EFA
:1008C800000E2A6E000E296E1FEC05F01200C00EF5
:1008D800F66E090EF76E000EF86E00EE01F010EEDF
:1008E8001DF00900F5CFEEFFE550E150FAE100EE0A
:1008F8001EF0100EEE6AE806FDE13A903A92000EFC
:10090800F86E000109EF05F01D50D8A48EEF04F031
:1009180090EF04F09EEF04F02450D8A496EF04F072
:1009280098EF04F09CEF04F099EC00F09EEF04F0CF
:1009380009EC00F012001D50D8A4A5EF04F0A7EFB1
:1009480004F0B5EF04F02550D8A4ADEF04F0AFEFF4
:1009580004F0B3EF04F0B9EC01F0B5EF04F029ECC2
:1009680001F01200010E201A2050D8A4BEEF04F0A6
:10097800C0EF04F0C6EF04F0010E376E2C0E366E91
:10098800CAEF04F0030E376E200E366E1200010E09
:10099800211A2150D8A4D3EF04F0D5EF04F0DBEFEF
:1009A80004F0010E396E2C0E386EDFEF04F0030EE2
:1009B800396E200E386E12003F065B4F666D7D075C
:1009C8007F6F777C395E79710001000100010001B9
:0509D800000101010116
:1009DE00C30E926E380E936E000E956E000E896EDB
:1009EE00000E8C6E000E8A6E1200900EF26E050EC8
:1009FE00F16ED80EF06EC10ED56E000ED76E060ECD
:100A0E00D66E12004AEC04F02CEC05F00BEF05F05C
:100A1E0007EF00F0010EC26E0D0EC16E140EC06E09
:100A2E0012002E6E2E44E846FC0B0109C26E120017
:100A3E00F28A9D8CF28CF28E1200D09EF29EF29C67
:0C0A4E001200C2821200C28212001200CC
:020000040020DA
:08000000FFFFFFFFFFFFFFFF00
:020000040030CA
:0E000000FF021F1EFF8381FF0FC00FE00F40A5
:00000001FF
