:0400000007EF00F016
:0A0008007B82C2ED14F0F3EF16F056
:100600000020202020256425250054454D50203D04
:0F06100020002020202030250020202020000066
:1006200000019B51800BA46F9B519B25AA6F9AAF31
:100630001CEF03F01EEF03F01FEF03F0AA81AA5195
:10064000D8B425EF03F027EF03F03AEF03F0AA291F
:10065000D8A42DEF03F02FEF03F037EF03F0000ED7
:10066000986F000E996F000E9A6F000E9B6F9A8F15
:1006700042EF03F0000E986F000E996F000E9A6F14
:10068000000E9B6F9F51800BA41B9F519F25A96F4C
:100690009EAF4DEF03F04FEF03F050EF03F0A98151
:1006A000A951D8B456EF03F058EF03F06BEF03F005
:1006B000A929D8A45EEF03F060EF03F068EF03F020
:1006C000000E9C6F000E9D6F000E9E6F000E9F6FC0
:1006D0009E8F73EF03F0000E9C6F000E9D6F000E57
:1006E0009E6F000E9F6FA951D8B479EF03F07BEF96
:1006F00003F083EF03F0AA51D8A481EF03F083EF56
:1007000003F08DEF03F0000E986F000E996F000E4E
:100710009A6F000E9B6F25EF05F09E519803F3CF63
:10072000AFF0F4CFB0F0AF51A56FA66BA76BA86B7D
:10073000B051AB6FAC6BAD6BAE6B9D519903F3CF0A
:10074000AFF0F4CFB0F0AF51A527000EA623A7233A
:10075000A823B051AB27000EAC23AD23AE239C5190
:100760009A03F3CFAFF0F4CFB0F0AF51A527000E4E
:10077000A623A723A823B051AB27000EAC23AD239B
:10078000AE23A7C0A8F0A6C0A7F0A5C0A6F0A56B91
:100790009C519903F3CFAFF0F4CFB0F0AF51A52740
:1007A000B051A623000EA723000EA8239D51980345
:1007B000F3CFAFF0F4CFB0F0AF51A527B051A623DF
:1007C000000EA723000EA823A7C0A8F0A6C0A7F07C
:1007D000A5C0A6F0A56B9C519803F3CFAFF0F4CF62
:1007E000B0F0AF51A527B051A623000EA723000EED
:1007F000A8239E519903F3CFAFF0F4CFB0F0AF51DF
:10080000AB27B051AC23000EAD23000EAE239D519B
:100810009A03F3CFAFF0F4CFB0F0AF51AB27B051A4
:10082000AC23000EAD23000EAE239E519A03F3CFEE
:10083000AFF0F4CFB0F0AF51A06FB051A16FA26B89
:10084000A36BA2C0A3F0A1C0A2F0A0C0A1F0A06BB6
:10085000A051AB27A151AC23A251AD23A351AE238C
:10086000A5C0A0F0A6C0A1F0A7C0A2F0A8C0A3F0A8
:10087000190E40EF04F0D890A333A233A133A03374
:10088000E82E3BEF04F0A051AB27A151AC23A251BD
:10089000AD23A351AE23A7C0A8F0A6C0A7F0A5C062
:1008A000A6F0A56BA951AAC0A0F0A16BA027000ECD
:1008B000A123820EA025AF6FFF0EA121B06F76EFAE
:1008C00004F0D890AB37AC37AD37AE37A8AF6BEF8D
:1008D00004F06DEF04F06EEF04F0AB81D890A53713
:1008E000A637A737A837AF07D8A0B007ADAF7BEFC3
:1008F00004F07DEF04F061EF04F0000EA96FA8AFE3
:1009000084EF04F086EF04F0AAEF04F0FF0EA515C3
:10091000A06FFF0EA615A16FFF0EA715A26F7F0E89
:10092000A815A36FA051A111A211A311D8B49BEFD8
:1009300004F09DEF04F0A1EF04F0010EA96FAAEFFF
:1009400004F0ABA1A6EF04F0A8EF04F0AAEF04F0C6
:100950009DEF04F0A951D8B4B0EF04F0B2EF04F069
:10096000D6EF04F0010EAB27000EAC23AD23AE236F
:10097000AEA1BDEF04F0BFEF04F0D6EF04F0ABC0C2
:10098000A0F0ACC0A1F0ADC0A2F0AEC0A3F0A33502
:10099000A333A233A133A033A0C0ABF0A1C0ACF00D
:1009A000A2C0ADF0A3C0AEF0AF4BB02BB0BFE1EF33
:1009B00004F0B05108E1AF29D8A0E1EF04F0E3EF73
:1009C00004F0EDEF04F0000EAB6F000EAC6F800E84
:1009D000AD6F7F0EAE6F1BEF05F0B0BFFAEF04F006
:1009E000B05106E1AF05D8B0F8EF04F0FAEF04F02B
:1009F00006EF05F0000EAB6F000EAC6F000EAD6F92
:100A0000000EAE6F000EA46F1BEF05F0AFC0AAF092
:100A1000FF0EAB17FF0EAC177F0EAD17000EAE1713
:100A2000AAA115EF05F017EF05F018EF05F0AD8F4F
:100A3000D890AA31AE6FA451AE13ABC098F0ACC041
:100A400099F0ADC09AF0AEC09BF012001250800B2E
:100A50001B6E12501224216E11AE31EF05F033EFF0
:100A600005F034EF05F021802150D8B43AEF05F0BD
:100A70003CEF05F04FEF05F02128D8A442EF05F038
:100A800044EF05F04CEF05F0000E0F6E000E106EF7
:100A9000000E116E000E126E118E57EF05F0000E53
:100AA0000F6E000E106E000E116E000E126E1650BC
:100AB000800B1B1A16501624206E15AE62EF05F03F
:100AC00064EF05F065EF05F020802050D8B46BEF9F
:100AD00005F06DEF05F080EF05F02028D8A473EF46
:100AE00005F075EF05F07DEF05F0000E136E000EBA
:100AF000146E000E156E000E166E158E88EF05F042
:100B0000000E136E000E146E000E156E000E166EA3
:100B10002050D8B48EEF05F090EF05F098EF05F077
:100B20002150D8A496EF05F098EF05F0A2EF05F05C
:100B3000000E0F6E000E106E000E116E000E126E83
:100B40003AEF07F015500F02F3CF26F0F4CF27F05D
:100B500026501C6E1D6A1E6A1F6A2750226E236A69
:100B6000246A256A14501002F3CF26F0F4CF27F040
:100B700026501C26000E1D221E221F222750222630
:100B8000000E23222422252213501102F3CF26F037
:100B9000F4CF27F026501C26000E1D221E221F22F5
:100BA00027502226000E2322242225221EC01FF0B9
:100BB0001DC01EF01CC01DF01C6A13501002F3CFA4
:100BC00026F0F4CF27F026501C2627501D22000EB9
:100BD0001E22000E1F2214500F02F3CF26F0F4CF76
:100BE00027F026501C2627501D22000E1E22000E24
:100BF0001F221EC01FF01DC01EF01CC01DF01C6A6D
:100C000013500F02F3CF26F0F4CF27F026501C2606
:100C100027501D22000E1E22000E1F22155010020A
:100C2000F3CF26F0F4CF27F0265022262750232298
:100C3000000E2422000E252214501102F3CF26F0BC
:100C4000F4CF27F02650222627502322000E2422FC
:100C5000000E252215501102F3CF26F0F4CF27F015
:100C60002650176E2750186E196A1A6A19C01AF0A2
:100C700018C019F017C018F0176A1750222618501C
:100C80002322195024221A5025221CC017F01DC0FF
:100C900018F01EC019F01FC01AF0190E55EF06F01B
:100CA000D8901A32193218321732E82E50EF06F067
:100CB0001750222618502322195024221A50252278
:100CC0001EC01FF01DC01EF01CC01DF01C6A20506D
:100CD00021C017F0186A1726000E1822820E17245A
:100CE000266EFF0E1820276E8BEF06F0D890223666
:100CF0002336243625361FAE80EF06F082EF06F04D
:100D000083EF06F02280D8901C361D361E361F3623
:100D10002606D8A0270624AE90EF06F092EF06F044
:100D200076EF06F0000E206E1FAE99EF06F09BEFF7
:100D300006F0BFEF06F0FF0E1C14176EFF0E1D1419
:100D4000186EFF0E1E14196E7F0E1F141A6E1750A8
:100D5000181019101A10D8B4B0EF06F0B2EF06F060
:100D6000B6EF06F0010E206EBFEF06F022A0BBEF3B
:100D700006F0BDEF06F0BFEF06F0B2EF06F0205030
:100D8000D8B4C5EF06F0C7EF06F0EBEF06F0010EA2
:100D90002226000E23222422252225A0D2EF06F0AF
:100DA000D4EF06F0EBEF06F022C017F023C018F0E6
:100DB00024C019F025C01AF01A341A321932183228
:100DC000173217C022F018C023F019C024F01AC03F
:100DD00025F0264A272A27BEF6EF06F0275008E11D
:100DE0002628D8A0F6EF06F0F8EF06F002EF07F09D
:100DF000000E226E000E236E800E246E7F0E256E76
:100E000030EF07F027BE0FEF07F0275006E126046A
:100E1000D8B00DEF07F00FEF07F01BEF07F0000E53
:100E2000226E000E236E000E246E000E256E000E44
:100E30001B6E30EF07F026C021F0FF0E2216FF0ECA
:100E400023167F0E2416000E251621A02AEF07F088
:100E50002CEF07F02DEF07F0248ED8902130256E6F
:100E60001B50251222C00FF023C010F024C011F037
:100E700025C012F012000001B451800BC16FB451B3
:100E8000B425C86FB3AF47EF07F049EF07F04AEF5B
:100E900007F0C881C851D8B450EF07F052EF07F0FF
:100EA00067EF07F0C829D8A458EF07F05AEF07F00A
:100EB00062EF07F0000EB16F000EB26F000EB36F5D
:100EC000000EB46FB38F000EB46F6FEF07F0000E1B
:100ED000B16F000EB26F000EB36F000EB46FB85159
:100EE000800BC11BB851B825C96FB7AF7AEF07F0B7
:100EF0007CEF07F07DEF07F0C981C951D8B483EFCB
:100F000007F085EF07F09AEF07F0C929D8A48BEF17
:100F100007F08DEF07F095EF07F0000EB56F000EAC
:100F2000B66F000EB76F000EB86FB78F000EB86FB8
:100F3000A2EF07F0000EB56F000EB66F000EB76F90
:100F4000000EB86FB551B611B711B811D8A4ABEFF8
:100F500007F0ADEF07F0C5EF07F0000EB16F000E20
:100F6000B26F000EB36F000EB46F800EB3137F0E1E
:100F7000B413C151B413B1C0B1F0B2C0B2F0B3C038
:100F8000B3F0B4C0B4F008EF09F0C851D8A4CBEF67
:100F900007F0CDEF07F0D7EF07F0000EB16F000EAE
:100FA000B26F000EB36F000EB46F08EF09F0C951B5
:100FB000C8C0B9F0BA6BB95F000EBA5B7F0EB92535
:100FC000C26F000EBA21C36FB1C0BDF0B2C0BEF097
:100FD000B3C0BFF0B4C0C0F0000EB16F000EB26F6E
:100FE000000EB36F000EB46F000EC46F000EC56F1D
:100FF000000EC66F000EC76F000EC96F38EF08F005
:10100000C951D8B406EF08F008EF08F01FEF08F058
:10101000D890BD37BE37BF37C037D890B137B23759
:10102000B337B437C7AF17EF08F019EF08F01AEF6E
:1010300008F0B181D890C437C537C637C737B55126
:10104000BD5DB651BE59B751BF59B851C059D8A0AE
:101050002CEF08F02EEF08F037EF08F0C78DB551F0
:10106000BD5FB651BE5BB751BF5BB851C05BC92B0A
:10107000190EC9653EEF08F040EF08F000EF08F0E8
:10108000BD51BE11BF11C011D8B449EF08F04BEFEC
:1010900008F063EF08F0C48163EF08F0D890B1372F
:1010A000B237B337B437C7AF58EF08F05AEF08F08C
:1010B0005BEF08F0B181D890C437C537C637C73762
:1010C000C207D8A0C307B3AF68EF08F06AEF08F013
:1010D0004EEF08F0000EC96FC7AF71EF08F073EF65
:1010E00008F097EF08F0FF0EC415B96FFF0EC51595
:1010F000BA6FFF0EC615BB6F7F0EC715BC6FB95117
:10110000BA11BB11BC11D8B488EF08F08AEF08F00F
:101110008EEF08F0010EC96F97EF08F0B1A193EFC1
:1011200008F095EF08F097EF08F08AEF08F0C95142
:10113000D8B49DEF08F09FEF08F0C3EF08F0010E60
:10114000B127000EB223B323B423B4A1AAEF08F051
:10115000ACEF08F0C3EF08F0B1C0B9F0B2C0BAF01C
:10116000B3C0BBF0B4C0BCF0BC35BC33BB33BA3386
:10117000B933B9C0B1F0BAC0B2F0BBC0B3F0BCC0B3
:10118000B4F0C24BC32BC3BFCEEF08F0C35108E18C
:10119000C229D8A0CEEF08F0D0EF08F0DBEF08F0BE
:1011A000000EC36FC269000EB16F000EB26F000E69
:1011B000B36F000EB46FC3BFE8EF08F0C35106E190
:1011C000C205D8B0E6EF08F0E8EF08F0F6EF08F057
:1011D000000EC36F000EC26F000EB16F000EB26F33
:1011E000000EB36F000EB46F000EC16FC2C0C8F026
:1011F000C8A1FDEF08F0FFEF08F002EF09F0B38F90
:1012000003EF09F0B39FD890C831B46FB9EF07F07E
:1012100012002B50800B386E2B502B243F6E2AAEC1
:1012200014EF09F016EF09F017EF09F03F803F5077
:10123000D8B41DEF09F01FEF09F034EF09F03F2893
:10124000D8A425EF09F027EF09F02FEF09F0000EE1
:10125000286E000E296E000E2A6E000E2B6E2A8E4E
:10126000000E2B6E3CEF09F0000E286E000E296E6A
:10127000000E2A6E000E2B6E2F50800B381A2F5046
:101280002F24406E2EAE47EF09F049EF09F04AEFE8
:1012900009F040804050D8B450EF09F052EF09F007
:1012A00067EF09F04028D8A458EF09F05AEF09F089
:1012B00062EF09F0000E2C6E000E2D6E000E2E6EE9
:1012C000000E2F6E2E8E000E2F6E6FEF09F0000EA7
:1012D0002C6E000E2D6E000E2E6E000E2F6E2C50FA
:1012E0002D102E102F10D8A478EF09F07AEF09F006
:1012F00092EF09F0000E286E000E296E000E2A6E85
:10130000000E2B6E800E2A127F0E2B1238502B12DD
:1013100028C028F029C029F02AC02AF02BC02BF0C1
:10132000D5EF0AF03F50D8A498EF09F09AEF09F0F2
:10133000A4EF09F0000E286E000E296E000E2A6E32
:10134000000E2B6ED5EF0AF040503FC030F0316AEE
:10135000305E000E315A7F0E3024396E000E31207F
:101360003A6E28C034F029C035F02AC036F02BC0C0
:1013700037F0000E286E000E296E000E2A6E000E49
:101380002B6E000E3B6E000E3C6E000E3D6E000E8E
:101390003E6E000E406E05EF0AF04050D8B4D3EF19
:1013A00009F0D5EF09F0ECEF09F0D8903436353676
:1013B00036363736D890283629362A362B363EAE82
:1013C000E4EF09F0E6EF09F0E7EF09F02880D890A4
:1013D0003B363C363D363E362C50345C2D5035582D
:1013E0002E5036582F503758D8A0F9EF09F0FBEFA0
:1013F00009F004EF0AF03E8C2C50345E2D50355A23
:101400002E50365A2F50375A402A190E40640BEF8F
:101410000AF00DEF0AF0CDEF09F034503510361018
:101420003710D8B416EF0AF018EF0AF030EF0AF0D0
:101430003B8030EF0AF0D890283629362A362B36F2
:101440003EAE25EF0AF027EF0AF028EF0AF02880D9
:10145000D8903B363C363D363E363906D8A03A0663
:101460002AAE35EF0AF037EF0AF01BEF0AF0000E54
:10147000406E3EAE3EEF0AF040EF0AF064EF0AF035
:10148000FF0E3B14306EFF0E3C14316EFF0E3D1408
:10149000326E7F0E3E14336E3050311032103310E6
:1014A000D8B455EF0AF057EF0AF05BEF0AF0010EDF
:1014B000406E64EF0AF028A060EF0AF062EF0AF0D5
:1014C00064EF0AF057EF0AF04050D8B46AEF0AF020
:1014D0006CEF0AF090EF0AF0010E2826000E292288
:1014E0002A222B222BA077EF0AF079EF0AF090EF57
:1014F0000AF028C030F029C031F02AC032F02BC0E9
:1015000033F03334333232323132303230C028F0BB
:1015100031C029F032C02AF033C02BF0394A3A2AC0
:101520003ABE9BEF0AF03A5008E13928D8A09BEF69
:101530000AF09DEF0AF0A8EF0AF0000E3A6E396843
:10154000000E286E000E296E000E2A6E000E2B6E05
:101550003ABEB5EF0AF03A5006E13904D8B0B3EF1D
:101560000AF0B5EF0AF0C3EF0AF0000E3A6E000E73
:10157000396E000E286E000E296E000E2A6E000EC7
:101580002B6E000E386E39C03FF03FA0CAEF0AF054
:10159000CCEF0AF0CFEF0AF02A8ED0EF0AF02A9EA5
:1015A000D8903F302B6E86EF09F012001EC034F049
:1015B0001FC035F020C036F021C037F022C038F00F
:1015C00023C039F024C03AF025C03BF03BBEEBEF1E
:1015D0000AF0EEEF0AF0010EEFEF0AF0000E3E6E99
:1015E0003E50D8B4F6EF0AF0F8EF0AF008EF0BF02F
:1015F0003B1E3A1E391E381E371E361E351E346CF1
:10160000000E352236223722382239223A223B2256
:101610000001D3BF16EF0BF0D35106E1D205D8B0CD
:1016200014EF0BF016EF0BF01CEF0BF0000E316E09
:10163000010E306E20EF0BF0D2C030F0D3C031F08D
:101640003BC132F03CC133F03E50D8B42AEF0BF02E
:101650002CEF0BF043EF0BF03206D8A033063E50D0
:10166000D8A435EF0BF037EF0BF03DEF0BF0000E89
:101670002F6E2B0E2E6E41EF0BF0000E2F6E2D0EE7
:101680002E6E2EC03EF0000E3D6E1F0E3C6E000E04
:101690000101646FC8EF0BF03C06D8A03D06450E73
:1016A0003C24D96E010E3D20DA6E34C001F035C005
:1016B00002F036C003F037C004F038C005F039C07E
:1016C00006F03AC007F03BC008F00A0E096E000EA3
:1016D0000A6E000E0B6E000E0C6E000E0D6E000EEC
:1016E0000E6E000E0F6E000E106EF2EC11F001C0C7
:1016F00026F002C027F003C028F004C029F005C07E
:101700002AF006C02BF007C02CF008C02DF026C030
:1017100013F027C014F025EC19F01350300FDF6ED2
:101720003006D8A031063206D8A0330634C001F006
:1017300035C002F036C003F037C004F038C005F001
:1017400039C006F03AC007F03BC008F00A0E096E37
:10175000000E0A6E000E0B6E000E0C6E000E0D6E6B
:10176000000E0E6E000E0F6E000E106E2EEC11F0BD
:1017700001C034F002C035F003C036F004C037F0C9
:1017800005C038F006C039F007C03AF008C03BF099
:101790003DBED3EF0BF03D5008E13C04D8A0D3EFA1
:1017A0000BF0D5EF0BF0F1EF0BF034503510361095
:1017B0003710381039103A103B10D8A4E2EF0BF074
:1017C000E4EF0BF04CEF0BF031BEF1EF0BF03150CA
:1017D00006E13004D8B0EFEF0BF0F1EF0BF04CEF77
:1017E0000BF03E50D8B4F7EF0BF0F9EF0BF004EF2D
:1017F0000CF03C06D8A03D06450E3C24D96E010EE7
:101800003D20DA6E3EC0DFFF1CC011F01DC012F09B
:10181000450E3C24136E010E3D20146E32C015F0AF
:1018200033C016F070EC17F012006AEC10F0786E0E
:10183000100E7818D8B41FEF0CF021EF0CF018EF51
:101840000DF00001DD517818D8B429EF0CF02BEF22
:101850000CF018EF0DF00B0E7818D8B432EF0CF036
:1018600034EF0CF03DEF0CF00A0E7818D8A43BEFE3
:101870000CF03DEF0CF0EEEF0CF0000EDE6FDEC072
:10188000DFF0DFC0E0F0E0C0E1F0000EDD6F000E41
:10189000796E200E7A6E200EF46F200EF36F200EFC
:1018A000F26F63EC19F0000E0C6E000E0B6ED89008
:1018B0000B34D96E0C34DA6ECA0ED926000EDA2239
:1018C000000EDE6E000EDD6E0B4A0C2A0CBE72EFAF
:1018D0000CF00C5009E1030E0B5CD8A072EF0CF079
:1018E00074EF0CF057EF0CF01AEF0DF078C0E1F048
:1018F000E151096E0A6A7950020DCA0EF324D96EBD
:10190000000EF420DA6E09C0DEFF0AC0DDFF795058
:10191000020DCA0EF324D96E000EF420DA6EDF50E9
:10192000300F7A6E0BEF0DF078C0E0F0E051096EE9
:101930000A6A7950020DCA0EF324D96E000EF42003
:10194000DA6E09C0DEFF0AC0DDFF7950020DCA0E53
:10195000F324D96E000EF420DA6EDF50300FF46FEE
:101960000BEF0DF078C0DFF0DF51096E0A6A795095
:10197000020DCA0EF324D96E000EF420DA6E09C0EF
:10198000DEFF0AC0DDFF7950020DCA0EF324D96EC6
:10199000000EF420DA6EDF50300FF36F0BEF0DF016
:1019A00078C0DEF0DE51096E0A6A7950020DCA0E67
:1019B000F324D96E000EF420DA6E09C0DEFF0AC0EF
:1019C000DDFF7950020DCA0EF324D96E000EF4200B
:1019D000DA6EDF50300FF26F0BEF0DF07950096EB9
:1019E0000A6A0A50000AD8B4F8EF0CF00BEF0DF0B9
:1019F0000950000AD8B476EF0CF0010AD8B494EF7D
:101A00000CF0030AD8B4B2EF0CF0010AD8B4D0EF4E
:101A10000CF00BEF0DF0030E796411EF0DF013EFE6
:101A20000DF017EF0DF0000E796E18EF0DF0792A1A
:101A300078C0DDF012000001926F00019251D8B41D
:101A400024EF0DF026EF0DF048EF0DF08DBF2DEFD8
:101A50000DF02BEF0DF048EF0DF08AC08EF08BC02B
:101A60008FF08CC090F08DC091F08E1F8F1F901F53
:101A7000911F8E2B000E8F23902391238EC094F004
:101A80008FC095F090C096F091C097F050EF0DF098
:101A90008AC094F08BC095F08CC096F08DC097F002
:101AA0008A518B118C118D11D8A459EF0DF05BEF79
:101AB0000DF065EF0DF0000E8A6F000E8B6F000EBB
:101AC0008C6F000E8D6FF6EF0DF0960E936F6FEF2B
:101AD0000DF0932BD8909733963395339433000EB3
:101AE00094158E6F000E95158F6F000E9615906FE2
:101AF000FE0E9715916F8E518F1190119111D8A4F0
:101B000084EF0DF086EF0DF069EF0DF094EF0DF01E
:101B1000932B010E9427000E952396239723D8909C
:101B20009733963395339433000E94158E6F000ED1
:101B300095158F6F000E9615906FFF0E9715916F8C
:101B40008E518F1190119111D8A4A9EF0DF0ABEF28
:101B50000DF088EF0DF0B3EF0DF09307D8909437A8
:101B600095379637973796BFB8EF0DF0BAEF0DF06F
:101B7000C2EF0DF0020E9361C0EF0DF0C2EF0DF059
:101B8000ADEF0DF093B1C7EF0DF0C9EF0DF0CAEF57
:101B90000DF0969FD890933393C08EF08F6B906B1F
:101BA000916B8EC091F0906B8F6B8E6B8E519413F6
:101BB0008F51951390519613915197139251D8B418
:101BC000E4EF0DF0E6EF0DF0EEEF0DF08DBFEDEF71
:101BD0000DF0EBEF0DF0EEEF0DF0978F94C08AF063
:101BE00095C08BF096C08CF097C08DF01200096EF6
:101BF0000950D8B4FEEF0DF000EF0EF022EF0EF01A
:101C000004BE07EF0EF005EF0EF022EF0EF001C05C
:101C100005F002C006F003C007F004C008F0051E7E
:101C2000061E071E081E052A000E0622072208228D
:101C300005C00BF006C00CF007C00DF008C00EF098
:101C40002AEF0EF001C00BF002C00CF003C00DF043
:101C500004C00EF00150021003100410D8A433EF9A
:101C60000EF035EF0EF03FEF0EF0000E016E000E9D
:101C7000026E000E036E000E046ED0EF0EF0960E94
:101C80000A6E49EF0EF00A2AD8900E320D320C324D
:101C90000B32000E0B14056E000E0C14066E000EB7
:101CA0000D14076EFE0E0E14086E05500610071078
:101CB0000810D8A45EEF0EF060EF0EF043EF0EF0C8
:101CC0006EEF0EF00A2A010E0B26000E0C220D22DA
:101CD0000E22D8900E320D320C320B32000E0B1445
:101CE000056E000E0C14066E000E0D14076EFF0E2E
:101CF0000E14086E0550061007100810D8A483EFC4
:101D00000EF085EF0EF062EF0EF08DEF0EF00A068A
:101D1000D8900B360C360D360E360DBE92EF0EF007
:101D200094EF0EF09CEF0EF0020E0A609AEF0EF0A8
:101D30009CEF0EF087EF0EF00AB0A1EF0EF0A3EFCC
:101D40000EF0A4EF0EF00D9ED8900A320AC005F0F6
:101D5000066A076A086A05C008F0076A066A056A23
:101D600005500B1206500C1207500D1208500E129F
:101D70000950D8B4BEEF0EF0C0EF0EF0C8EF0EF071
:101D800004BEC7EF0EF0C5EF0EF0C8EF0EF00E8EDA
:101D90000BC001F00CC002F00DC003F00EC004F047
:101DA000120041C0D9FF42C0DAFFDECFF6FFDDCF1F
:101DB000F7FF0800F550250AD8A4E1EF0EF0E3EF95
:101DC0000EF089EF0FF041C0D9FF42C0DAFFDE2AE2
:101DD000000EDD22000E01013C6F000E3B6F3BC187
:101DE000DCF00001D269D36941C0D9FF42C0DAFFFB
:101DF000DECF4FF0DDCF50F04FC0F6FF50C0F7FF01
:101E00000800F550640AD8B408EF0FF00AEF0FF09D
:101E100018EF0FF04FC0F6FF50C0F7FF0800F55065
:101E2000690AD8A416EF0FF018EF0FF05BEF0FF070
:101E300043C0D9FF44C0DAFFDFCF45F0020EDE26F3
:101E4000DFCF46F0000EDD2245C0D9FF46C0DAFFE5
:101E5000DECF47F0DDCF48F0000E48BEFF0E496EE2
:101E60004A6E4B6E4C6E4D6E4E6E010E4F24456E9B
:101E7000000E5020466E41C0D9FF42C0DAFF45C077
:101E8000DEFF46C0DDFF3FC01CF040C01DF047C074
:101E90001EF048C01FF049C020F04AC021F04BC0DE
:101EA00022F04CC023F04DC024F04EC025F0D6ECFB
:101EB0000AF09DEF0FF041C0D9FF42C0DAFFDECF3C
:101EC000F6FFDDCFF7FF0800F550250AD8A46BEF29
:101ED0000FF06DEF0FF080EF0FF041C0D9FF42C05F
:101EE000DAFFDE2A000EDD22000E026E250E016EE4
:101EF0003FC003F040C004F03EEC15F09DEF0FF042
:101F000041C0D9FF42C0DAFFDE2A000EDD229DEF7C
:101F10000FF041C0D9FF42C0DAFFDECFF6FFDDCFC0
:101F2000F7FF0800F550016E026A3FC003F040C0A1
:101F300004F03EEC15F080EF0FF01200010EE3EC20
:101F400019F0800EE3EC19F0200E7A18D8A4ABEF4C
:101F50000FF0ADEF0FF0CBEF0FF0200E0001F419F2
:101F6000D8A4B5EF0FF0B7EF0FF0CBEF0FF0200EC6
:101F7000F319D8A4BEEF0FF0C0EF0FF0CBEF0FF0C6
:101F8000200EF219D8A4C7EF0FF0C9EF0FF0CBEF76
:101F90000FF069EF10F0CAC001F0CBC002F0030EE1
:101FA000046EE80E036ED0EC19F001C06CF002C0B4
:101FB0006DF0CCC001F0CDC002F0000E046E640ED6
:101FC000036ED0EC19F001506C246E6E02506D203F
:101FD0006F6ECEC001F0CFC002F0000E046E0A0E8C
:101FE000036ED0EC19F001506E24706E02506F2019
:101FF000716E0001D051702401013D6F0001D1517B
:10200000712001013E6F3DC1D8F03EC1D9F0040EF0
:102010000001D95DD8B00FEF10F011EF10F017EFFD
:1020200010F0D8C001F0D9C002F094EC19F0000E05
:102030002C6EC00E2D6E7F0E2E6E440E2F6E000E77
:10204000136E000E146EC80E156E420E166ED8C0BA
:1020500001F0D9C002F0036A046A000EF7EC0DF03B
:1020600001C00FF002C010F003C011F004C012F064
:1020700026EC05F00FC028F010C029F011C02AF09E
:1020800012C02BF009EC09F028C041F029C042F041
:102090002AC043F02BC044F0C1EC13F041C0D6F08D
:1020A00042C0D7F0C00EE3EC19F0650E596E010E78
:1020B0005A6E010E5B6E060E5C6ED6C05DF0D7C028
:1020C0005EF0B5EC18F0650E036E010E046EADEC1B
:1020D00017F01200100E076EF80E936E0F0E956E2D
:1020E000070E8A12010E8A1A000E026E000E016E91
:1020F00000F0014A022A02BE87EF10F0025009E107
:102100000A0E015CD8A087EF10F089EF10F078EF8D
:1021100010F083CF08F008B090EF10F092EF10F0BD
:1021200094EF10F00A0E076E08B299EF10F09BEFD3
:1021300010F09DEF10F0070E076E08B4A2EF10F03C
:10214000A4EF10F0A6EF10F0040E076E08B6ABEF88
:1021500010F0ADEF10F0AFEF10F0010E076E030EB0
:102160008A1A000E046E000E036E00F0034A042A61
:1021700004BEC4EF10F0045009E10A0E035CD8A0BD
:10218000C4EF10F0C6EF10F0B5EF10F083CF08F0F9
:1021900008B0CDEF10F0CFEF10F0D1EF10F0000E3F
:1021A000076E08B2D6EF10F0D8EF10F0DAEF10F0AB
:1021B000080E076E08B4DFEF10F0E1EF10F0E3EF68
:1021C00010F0050E076E08B6E8EF10F0EAEF10F019
:1021D000ECEF10F0020E076E060E8A1A000E066E65
:1021E000000E056E00F0054A062A06BE01EF11F04A
:1021F000065009E10A0E055CD8A001EF11F003EFCB
:1022000011F0F2EF10F083CF08F008B00AEF11F0F0
:102210000CEF11F00EEF11F00B0E076E08B213EF7A
:1022200011F015EF11F017EF11F0090E076E08B459
:102230001CEF11F01EEF11F020EF11F0060E076EEB
:1022400008B625EF11F027EF11F029EF11F0030E7A
:10225000076E9368000E956E07501200000E126E06
:1022600010BE37EF11F035EF11F049EF11F0101EED
:102270000F1E0E1E0D1E0C1E0B1E0A1E096C000EDC
:102280000A220B220C220D220E220F221022010EF6
:10229000126E08BE50EF11F04EEF11F062EF11F028
:1022A000081E071E061E051E041E031E021E016CCC
:1022B000000E0222032204220522062207220822FF
:1022C000010E121A20EE13F0070EDE6AE806FDE298
:1022D00009500A100B100C100D100E100F101010DA
:1022E000D8B475EF11F077EF11F0C9EF11F0010ECE
:1022F000116E85EF11F0D89009360A360B360C3680
:102300000D360E360F361036112A10AE8AEF11F048
:102310008CEF11F07BEF11F0D89013361436153690
:1023200016361736183619361A360950015C0A5017
:1023300002580B5003580C5004580D5005580E50BD
:1023400006580F50075810500858D8A0AAEF11F09F
:10235000ACEF11F0BDEF11F00950015E0A50025AC6
:102360000B50035A0C50045A0D50055A0E50065A81
:102370000F50075A1050085A1380D89010320F325D
:102380000E320D320C320B320A320932112E8CEF22
:1023900011F01250D8B4CFEF11F0D1EF11F0E1EFFE
:1023A00011F01A1E191E181E171E161E151E141EB9
:1023B000136C000E1422152216221722182219223D
:1023C0001A2213C001F014C002F015C003F016C0A9
:1023D00004F017C005F018C006F019C007F01AC0C5
:1023E00008F01200000E126E08BEFBEF11F0F9EFBC
:1023F00011F00DEF12F0081E071E061E051E041E2A
:10240000031E021E016C000E02220322042205227A
:10241000062207220822010E126E10BE14EF12F0DF
:1024200012EF12F024EF12F0101E0F1E0E1E0D1EE2
:102430000C1E0B1E0A1E096C000E0A220B220C2217
:102440000D220E220F22102209500A100B100C1020
:102450000D100E100F101010D8B431EF12F033EF32
:1024600012F07BEF12F0010E116E41EF12F0D890D6
:1024700009360A360B360C360D360E360F36103648
:10248000112A10AE46EF12F048EF12F037EF12F0BB
:102490000950015C0A5002580B5003580C50045864
:1024A0000D5005580E5006580F5007581050085838
:1024B000D8A05DEF12F05FEF12F06FEF12F009504D
:1024C000015E0A50025A0B50035A0C50045A0D5028
:1024D000055A0E50065A0F50075A1050085AD890F5
:1024E00010320F320E320D320C320B320A320932F8
:1024F000112E48EF12F01250D8B481EF12F083EF92
:1025000012F093EF12F0081E071E061E051E041E91
:10251000031E021E016C000E022203220422052269
:1025200006220722082201C001F002C002F003C007
:1025300003F004C004F005C005F006C006F007C0B3
:1025400007F008C008F01200D4C08FF0D5C090F09A
:10255000030E0001926FE80E916FE9EC17F0000195
:102560008F51ED6F030E8D6FE80E8C6FD4C08AF023
:10257000D5C08BF058EC18F08AC08FF08BC090F06B
:10258000000E0001926F640E916FE9EC17F00001EC
:102590008F51EC6F000E8D6F640E8C6FD4C08AF07B
:1025A000D5C08BF058EC18F08AC08FF08BC090F03B
:1025B000000E0001926F0A0E916FE9EC17F0000116
:1025C0008F51EB6FD4C08AF0D5C08BF0000E8D6FA9
:1025D0000A0E8C6F58EC18F000018A51EA6F33EC48
:1025E00017F076C08FF077C090F0030E0001926F65
:1025F000E80E916FE9EC17F000018F51E66F030EC2
:102600008D6FE80E8C6F76C08AF077C08BF058EC37
:1026100018F08AC08FF08BC090F0000E0001926F0E
:10262000640E916FE9EC17F000018F51E56F000E19
:102630008D6F640E8C6F76C08AF077C08BF058EC8B
:1026400018F08AC08FF08BC090F0000E0001926FDE
:102650000A0E916FE9EC17F000018F51E46F76C01C
:102660008AF077C08BF0000E8D6F0A0E8C6F58ECDD
:1026700018F000018A51E36F1200010177357835B7
:102680007E6F7E51D8A447EF13F049EF13F053EF5C
:1026900013F0000E756F000E766F000E776F000E50
:1026A000786FC0EF13F075C179F176C17AF177C117
:1026B0007BF178C17CF1200E63EF13F0D8907C336E
:1026C0007B337A337933E82E5EEF13F079517D6FE7
:1026D000778FFF0E7517FF0E7617FF0E7717000E18
:1026E0007817960E7E5F7EBF7AEF13F078EF13F0C7
:1026F00090EF13F07E51800A970FD8B082EF13F05D
:1027000084EF13F086EF13F049EF13F0D89078338D
:102710007733763375337E3F86EF13F0A8EF13F0EF
:102720001F0E7E6596EF13F098EF13F0A0EF13F0F5
:1027300049EF13F0D89075377637773778377E07BB
:102740007E51D8A4A6EF13F0A8EF13F09AEF13F080
:102750007D51D8B4AEEF13F0B0EF13F0B8EF13F033
:10276000781F771F761F756D000E762377237823E9
:1027700075C175F176C176F177C177F178C178F1DD
:102780001200433444344A6E4A50D8A4CAEF13F0BE
:10279000CCEF13F0D6EF13F0000E416E000E426E38
:1027A000000E436E000E446E43EF14F041C045F03E
:1027B00042C046F043C047F044C048F0200EE6EF68
:1027C00013F0D8904832473246324532E82EE1EFD6
:1027D00013F04550496E438EFF0E4116FF0E421610
:1027E000FF0E4316000E4416960E4A5E4ABEFDEFDB
:1027F00013F0FBEF13F013EF14F04A50800A970F19
:10280000D8B005EF14F007EF14F009EF14F0CCEF97
:1028100013F0D89044324332423241324A3E09EFFB
:1028200014F02BEF14F01F0E4A6419EF14F01BEF95
:1028300014F023EF14F0CCEF13F0D8904136423669
:10284000433644364A064A50D8A429EF14F02BEFF9
:1028500014F01DEF14F04950D8B431EF14F033EFF9
:1028600014F03BEF14F0441E431E421E416C000E58
:1028700042224322442241C041F042C042F043C0C0
:1028800043F044C044F012008470A9EC16F001013A
:102890003A5107E1050E395DD8B051EF14F053EF0E
:1028A00014F057EF14F0394B3A2B5EEF14F0FCECB8
:1028B00015F0000E01013A6F010E396F385107E132
:1028C000640E375DD8B067EF14F069EF14F06DEF68
:1028D00014F0374B382BA6EF14F08CCFE2F03F51B9
:1028E000761809E140517718D8B479EF14F07BEFEE
:1028F00014F09BEF14F0800EE3EC19F00A0E036E57
:10290000060E046EADEC17F00001E651300FF4EC4A
:1029100019F00001E551300FF4EC19F02E0EF4EC33
:1029200019F00001E451300FF4EC19F00001E3510B
:10293000300FF4EC19F076C03FF177C040F1E2C0FF
:102940008CFF000E0101386F010E376F345107E123
:102950000A0E335DD8B0AFEF14F0B1EF14F0B5EF5D
:1029600014F0334B342BC1EF14F0827A15EC0CF0D9
:1029700055EC16F032EC1AF0000E0101346F010E26
:10298000336F12000600E1CF80F0E2CF81F0D9CFA3
:1029900082F0DACF83F0F3CF84F0F4CF85F0F6CF76
:1029A00086F0F7CF87F0F8CF88F0F5CF89F0F2A462
:1029B000DCEF14F0DEEF14F0E5EF14F0000ED76E4C
:1029C000060ED66E44EC14F0F294F2A2EAEF14F084
:1029D000ECEF14F0F4EF14F0F2A8F1EF14F0F3EFD1
:1029E00014F0F4EF14F0F292F0A0F9EF14F0FBEF12
:1029F00014F003EF15F0F0A600EF15F002EF15F05C
:102A000003EF15F0F090F0A208EF15F00AEF15F0C3
:102A100012EF15F0F0A80FEF15F011EF15F012EF0F
:102A200015F0F0929EAC17EF15F019EF15F028EFA6
:102A300015F09DAC1EEF15F020EF15F028EF15F006
:102A4000F2AC25EF15F027EF15F028EF15F09E9C5E
:102A500089C0F5FF88C0F8FF87C0F7FF86C0F6FF82
:102A600085C0F4FF84C0F3FF83C0DAFF82C0D9FFC2
:102A700081C0E2FF80C0E1FF7B921100035004108F
:102A8000D8B445EF15F047EF15F050EF15F00350AF
:102A90000410D8A44EEF15F050EF15F055EF15F0D7
:102AA000015046EC1AF0A2EF15F020EE09F00350A9
:102AB000D9260450DA22DE50DE10D8B462EF15F0C9
:102AC00064EF15F07FEF15F020EE09F00350D926E2
:102AD0000450DA2210EE03F00350E1260450E22203
:102AE000DE50E65CE650800A096EDE50800A095826
:102AF000D8B07DEF15F07FEF15F0A2EF15F020EEC6
:102B000003F00350D9260450DA22DECF05F0DDCFE2
:102B100006F003C0D9FF04C0DAFFDECF07F0DDCF37
:102B200008F005500724D96E06500820DA6E01C05F
:102B3000DFFF20EE03F00350D9260450DA22DE2A0C
:102B4000000EDD221200000E2C6EC00E2D6E7F0EC8
:102B50002E6E440E2F6E000E136E000E146EC80EF5
:102B6000156E420E166ED4C001F0D5C002F0036A95
:102B7000046A000EF7EC0DF001C00FF002C010F077
:102B800003C011F004C012F026EC05F00FC028F0CD
:102B900010C029F011C02AF012C02BF009EC09F086
:102BA00028C041F029C042F02AC043F02BC044F0B5
:102BB000C1EC13F041C0D6F042C0D7F0D4C001F050
:102BC000D5C002F094EC19F0C00EE3EC19F0650EDC
:102BD000596E010E5A6E010E5B6E060E5C6ED6C00B
:102BE0005DF0D7C05EF0B5EC18F0650E036E010E17
:102BF000046EADEC17F0120036EF16F08984899A56
:102C0000220EED25D96EDA6A010EDA22DF508C6EC3
:102C1000010EE76F54EF16F089948986220EEC2599
:102C2000D96EDA6A010EDA22DF508C6E020EE76F7F
:102C300054EF16F089968988220EEB25D96EDA6A50
:102C4000010EDA22DF508C6E030EE76F54EF16F0A0
:102C50008998898A220EEA25D96EDA6A010EDA226B
:102C6000DF508C6E000EE76F54EF16F00001E75155
:102C7000016E026A0250000AD8B441EF16F054EF18
:102C800016F00150000AD8B4FEEF15F0010AD8B4CE
:102C90000CEF16F0030AD8B41AEF16F0010AD8B4F4
:102CA00028EF16F054EF16F0120081CF75F075A6DC
:102CB0005CEF16F05EEF16F062EF16F0010E726E2A
:102CC00064EF16F0000E726E75A869EF16F06BEFE8
:102CD00016F06FEF16F0010E736E71EF16F0000E26
:102CE000736E75AA76EF16F078EF16F07CEF16F09B
:102CF000010E746E7EEF16F0000E746E0001F1513D
:102D0000725CD8B086EF16F088EF16F08AEF16F0F6
:102D10007CEC19F00001F051735CD8B092EF16F022
:102D200094EF16F096EF16F0A3EC15F00001EF51BA
:102D3000745CD8B09EEF16F0A0EF16F0A2EF16F07C
:102D40009EEC0FF072C0F1F073C0F0F074C0EFF0C1
:102D50001200D8EF16F0C3CF6FF1C4CF70F1010E9F
:102D600021EC1AF044EC1AF0010E0001EE6FF2EFC4
:102D700016F0C3CF71F1C4CF72F192840C0EC16E04
:102D8000020E21EC1AF044EC1AF0020E0001EE6F74
:102D9000F2EF16F0C3CF73F1C4CF74F1000E21EC43
:102DA0001AF044EC1AF0000E0001EE6FF2EF16F08C
:102DB0000001EE51026E036A0350000AD8B4E3EF3B
:102DC00016F0F2EF16F00250000AD8B4ABEF16F08E
:102DD000010AD8B4B9EF16F0030AD8B4CAEF16F056
:102DE000F2EF16F012008A0EF66E320EF76E000E3B
:102DF000F86E01EE00F010EE3BF00900F5CFEEFFAB
:102E0000E550E150FAE17E0EF66E340EF76E000EDC
:102E1000F86E00EEEFF010EE06F00900F5CFEEFFD1
:102E2000E550E150FAE18E0EF66E340EF76E000EAC
:102E3000F86E0900F5CF7AF001EE3BF03A0EEE6A3B
:102E4000E806FDE100EECAF0250EEE6AE806FDE1B7
:102E5000796A786A776A766A7B907B92000EF86E60
:102E6000000112EF1AF0000E0001B56FC00EB66F30
:102E70007F0EB76F440EB86F000E9C6F500E9D6FA3
:102E8000430E9E6F470E9F6F73C18AF074C18BF023
:102E90008C6B8D6B000E1BEC0DF08AC098F08BC014
:102EA00099F08CC09AF08DC09BF010EC03F098C0A4
:102EB000B1F099C0B2F09AC0B3F09BC0B4F03BEC53
:102EC00007F0B1C075F1B2C076F1B3C077F1B4C00C
:102ED00078F13DEC13F075C176F076C177F0120011
:102EE00016BE75EF17F077EF17F07DEF17F015C0EE
:102EF0001AF016C01BF081EF17F0000E1B6E000ECB
:102F00001A6E000E196E000E186E93EF17F0000E79
:102F1000026E200E016E11C003F012C004F03EECF0
:102F200015F0184A192A1A50185C1950800A176EA1
:102F30001B50800A1758D8A0A0EF17F0A2EF17F087
:102F400087EF17F013C00AF014C00BF011C00CF09B
:102F500012C00DF003EC19F01200000E076ECAEF5C
:102F600017F007500324056E000E0420066E05C0FE
:102F7000F6FF06C0F7FFF86A050EF76403D00800F5
:102F8000F55005D0F6CFE1FFF7CFE2FFE750F4ECC4
:102F900019F0072A07500324056E000E0420066E60
:102FA00005C0F6FF06C0F7FFF86A050EF76403D008
:102FB0000800F55005D0F6CFE1FFF7CFE2FFE7506C
:102FC0000009D8A4E6EF17F0E8EF17F0B1EF17F01B
:102FD0001200000E0001946F000E936F9151921138
:102FE000D8B4F5EF17F0F7EF17F01FEF18F0010E58
:102FF000956FFFEF17F0D89091379237952B92AFDE
:1030000004EF18F006EF18F0FBEF17F0D8909337A5
:10301000943791518F5D92519059D8A012EF18F0CA
:1030200014EF18F019EF18F091518F5F9251905BE7
:103030009381D89092339133952F06EF18F093C077
:103040008FF094C090F01200849284941A0E0001C4
:103050008C6FF80EE82EFED78C2FFCD700F0848200
:10306000380EBDEC19F0070E00018C6F7D0EE82EB6
:10307000FED78C2FFCD7380EBDEC19F0C80E00D04F
:10308000E82EFDD7380EBDEC19F0080EBDEC19F096
:103090000F0EBDEC19F0010EBDEC19F0380EBDECB1
:1030A00019F0800EBDEC19F00C0EBDEC19F01200F9
:1030B00000018C518D11D8B460EF18F062EF18F058
:1030C00086EF18F0010E8E6F6AEF18F0D8908C37EB
:1030D0008D378E2B8DAF6FEF18F071EF18F066EF14
:1030E00018F08C518A5D8D518B59D8A07AEF18F069
:1030F0007CEF18F080EF18F08C518A5F8D518B5B5C
:10310000D8908D338C338E2F71EF18F08AC08AF0EF
:103110008BC08BF0120037EC1AF0AAEC19F005EC1A
:103120001AF0050ECA6ECB680C0EBD6E1AEC1AF0C2
:10313000898489868988898A000E0101826FC80E78
:10314000816F010E806F2C0E7F6F24EC18F0000E43
:103150000001ED6F000EEC6F000EEB6F000EEA6FDA
:103160002DEC1AF042EC1AF012005D0E5F6E000EAC
:10317000606E59C061F05AC062F0000E656E000EBC
:10318000646E000E6B6E000E6A6E610E516E000E64
:10319000526E5BC053F05CC054F05F0E556E000E73
:1031A000566EDCEC18F064505924D96E65505A20E4
:1031B000DA6E000EDF6E120053C057F054C058F0A4
:1031C000F0EF18F051C03FF052C040F0570E416E82
:1031D000000E426E55C043F056C044F0D1EC0EF0E4
:1031E00057C0F6FF58C0F7FF0800F5500009D8A4F3
:1031F000FCEF18F0FEEF18F0E2EF18F0000E526E40
:10320000000E516E1200000E106E000E0F6E14EFC5
:1032100019F00EC001F0026A0CC003F00DC004F0FA
:103220003EEC15F00F4A102A0F500A24D96E1050A8
:103230000B20DA6EDF500E6E0E50D8A422EF19F07C
:1032400024EF19F009EF19F0120014BE32EF19F053
:10325000145006E11304D8B030EF19F032EF19F032
:1032600040EF19F013C015F014C016F0151E161E0D
:10327000154A162A15C013F016C014F044EF19F0C1
:1032800013C013F014C014F01200414243444546E9
:103290004748494A000000000000004142434445BD
:1032A000464748494A000000000000003F065B4FC7
:1032B000666D7D077F6F777C395E79710001000153
:0532C000000100010007
:1032C600800EE3EC19F0190E036E060E046EADECDB
:1032D60017F07A50F4EC19F00001F451F4EC19F0FF
:1032E6000001F351F4EC19F00001F251F4EC19F07D
:1032F6001200000E0001D96F000ED86F010EE3EC2C
:1033060019F0D8C001F0D9C002F094EC19F0C00E43
:10331600E3EC19F0120E036E060E046EADEC17F018
:103326001200CF0EBD1601C003F0030E03160338BC
:10333600F00BBD1201C003F002C004F0D8900432B5
:103346000332D890043203320350BE6E1200C30E0D
:10335600926E3F0E936EDB0E946E000E956EF80E17
:10336600966E000E896E000E8A6E200E8B6E000E13
:103376008C6E120000018B6F848200018B5128EC49
:103386001AF084940D0EE82EFED700F084920D0EEE
:10339600E82EFED700F08482120001500302F3CF1C
:1033A60005F0F4CF06F001500402F3500626025051
:1033B6000302F350062605C001F006C002F0120013
:1033C600026E848202503BEC1AF084940D0EE82EB5
:1033D600FED700F084920D0EE82EFED700F0848210
:1033E6001200026E848202503BEC1AF084840D0EA9
:1033F600E82EFED700F084920D0EE82EFED700F0E0
:1034060084821200900EF26E050EF16ED80EF06EEA
:10341600C10ED56E000ED76E060ED66E12008BEC60
:1034260018F0A4EC12F014EF1AF007EF00F0010EFA
:10343600C26E0D0EC16E940EC06E1200016E014476
:10344600E846FC0B0109C26E120000018A6F8AC0B1
:1034560083FF1200F28A9D8CF29CF28E12006FC1DD
:10346600D4F070C1D5F01200D09EF29EF29C1200EC
:10347600016E01C083FF1200010101202020C282DB
:093486001200C2821200120020A3
:020000040020DA
:08000000FFFFFFFFFFFFFFFF00
:020000040030CA
:0E000000FF021F1EFF8381FF0FC00FE00F40A5
:00000001FF
