:0400000013EF00F00A
:06000800588237ED01F003
:100018005880E0CF46F046C0E0FF5890100066EFE9
:1000280002F0100E406EF80E936E0F0E956E070ECE
:100038008A12010E8A1A000E3B6E000E3A6E00F00C
:100048003A4A3B2A3BBE32EF00F03B5009E10A0E28
:100058003A5CD8A032EF00F034EF00F023EF00F064
:1000680083CF41F041B03BEF00F03DEF00F03FEFB0
:1000780000F00A0E406E41B244EF00F046EF00F087
:1000880048EF00F0070E406E41B44DEF00F04FEF1F
:1000980000F051EF00F0040E406E41B656EF00F04C
:1000A80058EF00F05AEF00F0010E406E030E8A1A66
:1000B800000E3D6E000E3C6E00F03C4A3D2A3DBEEF
:1000C8006FEF00F03D5009E10A0E3C5CD8A06FEFDD
:1000D80000F071EF00F060EF00F083CF41F041B025
:1000E80078EF00F07AEF00F07CEF00F0000E406E41
:1000F80041B281EF00F083EF00F085EF00F0080EC9
:10010800406E41B48AEF00F08CEF00F08EEF00F003
:10011800050E406E41B693EF00F095EF00F097EFB3
:1001280000F0020E406E060E8A1A000E3F6E000E98
:100138003E6E00F03E4A3F2A3FBEACEF00F03F5013
:1001480009E10A0E3E5CD8A0ACEF00F0AEEF00F07B
:100158009DEF00F083CF41F041B0B5EF00F0B7EF6D
:1001680000F0B9EF00F00B0E406E41B2BEEF00F0A8
:10017800C0EF00F0C2EF00F0090E406E41B4C7EFC7
:1001880000F0C9EF00F0CBEF00F0060E406E41B66C
:10019800D0EF00F0D2EF00F0D4EF00F0030E406E85
:1001A8009368000E956E4050120019EF01F0899A7D
:1001B800120E2824D96EDA6A000EDA22DF508C6E0D
:1001C8008984020E246E36EF01F08994120E2724DA
:1001D800D96EDA6A000EDA22DF508C6E8986030E39
:1001E800246E36EF01F08996120E2624D96EDA6A4B
:1001F800000EDA22DF508C6E8988040E246E36EFEA
:1002080001F08998120E2524D96EDA6A000EDA22D6
:10021800DF508C6E898A010E246E36EF01F08994C6
:1002280089968998899A0FEF01F024503A6E3B6AB3
:100238003B50000AD8B423EF01F013EF01F03A5015
:10024800010AD8B4DBEF00F0030AD8B4E9EF00F0F4
:10025800010AD8B4F7EF00F0070AD8B405EF01F0A7
:1002680013EF01F012000600E1CF42F0E2CF43F0B5
:10027800D9CF44F0DACF45F0F2AA45EF01F047EFC5
:1002880001F053EF01F0F2A44CEF01F04EEF01F052
:1002980053EF01F0060ED62690EC01F0F294F2A28C
:1002A80058EF01F05AEF01F064EF01F0F2A85FEFA8
:1002B80001F061EF01F064EF01F02EEC03F0F2922F
:1002C800F0A069EF01F06BEF01F075EF01F0F0A617
:1002D80070EF01F072EF01F075EF01F02DEC03F013
:1002E800F090F0A27AEF01F07CEF01F086EF01F0D8
:1002F800F0A881EF01F083EF01F086EF01F02CEC1C
:1003080003F0F09245C0DAFF44C0D9FF43C0E2FFD2
:1003180042C0E1FF58921100505007E1040E4F5CB3
:10032800D8B099EF01F09BEF01F09FEF01F04F4A31
:10033800502AA5EF01F0000E506E000E4F6ED9EC5A
:1003480000F0F30E4D5C010E4E58D8B0AEEF01F040
:10035800B0EF01F0B4EF01F04D4A4E2ABAEF01F0C8
:10036800000E4E6E000E4D6E37EC02F04C5007E159
:10037800090E4B5CD8B0C3EF01F0C5EF01F0C9EF2F
:1003880001F04B4A4C2ACFEF01F0000E4C6E000EE4
:100398004B6ED3EC02F01200D09EF29EF29C0F0E30
:1003A800C16EC30E926E3F0E936EFB0E946E000EDE
:1003B800956EF90E966E000E896E000E8A6E000E0E
:1003C8008C6E300EF26E850EF16ED80EF06ED10E78
:1003D800D56E060ED66E050ECA6ECB680C0EBD6EB7
:1003E800010EC26E0D0EC16E140EC06E04EC02F04A
:1003F800010E486E2C0E476EBDEC02F0F28E120014
:10040800849284941A0E496EF80EE82EFED7492E6F
:10041800FCD700D08482380EE8EC02F0070E496E53
:100428007D0EE82EFED7492EFCD700F0380EE8ECFA
:1004380002F0C80E00D0E82EFDD7380EE8EC02F026
:10044800080EE8EC02F00F0EE8EC02F0010EE8EC02
:1004580002F0380EE8EC02F0800EE8EC02F00C0E28
:10046800E8EC02F01200800EF9EC02F0010E2324F1
:10047800D96EDA6A000EDA22290E2324E16EE26AC6
:10048800000EE222DFCFE7FF290E5224D96EDA6A86
:10049800000EDA22200EDF6E290E3C6E000E3D6E35
:1004A80083EC02F052C023F0090E52605EEF02F0B6
:1004B80060EF02F063EF02F0522A65EF02F0000EDF
:1004C800526E1200400EF66E050EF76E000EF86EB4
:1004D80000EE01F010EE39F00900F5CFEEFFE5501F
:1004E800E150FAE100EE4BF00D0EEE6AE806FDE190
:1004F80058905892000EF86E00011BEF03F0000EA2
:100508003E6E91EF02F03E503C24D96E000E3D2025
:10051800DA6EDF500AEC03F03E2A3E503C24D96ED6
:10052800000E3D20DA6EDF50D8A49DEF02F09FEF59
:1005380002F087EF02F01200414243444546474823
:10054800494A000000000000003F065B4F666D7DD1
:10055800077F6F777C395E79710009010403020116
:100568004142434445464748494A000000000000CC
:010578000082
:10057A00CF0EBD1647C049F0030E49164938F00B95
:10058A00BD1247C049F048C04AF0D8904A324932B1
:10059A00D8904A3249324950BE6E120015EC00F02A
:1005AA00516E100E5118D8B4DDEF02F0DFEF02F0F1
:1005BA00E7EF02F051C025F025C026F026C027F04B
:1005CA0027C028F01200486E8482485023EC03F0BA
:1005DA0084940D0EE82EFED700F084920D0EE82EBC
:1005EA00FED700F0848212003B6E84823B5027ECD7
:1005FA0003F084940D0EE82EFED700F084920D0EBF
:10060A00E82EFED700F0848212003B6E84823B50B3
:10061A0027EC03F084840D0EE82EFED700F08492B6
:10062A000D0EE82EFED700F084821200D0EC01F005
:10063A002BEC03F01DEF03F013EF00F0476E47C0F9
:10064A0083FF12003A6E3AC083FF120012001200B2
:04065A001200120078
:020000040020DA
:08000000FFFFFFFFFFFFFFFF00
:020000040030CA
:0E000000FF021F1EFF8381FF0FC00FE00F40A5
:00000001FF
