:04000000B4EF3EF02B
:107D0A0080010101000E8C6E1200A5EC3EF0CFEC52
:107D1A003EF0FDD7020E0C18D8A403D0000E0C6E4C
:107D2A0012000C2A120007D01206D8A01306C80E99
:107D3A0000D0E82EFDD712501310D8B41200F4D791
:107D4A000F0EC16EFC0E936E000E956E000E8C6EB9
:107D5A00000E8A6E000E0A6E000E096E12000A0EDE
:107D6A00F66E7D0EF76E000EF86E00EE0EF010EE57
:107D7A0004F00900F5CFEEFFE550E150FAE100EE1C
:107D8A0001F00D0EEE6AE806FDE1000EF86E000144
:107D9A008AEF3EF0F4EC3EF08FEC3EF00CD087EC2C
:107DAA003EF016D071EC3FF013D0B8EC3FF010D093
:107DBA002CEC3FF00DD00750000AD8B4F0D7010AD6
:107DCA00D8B4F0D7030AD8B4F0D7010AD8B4F0D798
:107DDA00000E136E0A0E126E98EC3EF0120081CF5E
:107DEA0013F013A602D0010E01D0000E146E11502A
:107DFA00145CD8A01AD026D008C08AFF08C007F0A1
:107E0A00010E11D008C08AFF08C007F0020E0BD07D
:107E1A0008C007F008C08AFF030E05D008C007F0A3
:107E2A0008C08AFF000E086E0DD00850000AD8B4A8
:107E3A00E3D7010AD8B4E6D7030AD8B4E9D7010AC6
:107E4A00D8B4ECD714C011F012C010F012001E0EF4
:107E5A000318D8B42CD03ED004C08CFF810E25D094
:107E6A0004C08CFF420E21D004C08CFF0250D8A45B
:107E7A0003D00150D8A405D0240E046E010E016E61
:107E8A000FD0810E08D0026E22D004C08CFF02509F
:107E9A00D8A404D0180E046E010EF5D7420E046E53
:107EAA00000EF1D704C08CFF240E046E10D00450CB
:107EBA00000AD8B4D1D7180AD8B4F4D73C0AD8B42F
:107ECA00E4D7660AD8B4D0D7C30AD8B4C9D7000E43
:107EDA00036E1200032A12001E0E0618D8B422D00E
:107EEA0040D00FC08CFF020E1BD00FC08CFF040EB7
:107EFA0017D00FC08CFF080E13D00FC08CFF100EC6
:107F0A000FD00FC08CFF200E0BD00FC08CFF400E7D
:107F1A0007D00FC08CFF800E03D00FC08CFF010E5C
:107F2A000F6E1CD00F50000AD8B4F7D7010AD8B484
:107F3A00D8D7030AD8B4D9D7060AD8B4DAD70C0ADC
:107F4A00D8B4DBD7180AD8B4DCD7300AD8B4DDD70E
:107F5A00600AD8B4DED7C00AD8B4DFD7000E066EDE
:107F6A001200062A12001E0E0518D8B423D041D0DA
:107F7A00800E0E6E3BD00EC08CFFFAD70EC08CFF5F
:107F8A00010EF7D70EC08CFF020EF3D70EC08CFF7E
:107F9A00040EEFD70EC08CFF080EEBD70EC08CFF75
:107FAA00100EE7D70EC08CFF200EE3D70EC08CFF51
:107FBA00400EDFD70E50000AD8B4DDD7010AD8B474
:107FCA00DAD7030AD8B4DAD7060AD8B4DBD70C0A48
:107FDA00D8B4DCD7180AD8B4DDD7300AD8B4DED77B
:107FEA00600AD8B4DFD7C00AD8B4E0D7000E056E4D
:067FFA001200052A12002E
:020000040020DA
:08000000FFFFFFFFFFFFFFFF00
:020000040030CA
:0E000000FF021F1EFF8381FF0FC00FE00F40A5
:00000001FF
