:0400000007EF00F016
:10000800378209ED00F0D0EF01F00600D9CF31F0CA
:10001800DACF32F0F2A413EF00F015EF00F01CEF86
:1000280000F0000ED76E060ED66EBEEC00F0F2940D
:10003800F2A221EF00F023EF00F02DEF00F0F2A87C
:1000480028EF00F02AEF00F02DEF00F0ACEC01F003
:10005800F292F0A032EF00F034EF00F03EEF00F043
:10006800F0A639EF00F03BEF00F03EEF00F088EC2F
:1000780001F0F090F0A243EF00F045EF00F04FEFF1
:1000880000F0F0A84AEF00F04CEF00F04FEF00F05E
:1000980064EC01F0F0929EAC54EF00F056EF00F0E3
:1000A80060EF00F09DAC5BEF00F05DEF00F060EFFB
:1000B80000F011EC01F09E9C32C0DAFF31C0D9FF8C
:1000C80037921100A0EF00F08984899A010E2D243F
:1000D800D96EDA6A000EDA22DF508C6E010E1F6EBE
:1000E800BDEF00F089948986010E2C24D96EDA6A56
:1000F800000EDA22DF508C6E020E1F6EBDEF00F08C
:1001080089968988010E2B24D96EDA6A000EDA22C4
:10011800DF508C6E030E1F6EBDEF00F08998898A40
:10012800010E2A24D96EDA6A000EDA22DF508C6EAC
:10013800000E1F6EBDEF00F01F502E6E2F6A2F505D
:10014800000AD8B4AAEF00F0BDEF00F02E50000A64
:10015800D8B468EF00F0010AD8B476EF00F0030ACB
:10016800D8B484EF00F0010AD8B492EF00F0BDEFE4
:1001780000F01200195007E1050E185CD8B0C7EF5F
:1001880000F0C9EF00F0CDEF00F0184A192AD3EFBC
:1001980000F066EC00F0000E196E010E186E355076
:1001A800165C36501758D8B0DCEF00F0DEEF00F0E0
:1001B800E2EF00F0164A172AE6EF00F0000E176E7D
:1001C800010E166E3350145C34501558D8B0EFEF4A
:1001D80000F0F1EF00F0F5EF00F0144A152AF9EFFE
:1001E80000F0000E156E010E146E135007E10A0E92
:1001F800125CD8B002EF01F004EF01F008EF01F053
:10020800124A132A10EF01F03FEC01F0EDEC01F077
:10021800000E136E010E126E120029EF01F0C4CF0A
:100228001DF0010E5AEC02F06CEC02F0010E216E8A
:100238003EEF01F0C4CF1EF0000E5AEC02F06CEC59
:1002480002F0000E216E3EEF01F021502F6E306A51
:100258003050000AD8B433EF01F03EEF01F02F50D0
:10026800000AD8B413EF01F0010AD8B41EEF01F068
:100278003EEF01F0120081CF2EF02EA646EF01F0DE
:1002880048EF01F04EEF01F0020E366E580E356E53
:1002980052EF01F0010E366E2C0E356E2EA857EF78
:1002A80001F059EF01F05FEF01F0030E346EE80E34
:1002B800336E63EF01F0010E346EF40E336E1200EC
:1002C80072EF01F0000E286E010E226E87EF01F02A
:1002D800010E286E000E226E87EF01F022502E6E5E
:1002E8002F6A2F50000AD8B47CEF01F087EF01F095
:1002F8002E50000AD8B466EF01F0010AD8B46CEFAA
:1003080001F087EF01F0120096EF01F0000E296E60
:10031800010E236EABEF01F0010E296E000E236E65
:10032800ABEF01F023502E6E2F6A2F50000AD8B47D
:10033800A0EF01F0ABEF01F02E50000AD8B48AEF1D
:1003480001F0010AD8B490EF01F0ABEF01F0120010
:10035800BAEF01F0000E276E010E246ECFEF01F008
:10036800010E276E000E246ECFEF01F024502E6E82
:100378002F6A2F50000AD8B4C4EF01F0CFEF01F074
:100388002E50000AD8B4AEEF01F0010AD8B4B4EF89
:1003980001F0CFEF01F01200460EF66E040EF76E74
:1003A800000EF86E00EE01F010EE1CF00900F5CF1B
:1003B800EEFFE550E150FAE100EE1DF0110EEE6A95
:1003C800E806FDE137903792000EF86E00014BEF1A
:1003D80002F01D38E842070B266E1E38E842070B6C
:1003E800256E2538E842F80B26102D6E2538E84290
:1003F800F80B26102C6E2538E842F80B26102B6EC9
:100408002538E842F80B26102A6E120066EC02F036
:1004180031EC02F03EEC02F053EC02F0898489865C
:100428008988898A010E366E2C0E356E010E346E5F
:10043800F40E336E6AEC02F061EC02F012003F0633
:100448005B4F666D7D077F6F777C395E7971000140
:1004580000010001000100010101C30E926E1F0E90
:10046800936E000E956E000E896E000E8C6E000E57
:100478008A6E1200900EF26E050EF16ED80EF06EB6
:10048800C10ED56E000ED76E060ED66E12000AEC9F
:1004980002F06EEC02F04DEF02F007EF00F0010EF3
:1004A800C26E0D0EC16E140EC06E12002E6E2E445A
:1004B800E846FC0B0109C26E1200F28A9D8CF28C90
:1004C800F28E1200D09EF29EF29C1200C28212009E
:0604D800C28212001200B6
:020000040020DA
:08000000FFFFFFFFFFFFFFFF00
:020000040030CA
:0E000000FF021F1EFF8381FF0FC00FE00F40A5
:00000001FF
