:0400000007EF00F016
:100008001C8209ED00F0ADEF00F00600F2A40FEF3E
:1000180000F011EF00F029EF00F0000ED76E060E89
:10002800D66EF40E125C010E1358D8B01EEF00F015
:1000380020EF00F024EF00F0124A132A28EF00F016
:10004800000E136E010E126EF294F2A22EEF00F063
:1000580030EF00F03AEF00F0F2A835EF00F037EF9C
:1000680000F03AEF00F0DBEC00F0F292F0A03FEF86
:1000780000F041EF00F04BEF00F0F0A646EF00F083
:1000880048EF00F04BEF00F00FEC01F0F090F0A219
:1000980050EF00F052EF00F05CEF00F0F0A857EFDF
:1000A80000F059EF00F05CEF00F00EEC01F0F09278
:1000B8001C921100898489968998899A02C08CFFBC
:1000C800000E1B6E050E1A6EC8EC00F08994898626
:1000D8008998899A03C08CFF000E1B6E050E1A6E54
:1000E800C8EC00F0899489968988899A04C08CFFA5
:1000F800000E1B6E050E1A6EC8EC00F089948996E6
:100108008998898A05C08CFF000E1B6E050E1A6E31
:10011800C8EC00F01200D09EF29EF29CEDEC00F0CC
:10012800900EF26E050EF16ED80EF06EC10ED56E01
:10013800000ED76E060ED66E800E196E010E186E62
:10014800000E156E898489868988898AF28AF28EDA
:100158001200F80EF66E010EF76E000EF86E00EE45
:1001680001F010EE13F00900F5CFEEFFE550E15075
:10017800FAE1176A166A156A146A1C901C92000E36
:10018800F86E000106EF01F0D1EF00F01A06D8A0D2
:100198001B06C80E00D0E82EFDD71A501B10D8A495
:1001A800D8EF00F0DAEF00F0CAEF00F01200030E0B
:1001B8001560E1EF00F0E3EF00F0E6EF00F0152A3C
:1001C800E8EF00F0000E156E1540E842C00B8A6E8D
:1001D80012000F0EC16EC30E926E030E936E000EC8
:1001E800956E000E896E000E8C6E000E8A6E1200DF
:1001F8003F065B4F666D7D077F6F777C395E79714F
:03020800000100F2
:10020C008FEC00F05EEC00F008EF01F007EF00F06F
:04021C0012001200BA
:020000040020DA
:08000000FFFFFFFFFFFFFFFF00
:020000040030CA
:0E000000FF021F1EFF8381FF0FC00FE00F40A5
:00000001FF
