:0400000007EF00F016
:100008001D8209ED00F0B8EF00F00600FACF01F00C
:10001800FBCF02F0E9CF03F0EACF04F0E1CF05F01F
:10002800E2CF06F0D9CF07F0DACF08F0F3CF09F026
:10003800F4CF0AF0F6CF0BF0F7CF0CF0F8CF0DF0B5
:10004800F5CF0EF01DC00FF01EC010F01FC011F04C
:1000580020C012F0F2B2F2A803D0F1EC00F0F29254
:10006800F0B0F0A603D006EC01F0F090F0B2F0A8E2
:1000780003D005EC01F0F09212C020F011C01FF07F
:1000880010C01EF00FC01DF00EC0F5FF0DC0F8FF28
:100098000CC0F7FF0BC0F6FF0AC0F4FF09C0F3FF5E
:1000A80008C0DAFF07C0D9FF06C0E2FF05C0E1FFBC
:1000B80004C0EAFF03C0E9FF02C0FBFF01C0FAFF6A
:1000C8001D92110025D0000E176E12001C5001EC75
:1000D80001F01C6E1B50FEEC00F01B6E1BC017F0ED
:1000E80012001C5001EC01F01C6E1B50FEEC00F0DD
:1000F8001B6E1CC017F012001C5001EC01F01C6EA6
:100108001B50FEEC00F01B6E1C501B10176E1200EB
:100118001850000AD8B4D7D7010AD8B4D7D7030AD9
:10012800D8B4DFD7010AD8A41200E6D7D09EF29E31
:10013800F29C0F0EC16E9368000E956E000E8C6EC9
:10014800000E8A6E100EF26E050EF16ED80EF06E6D
:10015800000E166E000E156E800E1C6E010E1B6EC4
:10016800000E186EF28E1200080EF66E020EF76E72
:10017800000EF86E0900F5CF1BF00900F5CF1CF052
:100188001A6A196A186A176A166A156A1D901D9202
:10019800000EF86E0001F9EF00F01E0E1918D8A431
:1001A80005D0000E196E66EC00F001D0192A17C0B0
:1001B8008CFF000E146E0A0E136EE4EC00F01200B1
:1001C80007D01306D8A01406C80E00D0E82EFDD715
:1001D80013501410D8B41200F4D7030E186002D0CC
:1001E800182A1200000E186E12009AEC00F0D1ECDA
:1001F80000F0FDD7136E13501200136E1350120047
:06020800020212001200C8
:020000040020DA
:08000000FFFFFFFFFFFFFFFF00
:020000040030CA
:0E000000FF021F1EFF8381FF0FC00FE00F40A5
:00000001FF
