:0400000007EF00F016
:0A0008007F82C0ED0DF095EF12F0BD
:1006000000477275706F2049206D6F646F3A202526
:10061000630044433A2025332E3364252520543A81
:100620002564000000019151800B9A6F9151912532
:10063000A06F90AF1EEF03F020EF03F021EF03F067
:10064000A081A051D8B427EF03F029EF03F03CEFCD
:1006500003F0A029D8A42FEF03F031EF03F039EF16
:1006600003F0000E8E6F000E8F6F000E906F000E65
:10067000916F908F44EF03F0000E8E6F000E8F6F1E
:10068000000E906F000E916F9551800B9A1B955143
:1006900095259F6F94AF4FEF03F051EF03F052EFAA
:1006A00003F09F819F51D8B458EF03F05AEF03F045
:1006B0006DEF03F09F29D8A460EF03F062EF03F021
:1006C0006AEF03F0000E926F000E936F000E946FAE
:1006D000000E956F948F75EF03F0000E926F000E71
:1006E000936F000E946F000E956F9F51D8B47BEFFF
:1006F00003F07DEF03F085EF03F0A051D8A483EF62
:1007000003F085EF03F08FEF03F0000E8E6F000E05
:100710008F6F000E906F000E916F27EF05F09451D0
:100720008E03F3CFA5F0F4CFA6F0A5519B6F9C6B81
:100730009D6B9E6BA651A16FA26BA36BA46B935193
:100740008F03F3CFA5F0F4CFA6F0A5519B27000EA1
:100750009C239D239E23A651A127000EA223A32301
:10076000A42392519003F3CFA5F0F4CFA6F0A551A6
:100770009B27000E9C239D239E23A651A127000E9C
:10078000A223A323A4239DC09EF09CC09DF09BC0E8
:100790009CF09B6B92518F03F3CFA5F0F4CFA6F0A2
:1007A000A5519B27A6519C23000E9D23000E9E233E
:1007B00093518E03F3CFA5F0F4CFA6F0A5519B275C
:1007C000A6519C23000E9D23000E9E239DC09EF0EB
:1007D0009CC09DF09BC09CF09B6B92518E03F3CF0D
:1007E000A5F0F4CFA6F0A5519B27A6519C23000E9F
:1007F0009D23000E9E2394518F03F3CFA5F0F4CFD9
:10080000A6F0A551A127A651A223000EA323000EF6
:10081000A42393519003F3CFA5F0F4CFA6F0A551F4
:10082000A127A651A223000EA323000EA4239451B6
:100830009003F3CFA5F0F4CFA6F0A551966FA65183
:10084000976F986B996B98C099F097C098F096C085
:1008500097F0966B9651A1279751A2239851A32305
:100860009951A4239BC096F09CC097F09DC098F02E
:100870009EC099F0190E42EF04F0D8909933983346
:1008800097339633E82E3DEF04F09651A127975108
:10089000A2239851A3239951A4239DC09EF09CC0EC
:1008A0009DF09BC09CF09B6B9F51A0C096F0976BF6
:1008B0009627000E9723820E9625A56FFF0E97218F
:1008C000A66F78EF04F0D890A137A237A337A437EA
:1008D0009EAF6DEF04F06FEF04F070EF04F0A181B4
:1008E000D8909B379C379D379E37A507D8A0A60781
:1008F000A3AF7DEF04F07FEF04F063EF04F0000E90
:100900009F6F9EAF86EF04F088EF04F0ACEF04F029
:10091000FF0E9B15966FFF0E9C15976FFF0E9D1592
:10092000986F7F0E9E15996F965197119811991196
:10093000D8B49DEF04F09FEF04F0A3EF04F0010E94
:100940009F6FACEF04F0A1A1A8EF04F0AAEF04F0B0
:10095000ACEF04F09FEF04F09F51D8B4B2EF04F075
:10096000B4EF04F0D8EF04F0010EA127000EA2238B
:10097000A323A423A4A1BFEF04F0C1EF04F0D8EF98
:1009800004F0A1C096F0A2C097F0A3C098F0A4C054
:1009900099F09935993398339733963396C0A1F0EF
:1009A00097C0A2F098C0A3F099C0A4F0A54BA62BC5
:1009B000A6BFE3EF04F0A65108E1A529D8A0E3EF14
:1009C00004F0E5EF04F0EFEF04F0000EA16F000E6D
:1009D000A26F800EA36F7F0EA46F1DEF05F0A6BF60
:1009E000FCEF04F0A65106E1A505D8B0FAEF04F03B
:1009F000FCEF04F008EF05F0000EA16F000EA26FEF
:100A0000000EA36F000EA46F000E9A6F1DEF05F08D
:100A1000A5C0A0F0FF0EA117FF0EA2177F0EA3170F
:100A2000000EA417A0A117EF05F019EF05F01AEFBB
:100A300005F0A38FD890A031A46F9A51A413A1C040
:100A40008EF0A2C08FF0A3C090F0A4C091F012006D
:100A500041C0D9FF42C0DAFFDECFF6FFDDCFF7FF9E
:100A60000800F550250AD8A438EF05F03AEF05F054
:100A700002EF07F041C0D9FF42C0DAFFDE2A000EC4
:100A8000DD22000E0001CD6F000ECC6FCCC07AF0DD
:100A9000CE69CF6941C0D9FF42C0DAFFDECFF6FF91
:100AA000DDCFF7FF0800F5502A0AD8A45AEF05F069
:100AB0005CEF05F085EF05F041C0D9FF42C0DAFFD9
:100AC000DE2A000EDD2243C0D9FF44C0DAFFDFCFAB
:100AD00045F0020EDE26DFCF46F0000EDD2245C0D7
:100AE000D9FF46C0DAFFDECFCCF0DDCFCDF0CDBFF1
:100AF0007EEF05F07CEF05F0B8EF05F07A80CC6D65
:100B0000CD1FD8B0CD2BB8EF05F041C0D9FF42C002
:100B1000DAFFDECF07F0DDCF08F076EC0CF007C08F
:100B2000CCF008C0CDF09CEF05F041C0D9FF42C029
:100B3000DAFFDE2A000EDD2241C0D9FF42C0DAFF13
:100B4000DECFF6FFDDCFF7FF0800F5CF45F0D00E82
:100B50004524466E476AFF0E4722475009E10A0EB8
:100B6000465CD8A0B6EF05F0B8EF05F095EF05F0BC
:100B700041C0D9FF42C0DAFFDECFF6FFDDCFF7FF7D
:100B80000800F5502E0AD8A4C8EF05F0CAEF05F00A
:100B900038EF06F0000E0001CF6F000ECE6F41C09F
:100BA000D9FF42C0DAFFDE2A000EDD2241C0D9FFA4
:100BB00042C0DAFFDECFF6FFDDCFF7FF0800F550C9
:100BC0002A0AD8A4E6EF05F0E8EF05F005EF06F0F5
:100BD00041C0D9FF42C0DAFFDE2A000EDD2243C049
:100BE000D9FF44C0DAFFDFCF45F0020EDE26DFCFAB
:100BF00046F0000EDD2245C0D9FF46C0DAFFDECF49
:100C0000CEF0DDCFCFF038EF06F041C0D9FF42C0C3
:100C1000DAFFDECF07F0DDCF08F076EC0CF007C08E
:100C2000CEF008C0CFF01CEF06F041C0D9FF42C0A3
:100C3000DAFFDE2A000EDD2241C0D9FF42C0DAFF12
:100C4000DECFF6FFDDCFF7FF0800F5CF45F0D00E81
:100C50004524466E476AFF0E4722475009E10A0EB7
:100C6000465CD8A036EF06F038EF06F015EF06F038
:100C700041C0D9FF42C0DAFFDECFF6FFDDCFF7FF7C
:100C80000800F550630AD8A448EF06F04AEF06F0D2
:100C90006DEF06F041C0D9FF42C0DAFFDE2A000E38
:100CA000DD2243C0D9FF44C0DAFFDFCF45F0020E9A
:100CB000DE26DFCF46F0000EDD2245C0D9FF46C05C
:100CC000DAFFDF50506E3FC00AF040C00BF050C05A
:100CD0000CF0AFEC0FF016EF07F041C0D9FF42C0A7
:100CE000DAFFDECF51F0DDCF52F051C0F6FF52C037
:100CF000F7FF0800F550640AD8B481EF06F083EFDF
:100D000006F091EF06F051C0F6FF52C0F7FF080061
:100D1000F550690AD8A48FEF06F091EF06F0D4EFF2
:100D200006F043C0D9FF44C0DAFFDFCF45F0020E22
:100D3000DE26DFCF46F0000EDD2245C0D9FF46C0DB
:100D4000DAFFDECF48F0DDCF49F0000E49BEFF0EDE
:100D50004A6E4B6E4C6E4D6E4E6E4F6E010E5124B0
:100D6000456E000E5220466E41C0D9FF42C0DAFFE8
:100D700045C0DEFF46C0DDFF3FC01CF040C01DF097
:100D800048C01EF049C01FF04AC020F04BC021F0FF
:100D90004CC022F04DC023F04EC024F04FC025F0CF
:100DA000E5EC08F016EF07F041C0D9FF42C0DAFFCA
:100DB000DECFF6FFDDCFF7FF0800F550250AD8A4F7
:100DC000E4EF06F0E6EF06F0F9EF06F041C0D9FFD8
:100DD00042C0DAFFDE2A000EDD22000E026E250E72
:100DE000016E3FC003F040C004F014EC10F016EFA9
:100DF00007F041C0D9FF42C0DAFFDE2A000EDD2233
:100E000016EF07F041C0D9FF42C0DAFFDECFF6FF90
:100E1000DDCFF7FF0800F550016E026A3FC003F016
:100E200040C004F014EC10F0F9EF06F012000001DD
:100E3000AA51800BB76FAA51AA25BE6FA9AF23EFA5
:100E400007F025EF07F026EF07F0BE81BE51D8B4BA
:100E50002CEF07F02EEF07F043EF07F0BE29D8A4E0
:100E600034EF07F036EF07F03EEF07F0000EA76F04
:100E7000000EA86F000EA96F000EAA6FA98F000EBA
:100E8000AA6F4BEF07F0000EA76F000EA86F000EC1
:100E9000A96F000EAA6FAE51800BB71BAE51AE25E5
:100EA000BF6FADAF56EF07F058EF07F059EF07F0FF
:100EB000BF81BF51D8B45FEF07F061EF07F076EF65
:100EC00007F0BF29D8A467EF07F069EF07F071EFCB
:100ED00007F0000EAB6F000EAC6F000EAD6F000E92
:100EE000AE6FAD8F000EAE6F7EEF07F0000EAB6FF2
:100EF000000EAC6F000EAD6F000EAE6FAB51AC11BB
:100F0000AD11AE11D8A487EF07F089EF07F0A1EF7C
:100F100007F0000EA76F000EA86F000EA96F000E5D
:100F2000AA6F800EA9137F0EAA13B751AA13A7C0E8
:100F3000A7F0A8C0A8F0A9C0A9F0AAC0AAF0E4EF41
:100F400008F0BE51D8A4A7EF07F0A9EF07F0B3EF60
:100F500007F0000EA76F000EA86F000EA96F000E1D
:100F6000AA6FE4EF08F0BF51BEC0AFF0B06BAF5F47
:100F7000000EB05B7F0EAF25B86F000EB021B96FC9
:100F8000A7C0B3F0A8C0B4F0A9C0B5F0AAC0B6F02D
:100F9000000EA76F000EA86F000EA96F000EAA6FBB
:100FA000000EBA6F000EBB6F000EBC6F000EBD6F5F
:100FB000000EBF6F14EF08F0BF51D8B4E2EF07F096
:100FC000E4EF07F0FBEF07F0D890B337B437B5374D
:100FD000B637D890A737A837A937AA37BDAFF3EFF0
:100FE00007F0F5EF07F0F6EF07F0A781D890BA37D2
:100FF000BB37BC37BD37AB51B35DAC51B459AD5104
:10100000B559AE51B659D8A008EF08F00AEF08F06C
:1010100013EF08F0BD8DAB51B35FAC51B45BAD5174
:10102000B55BAE51B65BBF2B190EBF651AEF08F06A
:101030001CEF08F0DCEF07F0B351B411B511B61195
:10104000D8B425EF08F027EF08F03FEF08F0BA8199
:101050003FEF08F0D890A737A837A937AA37BDAF18
:1010600034EF08F036EF08F037EF08F0A781D8909A
:10107000BA37BB37BC37BD37B807D8A0B907A9AF57
:1010800044EF08F046EF08F02AEF08F0000EBF6FBB
:10109000BDAF4DEF08F04FEF08F073EF08F0FF0E13
:1010A000BA15AF6FFF0EBB15B06FFF0EBC15B16F59
:1010B0007F0EBD15B26FAF51B011B111B211D8B4DE
:1010C00064EF08F066EF08F06AEF08F0010EBF6FFA
:1010D00073EF08F0A7A16FEF08F071EF08F073EF5E
:1010E00008F066EF08F0BF51D8B479EF08F07BEF55
:1010F00008F09FEF08F0010EA727000EA823A923F0
:10110000AA23AAA186EF08F088EF08F09FEF08F065
:10111000A7C0AFF0A8C0B0F0A9C0B1F0AAC0B2F0AB
:10112000B235B233B133B033AF33AFC0A7F0B0C0D4
:10113000A8F0B1C0A9F0B2C0AAF0B84BB92BB9BFA2
:10114000AAEF08F0B95108E1B829D8A0AAEF08F031
:10115000ACEF08F0B7EF08F0000EB96FB869000EF9
:10116000A76F000EA86F000EA96F000EAA6FB9BF7F
:10117000C4EF08F0B95106E1B805D8B0C2EF08F0E5
:10118000C4EF08F0D2EF08F0000EB96F000EB86F90
:10119000000EA76F000EA86F000EA96F000EAA6FB9
:1011A000000EB76FB8C0BEF0BEA1D9EF08F0DBEFFC
:1011B00008F0DEEF08F0A98FDFEF08F0A99FD890C4
:1011C000BE31AA6F95EF07F012001EC034F01FC0A9
:1011D00035F020C036F021C037F022C038F023C0EF
:1011E00039F024C03AF025C03BF03BBEFAEF08F0DE
:1011F000FDEF08F0010EFEEF08F0000E3E6E3E50CF
:10120000D8B405EF09F007EF09F017EF09F03B1E1E
:101210003A1E391E381E371E361E351E346C000E1F
:10122000352236223722382239223A223B22000147
:10123000CFBF25EF09F0CF5106E1CE05D8B023EF9F
:1012400009F025EF09F02BEF09F0000E316E010EC9
:10125000306E2FEF09F0CEC030F0CFC031F0CCC0EF
:1012600032F0CDC033F03E50D8B439EF09F03BEF47
:1012700009F052EF09F03206D8A033063E50D8A448
:1012800044EF09F046EF09F04CEF09F0000E2F6E25
:101290002B0E2E6E50EF09F0000E2F6E2D0E2E6EBF
:1012A0002EC03EF0000E3D6E1F0E3C6E000E010182
:1012B0005A6FD7EF09F03C06D8A03D063B0E3C2400
:1012C000D96E010E3D20DA6E34C001F035C002F057
:1012D00036C003F037C004F038C005F039C006F05E
:1012E0003AC007F03BC008F00A0E096E000E0A6E05
:1012F000000E0B6E000E0C6E000E0D6E000E0E6ECC
:10130000000E0F6E000E106EC4EC0BF001C026F044
:1013100002C027F003C028F004C029F005C02AF05D
:1013200006C02BF007C02CF008C02DF026C013F02B
:1013300027C014F0CDEC14F01350300FDF6E3006E0
:10134000D8A031063206D8A0330634C001F035C02B
:1013500002F036C003F037C004F038C005F039C0E1
:1013600006F03AC007F03BC008F00A0E096E000E06
:101370000A6E000E0B6E000E0C6E000E0D6E000E4F
:101380000E6E000E0F6E000E106E00EC0BF001C022
:1013900034F002C035F003C036F004C037F005C0A9
:1013A00038F006C039F007C03AF008C03BF03DBE47
:1013B000E2EF09F03D5008E13C04D8A0E2EF09F06B
:1013C000E4EF09F000EF0AF0345035103610371012
:1013D000381039103A103B10D8A4F1EF09F0F3EFB0
:1013E00009F05BEF09F031BE00EF0AF0315006E181
:1013F0003004D8B0FEEF09F000EF0AF05BEF09F01F
:101400003E50D8B406EF0AF008EF0AF013EF0AF0E6
:101410003C06D8A03D063B0E3C24D96E010E3D2073
:10142000DA6E3EC0DFFF1CC011F01DC012F03B0E93
:101430003C24136E010E3D20146E32C015F033C0F3
:1014400016F040EC12F012000001886F0001885184
:10145000D8B42DEF0AF02FEF0AF051EF0AF083BF56
:1014600036EF0AF034EF0AF051EF0AF080C084F052
:1014700081C085F082C086F083C087F0841F851FFD
:10148000861F871F842B000E85238623872384C015
:101490008AF085C08BF086C08CF087C08DF059EF44
:1014A0000AF080C08AF081C08BF082C08CF083C0CB
:1014B0008DF08051811182118311D8A462EF0AF05E
:1014C00064EF0AF06EEF0AF0000E806F000E816F7D
:1014D000000E826F000E836FFFEF0AF0960E896F89
:1014E00078EF0AF0892BD8908D338C338B338A3385
:1014F000000E8A15846F000E8B15856F000E8C15FB
:10150000866FFE0E8D15876F8451851186118711A8
:10151000D8A48DEF0AF08FEF0AF072EF0AF09DEF7A
:101520000AF0892B010E8A27000E8B238C238D2332
:10153000D8908D338C338B338A33000E8A15846FA9
:10154000000E8B15856F000E8C15866FFF0E8D15A6
:10155000876F8451851186118711D8A4B2EF0AF0E4
:10156000B4EF0AF091EF0AF0BCEF0AF08907D890C7
:101570008A378B378C378D378CBFC1EF0AF0C3EFBA
:101580000AF0CBEF0AF0020E8961C9EF0AF0CBEF47
:101590000AF0B6EF0AF089B1D0EF0AF0D2EF0AF004
:1015A000D3EF0AF08C9FD890893389C084F0856B83
:1015B000866B876B84C087F0866B856B846B8451E8
:1015C0008A1385518B1386518C1387518D13885143
:1015D000D8B4EDEF0AF0EFEF0AF0F7EF0AF083BFAF
:1015E000F6EF0AF0F4EF0AF0F7EF0AF08D8F8AC0F9
:1015F00080F08BC081F08CC082F08DC083F012002F
:10160000000E126E10BE09EF0BF007EF0BF01BEF90
:101610000BF0101E0F1E0E1E0D1E0C1E0B1E0A1EA2
:10162000096C000E0A220B220C220D220E220F2220
:101630001022010E126E08BE22EF0BF020EF0BF00D
:1016400034EF0BF0081E071E061E051E041E031EA7
:10165000021E016C000E0222032204220522062231
:1016600007220822010E121A20EE13F0070EDE6A7E
:10167000E806FDE209500A100B100C100D100E10B8
:101680000F101010D8B447EF0BF049EF0BF09BEFA1
:101690000BF0010E116E57EF0BF0D89009360A3699
:1016A0000B360C360D360E360F361036112A10AEAC
:1016B0005CEF0BF05EEF0BF04DEF0BF0D8901336B4
:1016C0001436153616361736183619361A360950A6
:1016D000015C0A5002580B5003580C5004580D502E
:1016E00005580E5006580F50075810500858D8A0EB
:1016F0007CEF0BF07EEF0BF08FEF0BF00950015EEB
:101700000A50025A0B50035A0C50045A0D50055AF5
:101710000E50065A0F50075A1050085A1380D8908E
:1017200010320F320E320D320C320B320A320932C5
:10173000112E5EEF0BF01250D8B4A1EF0BF0A3EF17
:101740000BF0B3EF0BF01A1E191E181E171E161EF3
:10175000151E141E136C000E1422152216221722B9
:10176000182219221A2213C001F014C002F015C069
:1017700003F016C004F017C005F018C006F019C039
:1017800007F01AC008F01200000E126E08BECDEF6E
:101790000BF0CBEF0BF0DFEF0BF0081E071E061E61
:1017A000051E041E031E021E016C000E02220322EF
:1017B00004220522062207220822010E126E10BE04
:1017C000E6EF0BF0E4EF0BF0F6EF0BF0101E0F1E40
:1017D0000E1E0D1E0C1E0B1E0A1E096C000E0A2288
:1017E0000B220C220D220E220F22102209500A1069
:1017F0000B100C100D100E100F101010D8B403EFBA
:101800000CF005EF0CF04DEF0CF0010E116E13EF24
:101810000CF0D89009360A360B360C360D360E36DB
:101820000F361036112A10AE18EF0CF01AEF0CF02C
:1018300009EF0CF00950015C0A5002580B50035894
:101840000C5004580D5005580E5006580F500758AC
:1018500010500858D8A02FEF0CF031EF0CF041EFEA
:101860000CF00950015E0A50025A0B50035A0C50FA
:10187000045A0D50055A0E50065A0F50075A105070
:10188000085AD89010320F320E320D320C320B3211
:101890000A320932112E1AEF0CF01250D8B453EF5D
:1018A0000CF055EF0CF065EF0CF0081E071E061E3D
:1018B000051E041E031E021E016C000E02220322DE
:1018C0000422052206220722082201C001F002C0DC
:1018D00002F003C003F004C004F005C005F006C028
:1018E00006F007C007F008C008F01200000E0F6EE7
:1018F000000E0E6E000E0D6E000E0C6E82EF0CF0E0
:10190000074A082A07C0F6FF08C0F7FF0800F5508D
:10191000200AD8B48EEF0CF090EF0CF080EF0CF0B2
:1019200007C0F6FF08C0F7FF0800F5CF09F0F70E73
:1019300009240A6E0B6AFF0E0B220B5009E1050EFB
:101940000A5CD8A0A6EF0CF0A8EF0CF080EF0CF02A
:10195000B2EF0CF0000E0D6E010E0C6E074A082A55
:10196000E7EF0CF007C0F6FF08C0F7FF0800F550DE
:10197000096E0A6A0A50000AD8B4C1EF0CF0E7EF0A
:101980000CF009502B0AD8B4AEEF0CF0060AD8B40C
:10199000AAEF0CF0E7EF0CF00EC001F00FC002F060
:1019A000000E046E0A0E036EB0EC15F007C0F6FFD1
:1019B00008C0F7FF0800F550015E000E025A300E15
:1019C00001240E6E000E02200F6EAEEF0CF007C069
:1019D000F6FF08C0F7FF0800F5CF09F0D00E092484
:1019E0000A6E0B6AFF0E0B220B5009E10A0E0A5C0D
:1019F000D8A0FDEF0CF0FFEF0CF0CCEF0CF00C508A
:101A00000D10D8A406EF0DF008EF0DF016EF0DF055
:101A10000EC009F00FC00AF0091E0A1E094A0A2A60
:101A200009C007F00AC008F01AEF0DF00EC007F069
:101A30000FC008F0120081CF0BF00BA022EF0DF0C9
:101A400024EF0DF028EF0DF0010E056E2AEF0DF0DA
:101A5000000E056E0BA22FEF0DF031EF0DF035EFFC
:101A60000DF0010E066E37EF0DF0000E066E0BA4A2
:101A70003CEF0DF03EEF0DF042EF0DF0010E076E62
:101A800044EF0DF0000E076E0BA649EF0DF04BEF83
:101A90000DF04FEF0DF0010E086E51EF0DF0000E3E
:101AA000086E0BA856EF0DF058EF0DF05CEF0DF03F
:101AB000010E096E5EEF0DF0000E096E0BAA63EFCA
:101AC0000DF065EF0DF069EF0DF0010E0A6E6BEF92
:101AD0000DF0000E0A6E0001FE51055CD8B073EFE8
:101AE0000DF075EF0DF077EF0DF038EC16F000010A
:101AF000FD51065CD8B07FEF0DF081EF0DF083EF64
:101B00000DF037EC16F00001FC51075CD8B08BEFFC
:101B10000DF08DEF0DF08FEF0DF036EC16F00001AB
:101B2000FB51085CD8B097EF0DF099EF0DF09BEFEB
:101B30000DF0E5EC15F00001FA51095CD8B0A3EF07
:101B40000DF0A5EF0DF0A7EF0DF044EC15F000013E
:101B5000F9510A5CD8B0AFEF0DF0B1EF0DF0B3EF73
:101B60000DF0EDEC14F005C0FEF006C0FDF007C06E
:101B7000FCF008C0FBF009C0FAF00AC0F9F012004E
:101B80000600E1CF70F0E2CF71F0D9CF72F0DACF7A
:101B900073F0F3CF74F0F4CF75F0F6CF76F0F7CFA3
:101BA00077F0F8CF78F0F5CF79F0F2A4DAEF0DF016
:101BB000DCEF0DF0EAEF0DF0F2AAE1EF0DF0E3EF4C
:101BC0000DF0EAEF0DF0060ED626000ED7224AECF5
:101BD0000FF0F294F2A2EFEF0DF0F1EF0DF0F9EF4C
:101BE0000DF0F2A8F6EF0DF0F8EF0DF0F9EF0DF0B3
:101BF000F292F0A0FEEF0DF000EF0EF008EF0EF005
:101C0000F0A605EF0EF007EF0EF008EF0EF0F090E3
:101C1000F0A20DEF0EF00FEF0EF017EF0EF0F0A8A0
:101C200014EF0EF016EF0EF017EF0EF0F0929EACE0
:101C30001CEF0EF01EEF0EF02DEF0EF09DAC23EF1B
:101C40000EF025EF0EF02DEF0EF0F2AC2AEF0EF0B5
:101C50002CEF0EF02DEF0EF09E9C9EA232EF0EF0B8
:101C600034EF0EF043EF0EF09DA239EF0EF03BEF94
:101C70000EF043EF0EF0F2AC40EF0EF042EF0EF03C
:101C800043EF0EF09E9279C0F5FF78C0F8FF77C061
:101C9000F7FF76C0F6FF75C0F4FF74C0F3FF73C0A2
:101CA000DAFF72C0D9FF71C0E2FF70C0E1FF7F921E
:101CB00011000001C235C335C96FC951D8A463EF03
:101CC0000EF065EF0EF06FEF0EF0000EC06F000E1D
:101CD000C16F000EC26F000EC36FDCEF0EF0C0C00C
:101CE000C4F0C1C0C5F0C2C0C6F0C3C0C7F0200E6A
:101CF0007FEF0EF0D890C733C633C533C433E82E18
:101D00007AEF0EF0C451C86FC28FFF0EC017FF0EDE
:101D1000C117FF0EC217000EC317960EC95FC9BFC9
:101D200096EF0EF094EF0EF0ACEF0EF0C951800A72
:101D3000970FD8B09EEF0EF0A0EF0EF0A2EF0EF0CE
:101D400065EF0EF0D890C333C233C133C033C93FFF
:101D5000A2EF0EF0C4EF0EF01F0EC965B2EF0EF049
:101D6000B4EF0EF0BCEF0EF065EF0EF0D890C03778
:101D7000C137C237C337C907C951D8A4C2EF0EF063
:101D8000C4EF0EF0B6EF0EF0C851D8B4CAEF0EF0A3
:101D9000CCEF0EF0D4EF0EF0C31FC21FC11FC06DF9
:101DA000000EC123C223C323C0C0C0F0C1C0C1F014
:101DB000C2C0C2F0C3C0C3F012007E50D8B4E3EF7B
:101DC0000EF0E5EF0EF018EF0FF07DC080F000018F
:101DD000816B000E836F0A0E826F79EC10F00001A8
:101DE0008051ED6F7DC080F0816B000E836F0A0E15
:101DF000826F39EC11F000018051EC6FE4C080F08B
:101E0000816B000E836F0A0E826F79EC10F0000177
:101E10008051EB6FE4C080F0816B000E836F0A0E7F
:101E2000826F39EC11F000018051EA6F49EF0FF039
:101E30007BC080F00001816B000E836F0A0E826F01
:101E400079EC10F000018051ED6F7BC080F0816B68
:101E5000000E836F0A0E826F39EC11F00001805181
:101E6000EC6F7CC080F0816B000E836F0A0E826F76
:101E700079EC10F000018051EB6F7CC080F0816B39
:101E8000000E836F0A0E826F39EC11F00001805151
:101E9000EA6F1200847049EC13F00001F65107E17B
:101EA000050EF55DD8B057EF0FF059EF0FF05DEF6D
:101EB0000FF0F54BF62B64EF0FF092EC11F0000EE3
:101EC0000001F66F010EF56FF45107E10A0EF35DA4
:101ED000D8B06DEF0FF06FEF0FF073EF0FF0F34B23
:101EE000F42B7AEF0FF01BEC0DF0000E0001F46FF5
:101EF000010EF36FF751F15DF851F259D8B083EF4D
:101F00000FF085EF0FF089EF0FF0F14BF22B98EF08
:101F10000FF0E351D8B48FEF0FF091EF0FF093EF84
:101F20000FF010EC13F0000E0001F26F010EF16FD4
:101F3000F05107E1640EEF5DD8B0A1EF0FF0A3EF11
:101F40000FF0A7EF0FF0EF4BF02BAEEF0FF0DCEC44
:101F500010F0000E0001F06F010EEF6F1200000193
:101F6000CC51CD11D8A4B7EF0FF0B9EF0FF0BFEF00
:101F70000FF0CCC010F0CDC011F0C5EF0FF0FF0E88
:101F8000CC25106EFF0ECD21116E7AA0CAEF0FF096
:101F9000CCEF0FF0D5EF0FF00CC001F0026A0AC0D1
:101FA00003F00BC004F014EC10F011BEDAEF0FF0E8
:101FB000DCEF0FF0DEEF0FF0E2EF0FF0000E116E2E
:101FC000000E106E000E0F6E000E0E6EF4EF0FF08E
:101FD000000E026E200E016E0AC003F00BC004F06A
:101FE00014EC10F00E4A0F2A10500E5C0F50800AAD
:101FF0000D6E1150800A0D58D8A001EF10F003EFBC
:1020000010F0E8EF0FF07AB008EF10F00AEF10F0E0
:1020100013EF10F00CC001F0026A0AC003F00BC00D
:1020200004F014EC10F0120003500410D8B41BEFAD
:1020300010F01DEF10F026EF10F003500410D8A49C
:1020400024EF10F026EF10F02BEF10F0015035ECDC
:1020500016F078EF10F020EE09F00350D926045066
:10206000DA22DE50DE10D8B438EF10F03AEF10F07C
:1020700055EF10F020EE09F00350D9260450DA2273
:1020800010EE03F00350E1260450E222DE50E65C3D
:10209000E650800A096EDE50800A0958D8B053EF26
:1020A00010F055EF10F078EF10F020EE03F0035031
:1020B000D9260450DA22DECF05F0DDCF06F003C0CA
:1020C000D9FF04C0DAFFDECF07F0DDCF08F00550FE
:1020D0000724D96E06500820DA6E01C0DFFF20EE1B
:1020E00003F00350D9260450DA22DE2A000EDD2246
:1020F0001200000E0001856F83BF83EF10F081EFA7
:1021000010F089EF10F0826D831FD8B0832B010E81
:10211000856F81BF90EF10F08EEF10F096EF10F00A
:10212000806D811FD8B0812B010E851B000E876F3B
:10213000000E866F82518311D8B4A1EF10F0A3EF87
:1021400010F0CBEF10F0010E846FABEF10F0D890D1
:1021500082378337842B83AFB0EF10F0B2EF10F0EB
:10216000A7EF10F0D890863787378251805D835172
:102170008159D8A0BEEF10F0C0EF10F0C5EF10F0FD
:102180008251805F8351815B8681D8908333823313
:10219000842FB2EF10F08551D8B4D1EF10F0D3EF07
:1021A00010F0D7EF10F0866D871FD8B0872B86C050
:1021B00080F087C081F012008CCFDEF07E50D8B462
:1021C000E4EF10F0E6EF10F0EBEF10F0410E00013D
:1021D000DC6FEEEF10F0540E0001DC6FDD517E1865
:1021E000D8B4F5EF10F0F7EF10F00DEF11F0800E0E
:1021F000C3EC15F05B0E5B6E010E5C6E010E5D6E46
:10220000060E5E6EDCC05FF0606A18EC14F05B0EC8
:10221000036E010E046E0CEC15F00001FF51D8B4F2
:1022200014EF11F016EF11F034EF11F0C00EC3EC03
:1022300015F05B0E5B6E010E5C6E120E5D6E060E8F
:102240005E6ED4C05FF0D5C060F0D2C061F0D3C084
:1022500062F018EC14F05B0E036E010E046E0CECD1
:1022600015F0000E0001FF6F7EC0DDF0DEC08CFFB8
:102270001200000E0001856F81BF43EF11F041EFA6
:1022800011F049EF11F0806D811FD8B0812B010E44
:10229000856F83BF50EF11F04EEF11F054EF11F046
:1022A000826D831FD8B0832B82518311D8B45BEF2A
:1022B00011F05DEF11F081EF11F0010E846F65EF09
:1022C00011F0D89082378337842B83AF6AEF11F0F7
:1022D0006CEF11F061EF11F08251805D83518159F3
:1022E000D8A075EF11F077EF11F07BEF11F082516C
:1022F000805F8351815BD89083338233842F6CEF6E
:1023000011F08551D8B487EF11F089EF11F08DEFFE
:1023100011F0806D811FD8B0812B80C080F081C00A
:1023200081F01200CCEF11F08984899A220EED25FC
:10233000D96EDA6A010EDA22DF508C6E010EE76F79
:10234000EAEF11F089948986220EEC25D96EDA6ABB
:10235000010EDA22DF508C6E020EE76FEAEF11F009
:1023600089968988220EEB25D96EDA6A010EDA2267
:10237000DF508C6E030EE76FEAEF11F08998898ABF
:10238000220EEA25D96EDA6A010EDA22DF508C6E4F
:10239000000EE76FEAEF11F00001E751016E026AEB
:1023A0000250000AD8B4D7EF11F0EAEF11F0015053
:1023B000000AD8B494EF11F0010AD8B4A2EF11F0DA
:1023C000030AD8B4B0EF11F0010AD8B4BEEF11F08F
:1023D000EAEF11F01200DDEC0EF0B2EC13F00001A8
:1023E000E251640DF3CFCAF0F4CFCBF0E151CA252E
:1023F000D26F000ECB21D36F7E50D8A402EF12F023
:1024000004EF12F03FEF12F0000EAB6FC00EAC6F96
:102410007F0EAD6F440EAE6F000E926F000E936F85
:10242000C80E946F420E956FD6C080F0D7C081F071
:10243000826B836B000E24EC0AF080C08EF081C0AA
:102440008FF082C090F083C091F012EC03F08EC048
:10245000A7F08FC0A8F090C0A9F091C0AAF017EC27
:1024600007F0A7C0C0F0A8C0C1F0A9C0C2F0AAC0C0
:10247000C3F059EC0EF0C0C0D4F0C1C0D5F01200CA
:102480007AA045EF12F047EF12F051EF12F013C0AF
:102490000AF014C00BF011C00CF012C00DF0ABEC40
:1024A00014F016BE56EF12F058EF12F05EEF12F075
:1024B00015C01AF016C01BF062EF12F0000E1B6E72
:1024C000000E1A6E000E196E000E186E74EF12F0E8
:1024D000000E026E200E016E11C003F012C004F057
:1024E00014EC10F0184A192A1A50185C1950800A76
:1024F000176E1B50800A1758D8A081EF12F083EF97
:1025000012F068EF12F07AB088EF12F08AEF12F052
:1025100094EF12F013C00AF014C00BF011C00CF0CD
:1025200012C00DF0ABEC14F01200520EF66E2A0E33
:10253000F76E000EF86E01EE00F010EE35F00900B7
:10254000F5CFEEFFE550E150FAE1000EF66E2C0EED
:10255000F76E000EF86E00EEEFF010EE11F00900CD
:10256000F5CFEEFFE550E150FAE1720EF66E2C0E5B
:10257000F76E000EF86E0900F5CF7EF001EE35F033
:10258000300EEE6AE806FDE100EECCF0230EEE6AB6
:10259000E806FDE17D6A7C6A7B6A7A6A7F907F92B9
:1025A000000EF86E000109EF16F0000E0001856FB5
:1025B000000E846F82518311D8B4E1EF12F0E3EF83
:1025C00012F00BEF13F0010E866FEBEF12F0D890C4
:1025D00082378337862B83AFF0EF12F0F2EF12F0E1
:1025E000E7EF12F0D890843785378251805D8351B0
:1025F0008159D8A0FEEF12F000EF13F005EF13F0B1
:102600008251805F8351815B8481D8908333823390
:10261000862FF2EF12F084C080F085C081F01200A6
:102620007C50D8A416EF13F018EF13F025EF13F039
:102630007B50D8B41EEF13F020EF13F025EF13F00A
:102640003B0E7C6E7B0648EF13F07C067B50D8A4D3
:102650002CEF13F02EEF13F048EF13F07C50D8A4BA
:1026600034EF13F036EF13F048EF13F0000E7C6EEA
:102670007CC07BF0000E0001E36F000E026E000EC6
:10268000016E74EC15F0010E7E6E000E0001DF6F1E
:10269000120067EF13F0C3CF35F1C4CF36F1010E4E
:1026A00018EC16F033EC16F0010E0001EE6F7DEF22
:1026B00013F0C3CF37F1C4CF38F1000E18EC16F089
:1026C00033EC16F0000E0001EE6F7DEF13F0000109
:1026D000EE51026E036A0350000AD8B472EF13F091
:1026E0007DEF13F00250000AD8B44BEF13F0010A4B
:1026F000D8B459EF13F07DEF13F012008492849454
:102700001A0E0001826FF80EE82EFED7822FFCD73A
:1027100000F08482380E9DEC15F0070E0001826FE8
:102720007D0EE82EFED7822FFCD7380E9DEC15F0DB
:10273000C80E00D0E82EFDD7380E9DEC15F0080E1F
:102740009DEC15F00F0E9DEC15F0010E9DEC15F0B3
:10275000380E9DEC15F0800E9DEC15F00C0E9DECE6
:1027600015F0120035C1D0F036C1D1F0E90E0001EC
:10277000D05D030ED159D8A0C0EF13F0C2EF13F013
:10278000C6EF13F0030ED16FE80ED06FD0C080F00B
:10279000D1C081F0000E836F640E826FD5EC12F011
:1027A000000180517D6ED0C080F0D1C081F0000E5C
:1027B000836F640E826FE5EC13F000018051E46FCB
:1027C00037C1D6F038C1D7F0120000018251831111
:1027D000D8B4EDEF13F0EFEF13F013EF14F0010E98
:1027E000846FF7EF13F0D89082378337842B83AF51
:1027F000FCEF13F0FEEF13F0F3EF13F08251805D66
:1028000083518159D8A007EF14F009EF14F00DEFB0
:1028100014F08251805F8351815BD890833382337F
:10282000842FFEEF13F080C080F081C081F0120091
:102830005F0E636E000E646E5BC065F05CC066F098
:10284000000E696E000E686E000E6F6E000E6E6EEA
:10285000650E536E000E546E5DC055F05EC056F0AE
:10286000630E576E000E586E3FEC14F068505B24F8
:10287000D96E69505C20DA6E000EDF6E120055C012
:1028800059F056C05AF053EF14F053C03FF054C003
:1028900040F0590E416E000E426E57C043F058C0D2
:1028A00044F028EC05F059C0F6FF5AC0F7FF0800C5
:1028B000F5500009D8A45FEF14F061EF14F045EF74
:1028C00014F0000E546E000E536E1200010E056ED1
:1028D000200E01180210D8B470EF14F072EF14F04B
:1028E00085EF14F0F70E0124036EFF0E0220046E34
:1028F000045009E1050E035CD8A081EF14F083EFCA
:1029000014F085EF14F0000E056E05C001F0026AA8
:10291000120029EC16F08AEC15F0F3EC15F0040E19
:10292000CA6E9D82CB680C0EBD6E11EC16F08984C8
:1029300089868988898A7EEC13F0000E0001ED6F8C
:10294000000EEC6F000EEB6F000EEA6F24EC16F039
:1029500031EC16F01200000E106E000E0F6EBCEF80
:1029600014F00EC001F0026A0CC003F00DC004F0B8
:1029700014EC10F00F4A102A0F500A24D96E105090
:102980000B20DA6EDF500E6E0E50D8A4CAEF14F092
:10299000CCEF14F0B1EF14F0120014BEDAEF14F023
:1029A000145006E11304D8B0D8EF14F0DAEF14F0A5
:1029B000E8EF14F013C015F014C016F0151E161E23
:1029C000154A162A15C013F016C014F0ECEF14F0D7
:1029D00013C013F014C014F012000001E051D8B479
:1029E000F4EF14F0F6EF14F0FCEF14F0D6C001F0A1
:1029F000D7C002F074EC15F00001DF51D8B403EF3A
:102A000015F005EF15F009EF15F0E1C07CF0E2C01C
:102A10007BF0010EE36F1200000E056E1AEF15F049
:102A200005500324D96E000E0420DA6EDF50D4EC7A
:102A300015F0052A05500324D96E000E0420DA6E25
:102A4000DF50D8A426EF15F028EF15F010EF15F0A1
:102A500012004142434445464748494A00000000AD
:102A60000000004142434445464748494A000000AF
:102A7000000000003F065B4F666D7D077F6F777C2F
:072A8000395E7971000100CD
:102A8800D6C001F0D7C002F074EC15F0010E0001B9
:102A9800E36F7DC07BF07BC0E2F0E4C07CF07CC0DB
:102AA800E1F0010EDF6F000E7E6E010EE06F010E89
:102AB800FF6F1200D00E0124036EFF0E0220046E79
:102AC80004500AE10A0E035CD8A06DEF15F070EF10
:102AD80015F0010E71EF15F0000E016E026A12007A
:102AE800CF0EBD1601C003F0030E03160338F00B1A
:102AF800BD1201C003F002C004F0D89004320332C2
:102B0800D890043203320350BE6E1200C30E926E88
:102B18003F0E936EDB0E946E000E956EF80E966E59
:102B2800000E896E000E8A6E000E8B6E000E8C6E83
:102B380012000001816F8482000181511FEC16F0A0
:102B480084940D0EE82EFED700F084920D0EE82E28
:102B5800FED700F08482120001500302F3CF05F083
:102B6800F4CF06F001500402F35006260250030287
:102B7800F350062605C001F006C002F01200026EEE
:102B8800848202502DEC16F084940D0EE82EFED7A8
:102B980000F084920D0EE82EFED700F08482120019
:102BA800026E848202502DEC16F084840D0EE82EFD
:102BB800FED700F084920D0EE82EFED700F0848236
:102BC8001200000E026E000E016E74EC15F0010E7C
:102BD8007E6E000E0001E06F000EDF6F1200900E97
:102BE800F26E050EF16ED80EF06EC10ED56E000EA7
:102BF800D76E060ED66E120001000100010001001A
:092C08000A0001010101010101B2
:102C120089EC14F0EBEC11F00BEF16F007EF00F07B
:102C2200010EC26E0D0EC16E940EC06E1200016EC8
:102C32000144E846FC0B0109C26E12000001806FDC
:102C420080C083FF1200F28A9D8CF28CF28E1200F9
:102C5200D09EF29EF29C1200016E01C083FF120010
:102C6200C2821200C282120012001200120012006E
:012C72000160
:020000040020DA
:08000000FFFFFFFFFFFFFFFF00
:020000040030CA
:0E000000FF021F1EFF8381FF0FC00FE00F40A5
:00000001FF
