:04000000C1EF3FF01D
:107F69000FBAEC3FF0D2EC3FF0FDD70F0EC16E0017
:107F79000E956E000E8C6E1200690EF66E7F0EF76E
:107F89006E000EF86E0900F5CF06F0056A046A0363
:107F99006A026A016A0001B5EF3FF0F40E035C0161
:107FA9000E0458D8B003D0034A042A09D00606069D
:107FB90038F00B05108C6E000E046E010E036E84F2
:107FC9000E015C030E0258D8B003D0014A022A09F7
:107FD900D0052A0638F00B05108C6E000E026E01D2
:107FE9000E016E0F0E056402D0000E056EC80E005C
:077FF900D0E82EFDD71200B5
:020000040020DA
:08000000FFFFFFFFFFFFFFFF00
:020000040030CA
:0E000000FF021F1EFF8381FF0FC00FE00F40A5
:00000001FF
