:0400000007EF00F016
:0A0008007F82A0ED0DF033EF11F040
:100600000025322E32643A25322E32642074656D14
:10061000706F3A25346400202020202025322E32AD
:09062000643A25322E3264000018
:10062A00CAC0D9FFCBC0DAFFDECFF6FFDDCFF7FFB6
:10063A000800F550250AD8A425EF03F027EF03F0A8
:10064A0096EF04F0CAC0D9FFCBC0DAFFDE2A000E4B
:10065A00DD22000E0001E26F000EE16FE1C0E5F05D
:10066A00E369E469CAC0D9FFCBC0DAFFDECFF6FF7F
:10067A00DDCFF7FF0800F5502A0AD8A447EF03F0A8
:10068A0049EF03F072EF03F0CAC0D9FFCBC0DAFF1B
:10069A00DE2A000EDD22CCC0D9FFCDC0DAFFDFCFC3
:1006AA00CEF0020EDE26DFCFCFF0000EDD22CEC066
:1006BA00D9FFCFC0DAFFDECFE1F0DDCFE2F0E2BF53
:1006CA006BEF03F069EF03F0A6EF03F0E581E16D4C
:1006DA00E21FD8B0E22BA6EF03F0CAC0D9FFCBC005
:1006EA00DAFFDECF90F0DDCF91F0AFEC0BF090C0E7
:1006FA00E1F091C0E2F089EF03F0CAC0D9FFCBC0A4
:10070A00DAFFDE2A000EDD22CAC0D9FFCBC0DAFF2B
:10071A00DECFF6FFDDCFF7FF0800F5CFCEF0D00E23
:10072A000001CE25CF6FD06BFF0ED023D05109E147
:10073A000A0ECF5DD8A0A4EF03F0A6EF03F082EF74
:10074A0003F0CAC0D9FFCBC0DAFFDECFF6FFDDCF98
:10075A00F7FF0800F5502E0AD8A4B6EF03F0B8EF59
:10076A0003F026EF04F0000EE46F000EE36FCAC038
:10077A00D9FFCBC0DAFFDE2A000EDD22CAC0D9FFBC
:10078A00CBC0DAFFDECFF6FFDDCFF7FF0800F5506A
:10079A002A0AD8A4D3EF03F0D5EF03F0F2EF03F05F
:1007AA00CAC0D9FFCBC0DAFFDE2A000EDD22CCC0D8
:1007BA00D9FFCDC0DAFFDFCFCEF0020EDE26DFCFC3
:1007CA00CFF0000EDD22CEC0D9FFCFC0DAFFDECFD8
:1007DA00E3F0DDCFE4F026EF04F0CAC0D9FFCBC0C6
:1007EA00DAFFDECF90F0DDCF91F0AFEC0BF090C0E6
:1007FA00E3F091C0E4F009EF04F0CAC0D9FFCBC01E
:10080A00DAFFDE2A000EDD22CAC0D9FFCBC0DAFF2A
:10081A00DECFF6FFDDCFF7FF0800F5CFCEF0D00E22
:10082A000001CE25CF6FD06BFF0ED023D05109E146
:10083A000A0ECF5DD8A024EF04F026EF04F002EFF1
:10084A0004F0CAC0D9FFCBC0DAFFDECFD9F0DDCFC2
:10085A00DAF0D9C0F6FFDAC0F7FF0800F550640AEB
:10086A00D8B43AEF04F03CEF04F04AEF04F0D9C0F0
:10087A00F6FFDAC0F7FF0800F550690AD8A448EF76
:10088A0004F04AEF04F08DEF04F0CCC0D9FFCDC0DC
:10089A00DAFFDFCFCEF0020EDE26DFCFCFF0000E7A
:1008AA00DD22CEC0D9FFCFC0DAFFDECFD1F0DDCF57
:1008BA00D2F0000ED2BFFF0ED36FD46FD56FD66FB2
:1008CA00D76FD86F010ED925CE6F000EDA21CF6F00
:1008DA00CAC0D9FFCBC0DAFFCEC0DEFFCFC0DDFF72
:1008EA00C8C0A5F0C9C0A6F0D1C0A7F0D2C0A8F070
:1008FA00D3C0A9F0D4C0AAF0D5C0ABF0D6C0ACF032
:10090A00D7C0ADF0D8C0AEF041EC06F0ABEF04F0C2
:10091A00CAC0D9FFCBC0DAFFDE2A000EDD22ABEF58
:10092A0004F0CAC0D9FFCBC0DAFFDECFF6FFDDCFB5
:10093A00F7FF0800F55000018A6F8B6BC8C08CF076
:10094A00C9C08DF0A1EC0EF08DEF04F0120041C089
:10095A00D9FF42C0DAFFDECFF6FFDDCFF7FF08008E
:10096A00F550250AD8A4BCEF04F0BEEF04F02CEF32
:10097A0006F041C0D9FF42C0DAFFDE2A000EDD22AE
:10098A00000E0001E26F000EE16FE1C0E5F0E369DD
:10099A00E46941C0D9FF42C0DAFFDECFF6FFDDCFFE
:1009AA00F7FF0800F5502A0AD8A4DEEF04F0E0EFBA
:1009BA0004F009EF05F041C0D9FF42C0DAFFDE2A90
:1009CA00000EDD2243C0D9FF44C0DAFFDFCF45F075
:1009DA00020EDE26DFCF46F0000EDD2245C0D9FF2B
:1009EA0046C0DAFFDECFE1F0DDCFE2F0E2BF02EF90
:1009FA0005F000EF05F03CEF05F0E581E16DE21F3F
:100A0A00D8B0E22B3CEF05F041C0D9FF42C0DAFF73
:100A1A00DECF07F0DDCF08F0FBEC0CF007C0E1F009
:100A2A0008C0E2F020EF05F041C0D9FF42C0DAFF6A
:100A3A00DE2A000EDD2241C0D9FF42C0DAFFDECF36
:100A4A00F6FFDDCFF7FF0800F5CF45F0D00E4524BD
:100A5A00466E476AFF0E4722475009E10A0E465C76
:100A6A00D8A03AEF05F03CEF05F019EF05F041C0C8
:100A7A00D9FF42C0DAFFDECFF6FFDDCFF7FF08006D
:100A8A00F5502E0AD8A44CEF05F04EEF05F0BCEF56
:100A9A0005F0000E0001E46F000EE36F41C0D9FFBC
:100AAA0042C0DAFFDE2A000EDD2241C0D9FF42C071
:100ABA00DAFFDECFF6FFDDCFF7FF0800F5502A0A8E
:100ACA00D8A46AEF05F06CEF05F089EF05F041C094
:100ADA00D9FF42C0DAFFDE2A000EDD2243C0D9FF69
:100AEA0044C0DAFFDFCF45F0020EDE26DFCF46F044
:100AFA00000EDD2245C0D9FF46C0DAFFDECFE3F0A3
:100B0A00DDCFE4F0BCEF05F041C0D9FF42C0DAFF07
:100B1A00DECF07F0DDCF08F0FBEC0CF007C0E3F006
:100B2A0008C0E4F0A0EF05F041C0D9FF42C0DAFFE7
:100B3A00DE2A000EDD2241C0D9FF42C0DAFFDECF35
:100B4A00F6FFDDCFF7FF0800F5CF45F0D00E4524BC
:100B5A00466E476AFF0E4722475009E10A0E465C75
:100B6A00D8A0BAEF05F0BCEF05F099EF05F041C047
:100B7A00D9FF42C0DAFFDECF50F0DDCF51F050C0CE
:100B8A00F6FF51C0F7FF0800F550640AD8B4D0EF59
:100B9A0005F0D2EF05F0E0EF05F050C0F6FF51C0C6
:100BAA00F7FF0800F550690AD8A4DEEF05F0E0EF78
:100BBA0005F023EF06F043C0D9FF44C0DAFFDFCFC8
:100BCA0045F0020EDE26DFCF46F0000EDD2245C0DC
:100BDA00D9FF46C0DAFFDECF48F0DDCF49F0000E7C
:100BEA0049BEFF0E4A6E4B6E4C6E4D6E4E6E4F6E88
:100BFA00010E5024456E000E5120466E41C0D9FFA9
:100C0A0042C0DAFF45C0DEFF46C0DDFF3FC01CF030
:100C1A0040C01DF048C01EF049C01FF04AC020F075
:100C2A004BC021F04CC022F04DC023F04EC024F03E
:100C3A004FC025F082EC07F040EF06F041C0D9FF23
:100C4A0042C0DAFFDE2A000EDD2240EF06F041C084
:100C5A00D9FF42C0DAFFDECFF6FFDDCFF7FF08008B
:100C6A00F550016E026A3FC003F040C004F007EC81
:100C7A000FF023EF06F01200A7C0BDF0A8C0BEF027
:100C8A00A9C0BFF0AAC0C0F0ABC0C1F0ACC0C2F0EE
:100C9A00ADC0C3F0AEC0C4F00001C4BF57EF06F048
:100CAA005AEF06F0010E5BEF06F0000EC56FC55154
:100CBA00D8B462EF06F064EF06F074EF06F0C41FD2
:100CCA00C31FC21FC11FC01FBF1FBE1FBD6D000EA5
:100CDA00BE23BF23C023C123C223C323C423E4BF2B
:100CEA0081EF06F0E45106E1E305D8B07FEF06F0A4
:100CFA0081EF06F087EF06F0000EBA6F010EB96FAA
:100D0A008BEF06F0E3C0B9F0E4C0BAF0E1C0BBF083
:100D1A00E2C0BCF0C551D8B495EF06F097EF06F0E3
:100D2A00AEEF06F0BB07D8A0BC07C551D8A4A0EF08
:100D3A0006F0A2EF06F0A8EF06F0000EB86F2B0E31
:100D4A00B76FACEF06F0000EB86F2D0EB76FB7C0D5
:100D5A00C5F0000EC76F1F0EC66F000E01016F6F40
:100D6A0034EF07F0C607D8A0C707500EC625D96EBC
:100D7A00010EC721DA6EBDC08AF0BEC08BF0BFC0BB
:100D8A008CF0C0C08DF0C1C08EF0C2C08FF0C3C05D
:100D9A0090F0C4C091F00A0E926F000E936F000E8D
:100DAA00946F000E956F000E966F000E976F000EEF
:100DBA00986F000E996F4AEC0AF08AC0AFF08BC0A8
:100DCA00B0F08CC0B1F08DC0B2F08EC0B3F08FC05D
:100DDA00B4F090C0B5F091C0B6F0AFC09CF0B0C00E
:100DEA009DF08CEC13F000019C51300FDF6EB907B7
:100DFA00D8A0BA07BB07D8A0BC07BDC08AF0BEC03E
:100E0A008BF0BFC08CF0C0C08DF0C1C08EF0C2C0E4
:100E1A008FF0C3C090F0C4C091F00A0E926F000E1A
:100E2A00936F000E946F000E956F000E966F000E72
:100E3A00976F000E986F000E996FC1EC08F08AC088
:100E4A00BDF08BC0BEF08CC0BFF08DC0C0F08EC0AC
:100E5A00C1F08FC0C2F090C0C3F091C0C4F00001CD
:100E6A00C7BF40EF07F0C75108E1C605D8A040EF59
:100E7A0007F042EF07F05EEF07F0BD51BE11BF1158
:100E8A00C011C111C211C311C411D8A44FEF07F088
:100E9A0051EF07F0B7EF06F0BABF5EEF07F0BA51AD
:100EAA0006E1B905D8B05CEF07F05EEF07F0B7EFDF
:100EBA0006F0C551D8B464EF07F066EF07F071EF9A
:100ECA0007F0C607D8A0C707500EC625D96E010E6F
:100EDA00C721DA6EC5C0DFFFA5C09AF0A6C09BF095
:100EEA00500EC6259C6F010EC7219D6FBBC09EF098
:100EFA00BCC09FF084EC10F012001EC034F01FC07A
:100F0A0035F020C036F021C037F022C038F023C0B7
:100F1A0039F024C03AF025C03BF03BBE97EF07F00A
:100F2A009AEF07F0010E9BEF07F0000E3C6E3C5063
:100F3A00D8B4A2EF07F0A4EF07F0B4EF07F03B1E16
:100F4A003A1E391E381E371E361E351E346C000EE8
:100F5A00352236223722382239223A223B22000110
:100F6A00E4BFC2EF07F0E45106E1E305D8B0C0EFF1
:100F7A0007F0C2EF07F0C8EF07F0000E316E010E5E
:100F8A00306ECCEF07F0E3C030F0E4C031F0E1C0DE
:100F9A0032F0E2C033F03C50D8B4D6EF07F0D8EFC5
:100FAA0007F0EFEF07F03206D8A033063C50D8A47A
:100FBA00E1EF07F0E3EF07F0E9EF07F0000E2F6E1D
:100FCA002B0E2E6EEDEF07F0000E2F6E2D0E2E6EED
:100FDA002EC03CF0000E3E6E1F0E3D6E000E01014B
:100FEA006F6F74EF08F03D06D8A03E06500E3D2400
:100FFA00D96E010E3E20DA6E34C001F035C002F01F
:10100A0036C003F037C004F038C005F039C006F026
:10101A003AC007F03BC008F00A0E096E000E0A6ECD
:10102A00000E0B6E000E0C6E000E0D6E000E0E6E94
:10103A00000E0F6E000E106EFDEC0AF001C026F0D5
:10104A0002C027F003C028F004C029F005C02AF026
:10105A0006C02BF007C02CF008C02DF026C013F0F4
:10106A0027C014F0CDEC13F01350300FDF6E3006AA
:10107A00D8A031063206D8A0330634C001F035C0F4
:10108A0002F036C003F037C004F038C005F039C0AA
:10109A0006F03AC007F03BC008F00A0E096E000ECF
:1010AA000A6E000E0B6E000E0C6E000E0D6E000E18
:1010BA000E6E000E0F6E000E106E86EC09F001C067
:1010CA0034F002C035F003C036F004C037F005C072
:1010DA0038F006C039F007C03AF008C03BF03EBE0F
:1010EA007FEF08F03E5008E13D04D8A07FEF08F0FA
:1010FA0081EF08F09DEF08F03450351036103710A4
:10110A00381039103A103B10D8A48EEF08F090EF3F
:10111A0008F0F8EF07F031BE9DEF08F0315006E114
:10112A003004D8B09BEF08F09DEF08F0F8EF07F015
:10113A003C50D8B4A3EF08F0A5EF08F0B0EF08F0E0
:10114A003D06D8A03E06500E3D24D96E010E3E2023
:10115A00DA6E3CC0DFFF1CC011F01DC012F0500E49
:10116A003D24136E010E3E20146E32C015F033C0BA
:10117A0016F0DCEC10F01200000E00019B6F99BF14
:10118A00CBEF08F0C9EF08F0DDEF08F0991F981FC0
:10119A00971F961F951F941F931F926D000E9323FE
:1011AA00942395239623972398239923010E9B6FC3
:1011BA0091BFE4EF08F0E2EF08F0F6EF08F0911FB4
:1011CA00901F8F1F8E1F8D1F8C1F8B1F8A6D000E05
:1011DA008B238C238D238E238F2390239123010E1F
:1011EA009B1B20EE9CF0070EDE6AE806FDE2925198
:1011FA009311941195119611971198119911D8B4C8
:10120A0009EF09F00BEF09F05DEF09F0010E9A6F93
:10121A0019EF09F0D8909237933794379537963764
:10122A009737983799379A2B99AF1EEF09F020EF25
:10123A0009F00FEF09F0D8909C379D379E379F37FA
:10124A00A037A137A237A33792518A5D93518B59A0
:10125A0094518C5995518D5996518E5997518F5950
:10126A009851905999519159D8A03EEF09F040EF01
:10127A0009F051EF09F092518A5F93518B5B9451B7
:10128A008C5B95518D5B96518E5B97518F5B985114
:10129A00905B9951915B9C81D8909933983397339D
:1012AA00963395339433933392339A2F20EF09F080
:1012BA009B51D8B463EF09F065EF09F075EF09F0B7
:1012CA00A31FA21FA11FA01F9F1F9E1F9D1F9C6DD2
:1012DA00000E9D239E239F23A023A123A223A323A1
:1012EA009CC08AF09DC08BF09EC08CF09FC08DF090
:1012FA00A0C08EF0A1C08FF0A2C090F0A3C091F060
:10130A001200000E126E10BE8FEF09F08DEF09F079
:10131A00A1EF09F0101E0F1E0E1E0D1E0C1E0B1E35
:10132A000A1E096C000E0A220B220C220D220E2222
:10133A000F221022010E126E08BEA8EF09F0A6EFC6
:10134A0009F0BAEF09F0081E071E061E051E041E44
:10135A00031E021E016C000E022203220422052231
:10136A00062207220822010E121A20EE13F0070E97
:10137A00DE6AE806FDE209500A100B100C100D1087
:10138A000E100F101010D8B4CDEF09F0CFEF09F0FE
:10139A0021EF0AF0010E116EDDEF09F0D89009363F
:1013AA000A360B360C360D360E360F361036112A23
:1013BA0010AEE2EF09F0E4EF09F0D3EF09F0D890AC
:1013CA0013361436153616361736183619361A36AF
:1013DA000950015C0A5002580B5003580C5004582B
:1013EA000D5005580E5006580F50075810500858FF
:1013FA00D8A002EF0AF004EF0AF015EF0AF009503C
:10140A00015E0A50025A0B50035A0C50045A0D50EE
:10141A00055A0E50065A0F50075A1050085A138090
:10142A00D89010320F320E320D320C320B320A3291
:10143A000932112EE4EF09F01250D8B427EF0AF05E
:10144A0029EF0AF039EF0AF01A1E191E181E171E84
:10145A00161E151E141E136C000E142215221622B7
:10146A001722182219221A2213C001F014C002F0FE
:10147A0015C003F016C004F017C005F018C006F036
:10148A0019C007F01AC008F01200000E00019B6F85
:10149A0091BF54EF0AF052EF0AF066EF0AF0911F7B
:1014AA00901F8F1F8E1F8D1F8C1F8B1F8A6D000E22
:1014BA008B238C238D238E238F2390239123010E3C
:1014CA009B6F99BF6DEF0AF06BEF0AF07DEF0AF0A0
:1014DA00991F981F971F961F951F941F931F926D10
:1014EA00000E9323942395239623972398239923D5
:1014FA00925193119411951196119711981199116E
:10150A00D8B48AEF0AF08CEF0AF0D4EF0AF0010E91
:10151A009A6F9AEF0AF0D8909237933794379537A3
:10152A0096379737983799379A2B99AF9FEF0AF0E2
:10153A00A1EF0AF090EF0AF092518A5D93518B590C
:10154A0094518C5995518D5996518E5997518F595D
:10155A009851905999519159D8A0B6EF0AF0B8EF1D
:10156A000AF0C8EF0AF092518A5F93518B5B94514B
:10157A008C5B95518D5B96518E5B97518F5B985121
:10158A00905B9951915BD8909933983397339633FE
:10159A0095339433933392339A2FA1EF0AF09B51E8
:1015AA00D8B4DAEF0AF0DCEF0AF0ECEF0AF0911F98
:1015BA00901F8F1F8E1F8D1F8C1F8B1F8A6D000E11
:1015CA008B238C238D238E238F23902391238AC0F0
:1015DA008AF08BC08BF08CC08CF08DC08DF08EC0E1
:1015EA008EF08FC08FF090C090F091C091F01200F1
:1015FA00000E126E08BE06EF0BF004EF0BF018EFA8
:10160A000BF0081E071E061E051E041E031E021EE0
:10161A00016C000E0222032204220522062207225E
:10162A000822010E126E10BE1FEF0BF01DEF0BF019
:10163A002FEF0BF0101E0F1E0E1E0D1E0C1E0B1E82
:10164A000A1E096C000E0A220B220C220D220E22FF
:10165A000F22102209500A100B100C100D100E1038
:10166A000F101010D8B43CEF0BF03EEF0BF086EFE2
:10167A000BF0010E116E4CEF0BF0D89009360A36BA
:10168A000B360C360D360E360F361036112A10AEC2
:10169A0051EF0BF053EF0BF042EF0BF00950015CE6
:1016AA000A5002580B5003580C5004580D50055854
:1016BA000E5006580F50075810500858D8A068EF17
:1016CA000BF06AEF0BF07AEF0BF00950015E0A504B
:1016DA00025A0B50035A0C50045A0D50055A0E5018
:1016EA00065A0F50075A1050085AD89010320F3223
:1016FA000E320D320C320B320A320932112E53EFEE
:10170A000BF01250D8B48CEF0BF08EEF0BF09EEF6B
:10171A000BF0081E071E061E051E041E031E021ECF
:10172A00016C000E0222032204220522062207224D
:10173A00082201C001F002C002F003C003F004C095
:10174A0004F005C005F006C006F007C007F008C09F
:10175A0008F01200000E0001986F000E976F000E3D
:10176A00966F000E956FBCEF0BF0904B912B90C0CB
:10177A00F6FF91C0F7FF0800F550200AD8B4C8EF69
:10178A000BF0CAEF0BF0BAEF0BF090C0F6FF91C066
:10179A00F7FF0800F5CF92F0F70E9225936F946B3E
:1017AA00FF0E9423945109E1050E935DD8A0E0EF52
:1017BA000BF0E2EF0BF0BAEF0BF0ECEF0BF0000ED0
:1017CA00966F010E956F904B912B22EF0CF090C003
:1017DA00F6FF91C0F7FF0800F550926F936B935193
:1017EA00000AD8B4FBEF0BF022EF0CF092512B0A4F
:1017FA00D8B4E8EF0BF0060AD8B4E4EF0BF022EF06
:10180A000CF097C08AF098C08BF0000E8D6F0A0E0C
:10181A008C6FCAEC14F090C0F6FF91C0F7FF080075
:10182A00F55000018A5F000E8B5B300E8A25976F98
:10183A00000E8B21986FE8EF0BF090C0F6FF91C075
:10184A00F7FF0800F5CF92F0D00E9225936F946BB4
:10185A00FF0E9423945109E10A0E935DD8A038EF44
:10186A000CF03AEF0CF006EF0CF095519611D8A453
:10187A0041EF0CF043EF0CF051EF0CF097C092F0EF
:10188A0098C093F0921F931F924B932B92C090F0A3
:10189A0093C091F055EF0CF097C090F098C091F07A
:1018AA00120081CF77F077A05DEF0CF05FEF0CF0BC
:1018BA0063EF0CF0010E716E65EF0CF0000E716EA5
:1018CA0077A26AEF0CF06CEF0CF070EF0CF0010EDF
:1018DA00726E72EF0CF0000E726E77A477EF0CF056
:1018EA0079EF0CF07DEF0CF0010E736E7FEF0CF0C8
:1018FA00000E736E77A684EF0CF086EF0CF08AEF79
:10190A000CF0010E746E8CEF0CF0000E746E77A85A
:10191A0091EF0CF093EF0CF097EF0CF0010E756E4F
:10192A0099EF0CF0000E756E77AA9EEF0CF0A0EFFF
:10193A000CF0A4EF0CF0010E766EA6EF0CF0000E80
:10194A00766E0001F351715CD8B0AEEF0CF0B0EFD7
:10195A000CF0B2EF0CF069EC15F00001F251725C78
:10196A00D8B0BAEF0CF0BCEF0CF0BEEF0CF04CECB8
:10197A0015F00001F151735CD8B0C6EF0CF0C8EF56
:10198A000CF0CAEF0CF076EC15F00001F051745C23
:10199A00D8B0D2EF0CF0D4EF0CF0D6EF0CF09AECF2
:1019AA0015F00001EF51755CD8B0DEEF0CF0E0EFF6
:1019BA000CF0E2EF0CF092EC15F00001EE51765CBF
:1019CA00D8B0EAEF0CF0ECEF0CF0EEEF0CF08AEC8A
:1019DA0015F071C0F3F072C0F2F073C0F1F074C088
:1019EA00F0F075C0EFF076C0EEF01200000E0F6E48
:1019FA00000E0E6E000E0D6E000E0C6E07EF0DF04F
:101A0A00074A082A07C0F6FF08C0F7FF0800F55082
:101A1A00200AD8B413EF0DF015EF0DF005EF0DF015
:101A2A0007C0F6FF08C0F7FF0800F5CF09F0F70E68
:101A3A0009240A6E0B6AFF0E0B220B5009E1050EF0
:101A4A000A5CD8A02BEF0DF02DEF0DF005EF0DF08D
:101A5A0037EF0DF0000E0D6E010E0C6E074A082AC4
:101A6A006CEF0DF007C0F6FF08C0F7FF0800F5504D
:101A7A00096E0A6A0A50000AD8B446EF0DF06CEFF4
:101A8A000DF009502B0AD8B433EF0DF0060AD8B47A
:101A9A002FEF0DF06CEF0DF00EC001F00FC002F049
:101AAA00000E046E0A0E036E17EC15F007C0F6FF5F
:101ABA0008C0F7FF0800F550015E000E025A300E0A
:101ACA0001240E6E000E02200F6E33EF0DF007C0D8
:101ADA00F6FF08C0F7FF0800F5CF09F0D00E092479
:101AEA000A6E0B6AFF0E0B220B5009E10A0E0A5C02
:101AFA00D8A082EF0DF084EF0DF051EF0DF00C50ED
:101B0A000D10D8A48BEF0DF08DEF0DF09BEF0DF0BB
:101B1A000EC009F00FC00AF0091E0A1E094A0A2A55
:101B2A0009C007F00AC008F09FEF0DF00EC007F0D9
:101B3A000FC008F012000600E1CF80F0E2CF81F07A
:101B4A00D9CF82F0DACF83F0F3CF84F0F4CF85F0E7
:101B5A00F6CF86F0F7CF87F0F8CF88F0F5CF89F087
:101B6A00F2A4BAEF0DF0BCEF0DF0CAEF0DF0F2AA35
:101B7A00C1EF0DF0C3EF0DF0CAEF0DF0060ED62639
:101B8A00000ED72239EC0EF0F294F2A2CFEF0DF04C
:101B9A00D1EF0DF0D9EF0DF0F2A8D6EF0DF0D8EF96
:101BAA000DF0D9EF0DF0F292F0A0DEEF0DF0E0EFBC
:101BBA000DF0E8EF0DF0F0A6E5EF0DF0E7EF0DF010
:101BCA00E8EF0DF0F090F0A2EDEF0DF0EFEF0DF071
:101BDA00F7EF0DF0F0A8F4EF0DF0F6EF0DF0F7EFD8
:101BEA000DF0F0929EACFCEF0DF0FEEF0DF00DEF54
:101BFA000EF09DAC03EF0EF005EF0EF00DEF0EF0B8
:101C0A00F2AC0AEF0EF00CEF0EF00DEF0EF09E9C08
:101C1A009EA212EF0EF014EF0EF023EF0EF09DA22B
:101C2A0019EF0EF01BEF0EF023EF0EF0F2AC20EFDF
:101C3A000EF022EF0EF023EF0EF09E9289C0F5FF10
:101C4A0088C0F8FF87C0F7FF86C0F6FF85C0F4FF9B
:101C5A0084C0F3FF83C0DAFF82C0D9FF81C0E2FFEC
:101C6A0080C0E1FF7F921100847004EC12F0010140
:101C7A003C5107E1050E3B5DD8B046EF0EF048EF48
:101C8A000EF04CEF0EF03B4B3C2B53EF0EF0CFEC2B
:101C9A000FF0000E01013C6F010E3B6F3A5107E154
:101CAA000A0E395DD8B05CEF0EF05EEF0EF062EF0F
:101CBA000EF0394B3A2B6BEF0EF056EC0CF089EC28
:101CCA0012F0000E01013A6F010E396F3D51375D76
:101CDA003E513859D8B074EF0EF076EF0EF07AEF25
:101CEA000EF0374B382B89EF0EF07A50D8B480EFCC
:101CFA000EF082EF0EF084EF0EF0D2EC11F0000E2F
:101D0A000101386F010E376F365107E1640E355DF8
:101D1A00D8B092EF0EF094EF0EF098EF0EF0354B2C
:101D2A00362BA0EF0EF0010E0001E86F000E010144
:101D3A00366F010E356F120000018C518D11D8B427
:101D4A00A9EF0EF0ABEF0EF0B4EF0EF08C518D113F
:101D5A00D8A4B2EF0EF0B4EF0EF0B9EF0EF08A513C
:101D6A00CAEC15F006EF0FF020EE09F08C51D926D7
:101D7A008D51DA22DE50DE10D8B4C6EF0EF0C8EF6D
:101D8A000EF0E3EF0EF020EE09F08C51D9268D51BA
:101D9A00DA2210EE03F08C51E1268D51E222DE5058
:101DAA00E65CE650800A926FDE50800A9259D8B0FB
:101DBA00E1EF0EF0E3EF0EF006EF0FF020EE03F086
:101DCA008C51D9268D51DA22DECF8EF0DDCF8FF0FD
:101DDA008CC0D9FF8DC0DAFFDECF90F0DDCF91F055
:101DEA008E519025D96E8F519121DA6E8AC0DFFF0C
:101DFA0020EE03F08C51D9268D51DA22DE2A000E0C
:101E0A00DD22120003500410D8B40EEF0FF010EFC9
:101E1A000FF019EF0FF003500410D8A417EF0FF0CA
:101E2A0019EF0FF01EEF0FF00150CBEC15F06BEF2E
:101E3A000FF020EE09F00350D9260450DA22DE50C2
:101E4A00DE10D8B42BEF0FF02DEF0FF048EF0FF0A4
:101E5A0020EE09F00350D9260450DA2210EE03F0DE
:101E6A000350E1260450E222DE50E65CE650800A86
:101E7A00096EDE50800A0958D8B046EF0FF048EFD5
:101E8A000FF06BEF0FF020EE03F00350D926045049
:101E9A00DA22DECF05F0DDCF06F003C0D9FF04C099
:101EAA00DAFFDECF07F0DDCF08F005500724D96E40
:101EBA0006500820DA6E01C0DFFF20EE03F003505F
:101ECA00D9260450DA22DE2A000EDD221200000E84
:101EDA0000018F6F8DBF76EF0FF074EF0FF07CEF7C
:101EEA000FF08C6D8D1FD8B08D2B010E8F6F8BBFAD
:101EFA0083EF0FF081EF0FF089EF0FF08A6D8B1FE0
:101F0A00D8B08B2B010E8F1B000E916F000E906FB5
:101F1A008C518D11D8B494EF0FF096EF0FF0BEEFFD
:101F2A000FF0010E8E6F9EEF0FF0D8908C378D3721
:101F3A008E2B8DAFA3EF0FF0A5EF0FF09AEF0FF0F6
:101F4A00D890903791378C518A5D8D518B59D8A092
:101F5A00B1EF0FF0B3EF0FF0B8EF0FF08C518A5FCB
:101F6A008D518B5B9081D8908D338C338E2FA5EF5A
:101F7A000FF08F51D8B4C4EF0FF0C6EF0FF0CAEFCD
:101F8A000FF0906D911FD8B0912B90C08AF091C03C
:101F9A008BF012000DEF10F08984899A220E00014D
:101FAA00ED25D96EDA6A010EDA22DF508C6E010E47
:101FBA007D6E2AEF10F089948986220E0001EC25A5
:101FCA00D96EDA6A010EDA22DF508C6E020E7D6E4D
:101FDA002AEF10F089968988220E0001EB25D96E26
:101FEA00DA6A010EDA22DF508C6E030E7D6E2AEF5A
:101FFA0010F08998898A220E0001EA25D96EDA6AD8
:10200A00010EDA22DF508C6E000E7D6E2AEF10F080
:10201A007D50016E026A0250000AD8B417EF10F020
:10202A002AEF10F00150000AD8B4D1EF0FF0010ADC
:10203A00D8B4E0EF0FF0030AD8B4EFEF0FF0010ABB
:10204A00D8B4FEEF0FF02AEF10F01200000E0001D4
:10205A008F6F8BBF35EF10F033EF10F03BEF10F0BE
:10206A008A6D8B1FD8B08B2B010E8F6F8DBF42EFFD
:10207A0010F040EF10F046EF10F08C6D8D1FD8B0C5
:10208A008D2B8C518D11D8B44DEF10F04FEF10F00D
:10209A0073EF10F0010E8E6F57EF10F0D8908C3757
:1020AA008D378E2B8DAF5CEF10F05EEF10F053EF93
:1020BA0010F08C518A5D8D518B59D8A067EF10F0C2
:1020CA0069EF10F06DEF10F08C518A5F8D518B5BC8
:1020DA00D8908D338C338E2F5EEF10F08F51D8B499
:1020EA0079EF10F07BEF10F07FEF10F08A6D8B1F05
:1020FA00D8B08B2B8AC08AF08BC08BF012000001FB
:10210A00E5A18AEF10F08CEF10F096EF10F09CC06A
:10211A0093F09DC094F09AC095F09BC096F000ECA5
:10212A0013F000019FBF9CEF10F09EEF10F0A4EF98
:10213A0010F09EC0A3F09FC0A4F0A8EF10F0000E0C
:10214A00A46F000EA36F000EA26F000EA16FBBEF6B
:10215A0010F0000E8B6F200E8A6F9AC08CF09BC015
:10216A008DF0A1EC0EF00001A14BA22BA351A15DB1
:10217A00A251800AA06FA451800AA059D8A0C8EF22
:10218A0010F0CAEF10F0AEEF10F0E5B1CFEF10F09B
:10219A00D1EF10F0DBEF10F09CC093F09DC094F0EB
:1021AA009AC095F09BC096F000EC13F01200000163
:1021BA00E5A1E2EF10F0E4EF10F0EEEF10F013C03B
:1021CA000AF014C00BF011C00CF012C00DF06AEC4A
:1021DA0013F016BEF3EF10F0F5EF10F0FBEF10F06E
:1021EA0015C01AF016C01BF0FFEF10F0000E1B6EA0
:1021FA00000E1A6E000E196E000E186E11EF11F015
:10220A00000E026E200E016E11C003F012C004F01F
:10221A0007EC0FF0184A192A1A50185C1950800A4C
:10222A00176E1B50800A1758D8A01EEF11F020EF26
:10223A0011F005EF11F00001E5B126EF11F028EFDA
:10224A0011F032EF11F013C00AF014C00BF011C0F4
:10225A000CF012C00DF06AEC13F01200DA0EF66EF2
:10226A00270EF76E000EF86E01EE00F010EE3FF04A
:10227A000900F5CFEEFFE550E150FAE1740EF66E73
:10228A002B0EF76E000EF86E00EEEEF010EE08F070
:10229A000900F5CFEEFFE550E150FAE101EE3FF01B
:1022AA003B0EEE6AE806FDE100EEE1F00D0EEE6A85
:1022BA00E806FDE100EE78F0070EEE6AE806FDE1B9
:1022CA007F907F92000EF86E000182EF15F08492E3
:1022DA0084941A0E00018C6FF80EE82EFED78C2F0C
:1022EA00FCD700F08482380E04EC15F0070E0001CA
:1022FA008C6F7D0EE82EFED78C2FFCD7380E04EC9F
:10230A0015F0C80E00D0E82EFDD7380E04EC15F0F3
:10231A00080E04EC15F00F0E04EC15F0010E04EC97
:10232A0015F0380E04EC15F0800E04EC15F00C0EC6
:10233A0004EC15F012007CC08AF000018B6B000ED1
:10234A008D6F0A0E8C6F6CEC0FF000018A51ED6FE5
:10235A007CC08AF08B6B000E8D6F0A0E8C6F2BEC93
:10236A0010F000018A51EC6F7BC08AF08B6B000E73
:10237A008D6F0A0E8C6F6CEC0FF000018A51EB6FB7
:10238A007BC08AF08B6B000E8D6F0A0E8C6F2BEC64
:10239A0010F000018A51EA6F12007850D8A4D8EFE1
:1023AA0011F0DAEF11F0E7EF11F07950D8B4E0EF5D
:1023BA0011F0E2EF11F0E7EF11F03B0E786E7906BB
:1023CA0003EF12F078067950D8A4EEEF11F0F0EF8F
:1023DA0011F003EF12F07850D8A4F6EF11F0F8EFED
:1023EA0011F003EF12F0000E786E78C079F0000E4B
:1023FA007A6E030E026E0168B4EC14F0120020EF3C
:10240A0012F0C3CF3FF1C4CF40F1010EA9EC15F091
:10241A00C8EC15F0010E7E6E35EF12F0C3CF41F114
:10242A00C4CF42F1000EA9EC15F0C8EC15F0000E6D
:10243A007E6E35EF12F07E50026E036A0350000A78
:10244A00D8B42AEF12F035EF12F00250000AD8B4CD
:10245A0006EF12F0010AD8B413EF12F035EF12F0BA
:10246A001200800E0101846F010E856F7CC186F116
:10247A007DC187F1000E8A6F000E896F000E906F82
:10248A00000E8F6F860E0001DB6F010EDC6F7EC1BE
:10249A00DDF07FC1DEF0840EDF6F010EE06F60ECCD
:1024AA0012F0010189517C25D96E8A517D21DA6E9B
:1024BA00000EDF6E1200DDC07AF1DEC07BF175EF2F
:1024CA0012F0DBC0C8F0DCC0C9F07A0E0001CA6F96
:1024DA00010ECB6FDFC0CCF0E0C0CDF015EC03F0FD
:1024EA007AC1F6FF7BC1F7FF0800F5500009D8A4AE
:1024FA0081EF12F083EF12F066EF12F0000E000186
:10250A00DC6F000EDB6F12003FC101F040C102F028
:10251A00060E036ED89002320132032E8FEF12F0AC
:10252A0001507C6E21EE41F0DECF01F0DDCF02F0EA
:10253A00040E036ED89002320132032E9FEF12F07E
:10254A0001507B6E3B0E7B64ADEF12F0AFEF12F0E1
:10255A00B1EF12F03B0E7B6E12005E0E646E000E3F
:10256A00656E5AC066F05BC067F0000E6A6E000EB8
:10257A00696E000E706E000E6F6E660E526E000E61
:10258A00536E5CC054F05DC055F0640E566E000E7A
:10259A00576ED9EC12F069505A24D96E6A505B20F2
:1025AA00DA6E000EDF6E120054C058F055C059F0B2
:1025BA00EDEF12F052C03FF053C040F0580E416E9A
:1025CA00000E426E56C043F057C044F0ACEC04F023
:1025DA0058C0F6FF59C0F7FF0800F5500009D8A403
:1025EA00F9EF12F0FBEF12F0DFEF12F0000E536E6C
:1025FA00000E526E1200000E0001996F000E986FC5
:10260A0013EF13F097C08AF08B6B95C08CF096C0CD
:10261A008DF0A1EC0EF00001984B992B985193255F
:10262A00D96E99519421DA6EDF50976F9751D8A4D9
:10263A0021EF13F023EF13F007EF13F01200010E4E
:10264A0000018E6F200E8A198B11D8B42FEF13F068
:10265A0031EF13F044EF13F0F70E8A258C6FFF0E5B
:10266A008B218D6F8D5109E1050E8C5DD8A040EF4D
:10267A0013F042EF13F044EF13F0000E8E6F8EC08A
:10268A008AF08B6B1200BEEC15F0DEEC14F05CECF9
:10269A0015F0040ECA6E9D82CB680C0EBD6EA2ECBC
:1026AA0015F0898489868988898A6CEC11F0000E74
:1026BA000001ED6F000EEC6F000EEB6F000EEA6F7B
:1026CA00B0EC15F0C6EC15F01200000E106E000EFC
:1026DA000F6E7BEF13F00EC001F0026A0CC003F01C
:1026EA000DC004F007EC0FF00F4A102A0F500A240D
:1026FA00D96E10500B20DA6EDF500E6E0E50D8A431
:10270A0089EF13F08BEF13F070EF13F01200000152
:10271A009DBF9AEF13F09D5106E19C05D8B098EF42
:10272A0013F09AEF13F0A8EF13F09CC09EF09DC02F
:10273A009FF09E1F9F1F9E4B9F2B9EC09CF09FC089
:10274A009DF0ACEF13F09CC09CF09DC09DF0120070
:10275A008CCFE6F0C00E04EC15F0700E01017C6F10
:10276A00010E7D6F170E7E6F060E7F6F79C080F1A6
:10277A00816B78C082F1836B36EC12F0700E000127
:10278A008C6F010E8D6F0DEC14F0E6C08CFF1200F9
:10279A0014BEDAEF13F0145006E11304D8B0D8EFE0
:1027AA0013F0DAEF13F0E8EF13F013C015F014C0CA
:1027BA0016F0151E161E154A162A15C013F016C055
:1027CA0014F0ECEF13F013C013F014C014F012005D
:1027DA004142434445464748494A00000000000038
:1027EA00004142434445464748494A000000000028
:1027FA0000003F065B4F666D7D077F6F777C395E11
:0F280A0079710001000100010001000100E803E5
:10281A00000E00018E6F1DEF14F08E518C25D96EBB
:10282A00000E8D21DA6EDF50F1EC14F000018E2BD0
:10283A008E518C25D96E000E8D21DA6EDF50D8A408
:10284A0029EF14F02BEF14F012EF14F01200800E9F
:10285A003BEC15F0700E5A6E010E5B6E010E5C6E4B
:10286A00060E5D6EE7C05EF05F6AF4C060F0616AF2
:10287A003DC162F03EC163F0B2EC12F0700E036E1D
:10288A00010E046E4AEC14F01200000E056E58EFA9
:10289A0014F005500324D96E000E0420DA6EDF50BE
:1028AA002AEC15F0052A05500324D96E000E0420DF
:1028BA00DA6EDF50D8A464EF14F066EF14F04EEF2E
:1028CA0014F01200200E01180210D8B46FEF14F0A1
:1028DA0071EF14F082EF14F0F70E0124036EFF0E6D
:1028EA000220046E045009E1050E035CD8A080EFB3
:1028FA0014F082EF14F082EF14F012000001F55187
:10290A00D8B48AEF14F08CEF14F08EEF14F0A0EC28
:10291A0011F00001E851D8B495EF14F097EF14F0D4
:10292A009CEF14F0ADEC13F0000E0001E86F1200FA
:10293A00D00E00018A258C6FFF0E8B218D6F8D5171
:10294A000AE10A0E8C5DD8A0ADEF14F0B0EF14F0D6
:10295A00010EB1EF14F0000E8A6F8B6B1200CF0ECE
:10296A00BD1601C003F0030E03160338F00BBD12A7
:10297A0001C003F002C004F0D89004320332D890A8
:10298A00043203320350BE6E120000018A518C03D6
:10299A00F3CF8EF0F4CF8FF08A518D03F3508F2747
:1029AA008B518C03F3508F278EC08AF08FC08BF027
:1029BA001200C30E926E3F0E936EDB0E946E000EE3
:1029CA00956EF80E966E000E896E000E8A6E000ED7
:1029DA008B6E000E8C6E120000018B6F84820001D8
:1029EA008B51B5EC15F084840D0EE82EFED700F05D
:1029FA0084920D0EE82EFED700F0848212000001A8
:102A0A008B6F848200018B51B5EC15F084940D0E06
:102A1A00E82EFED700F084920D0EE82EFED700F0C5
:102A2A008482120001500302F3CF05F0F4CF06F0BE
:102A3A0001500402F350062602500302F350062600
:102A4A0005C001F006C002F01200026E8482025034
:102A5A00C2EC15F084840D0EE82EFED700F08492A5
:102A6A000D0EE82EFED700F084821200026E8482D8
:102A7A000250C2EC15F084940D0EE82EFED700F039
:102A8A0084920D0EE82EFED700F084821200000E0A
:102A9A000001F56F010E7A6E7CC079F079C0E7F01B
:102AAA007BC078F078C0F4F02CEC14F01200900E91
:102ABA00F26E050EF16ED80EF06EC10ED56E000ED6
:102ACA00D76E060ED66E1200000E786E78C079F0B8
:102ADA00000E0001F56F030E026E0168B4EC14F0EB
:102AEA001200000E7A6E010E0001F56F000E026EE2
:102AFA00000E016EB4EC14F0120048EC13F083ECF3
:102B0A0014F084EF15F007EF00F0000E01013E6F9C
:102B1A000A0E3D6F2CEC14F01200000E01013E6FFC
:102B2A00640E3D6F2CEC14F01200030E01013E6F8F
:102B3A00E80E3D6F2CEC14F01200010EC26E0D0E61
:102B4A00C16E940EC06E1200016E0144E846FC0B81
:102B5A000109C26E1200F28A9D8CF28CF28E12006A
:102B6A0000018A6F8AC083FF12000101010101017D
:102B7A000101D09EF29EF29C1200016E01C083FFF9
:102B8A001200C2821200C282120012001200120047
:020000040020DA
:08000000FFFFFFFFFFFFFFFF00
:020000040030CA
:0E000000FF021F1EFF8381FF0FC00FE00F40A5
:00000001FF
