:0400000007EF00F016
:0A0008007F8217ED0FF015EF12F0E4
:10060000002564252500302500001250800B1B6E4C
:1006100012501224216E11AE10EF03F012EF03F00E
:1006200013EF03F021802150D8B419EF03F01BEF32
:1006300003F02EEF03F02128D8A421EF03F023EFDD
:1006400003F02BEF03F0000E0F6E000E106E000E85
:10065000116E000E126E118E36EF03F0000E0F6E4B
:10066000000E106E000E116E000E126E1650800BF2
:100670001B1A16501624206E15AE41EF03F043EFFF
:1006800003F044EF03F020802050D8B44AEF03F089
:100690004CEF03F05FEF03F02028D8A452EF03F0F3
:1006A00054EF03F05CEF03F0000E136E000E146EB7
:1006B000000E156E000E166E158E67EF03F0000E1D
:1006C000136E000E146E000E156E000E166E205086
:1006D000D8B46DEF03F06FEF03F077EF03F0215024
:1006E000D8A475EF03F077EF03F081EF03F0000E6D
:1006F0000F6E000E106E000E116E000E126E19EFCE
:1007000005F015500F02F3CF26F0F4CF27F0265056
:100710001C6E1D6A1E6A1F6A2750226E236A246A95
:10072000256A14501002F3CF26F0F4CF27F026509C
:100730001C26000E1D221E221F2227502226000EDC
:1007400023222422252213501102F3CF26F0F4CFC6
:1007500027F026501C26000E1D221E221F22275085
:100760002226000E2322242225221EC01FF01DC097
:100770001EF01CC01DF01C6A13501002F3CF26F0AF
:10078000F4CF27F026501C2627501D22000E1E22D3
:10079000000E1F2214500F02F3CF26F0F4CF27F0E3
:1007A00026501C2627501D22000E1E22000E1F223E
:1007B0001EC01FF01DC01EF01CC01DF01C6A13508F
:1007C0000F02F3CF26F0F4CF27F026501C26275037
:1007D0001D22000E1E22000E1F2215501002F3CF04
:1007E00026F0F4CF27F02650222627502322000E91
:1007F0002422000E252214501102F3CF26F0F4CF4C
:1008000027F02650222627502322000E2422000EF5
:10081000252215501102F3CF26F0F4CF27F02650F1
:10082000176E2750186E196A1A6A19C01AF018C084
:1008300019F017C018F0176A1750222618502322F3
:10084000195024221A5025221CC017F01DC018F080
:100850001EC019F01FC01AF0190E34EF04F0D89022
:100860001A32193218321732E82E2FEF04F01750CF
:10087000222618502322195024221A5025221EC045
:100880001FF01DC01EF01CC01DF01C6A205021C0AE
:1008900017F0186A1726000E1822820E1724266EEB
:1008A000FF0E1820276E6AEF04F0D8902236233608
:1008B000243625361FAE5FEF04F061EF04F062EFDF
:1008C00004F02280D8901C361D361E361F362606B0
:1008D000D8A0270624AE6FEF04F071EF04F055EFB7
:1008E00004F0000E206E1FAE78EF04F07AEF04F0F3
:1008F0009EEF04F0FF0E1C14176EFF0E1D14186EF1
:10090000FF0E1E14196E7F0E1F141A6E175018104A
:1009100019101A10D8B48FEF04F091EF04F095EF8E
:1009200004F0010E206E9EEF04F022A09AEF04F076
:100930009CEF04F09EEF04F091EF04F02050D8B447
:10094000A4EF04F0A6EF04F0CAEF04F0010E222693
:10095000000E23222422252225A0B1EF04F0B3EFBC
:1009600004F0CAEF04F022C017F023C018F024C02E
:1009700019F025C01AF01A341A3219321832173207
:1009800017C022F018C023F019C024F01AC025F0B7
:10099000264A272A27BED5EF04F0275008E126284B
:1009A000D8A0D5EF04F0D7EF04F0E1EF04F0000E8B
:1009B000226E000E236E800E246E7F0E256E0FEFCA
:1009C00005F027BEEEEF04F0275006E12604D8B06C
:1009D000ECEF04F0EEEF04F0FAEF04F0000E226EFC
:1009E000000E236E000E246E000E256E000E1B6E90
:1009F0000FEF05F026C021F0FF0E2216FF0E231682
:100A00007F0E2416000E251621A009EF05F00BEF2E
:100A100005F00CEF05F0248ED8902130256E1B5088
:100A2000251222C00FF023C010F024C011F025C001
:100A300012F012002B50800B386E2B502B243F6E7F
:100A40002AAE25EF05F027EF05F028EF05F03F80EF
:100A50003F50D8B42EEF05F030EF05F045EF05F02C
:100A60003F28D8A436EF05F038EF05F040EF05F049
:100A7000000E286E000E296E000E2A6E000E2B6EE0
:100A80002A8E000E2B6E4DEF05F0000E286E000E24
:100A9000296E000E2A6E000E2B6E2F50800B381A16
:100AA0002F502F24406E2EAE58EF05F05AEF05F070
:100AB0005BEF05F040804050D8B461EF05F063EF84
:100AC00005F078EF05F04028D8A469EF05F06BEF4A
:100AD00005F073EF05F0000E2C6E000E2D6E000E6B
:100AE0002E6E000E2F6E2E8E000E2F6E80EF05F0F4
:100AF000000E2C6E000E2D6E000E2E6E000E2F6E50
:100B00002C502D102E102F10D8A489EF05F08BEF4C
:100B100005F0A3EF05F0000E286E000E296E000E02
:100B20002A6E000E2B6E800E2A127F0E2B1238506A
:100B30002B1228C028F029C029F02AC02AF02BC087
:100B40002BF0E6EF06F03F50D8A4A9EF05F0ABEF8D
:100B500005F0B5EF05F0000E286E000E296E000EB0
:100B60002A6E000E2B6EE6EF06F040503FC030F0CC
:100B7000316A305E000E315A7F0E3024396E000E1D
:100B800031203A6E28C034F029C035F02AC036F042
:100B90002BC037F0000E286E000E296E000E2A6E54
:100BA000000E2B6E000E3B6E000E3C6E000E3D6E76
:100BB000000E3E6E000E406E16EF06F04050D8B4A8
:100BC000E4EF05F0E6EF05F0FDEF05F0D8903436E0
:100BD000353636363736D890283629362A362B36EB
:100BE0003EAEF5EF05F0F7EF05F0F8EF05F02880E1
:100BF000D8903B363C363D363E362C50345C2D503A
:100C000035582E5036582F503758D8A00AEF06F0D6
:100C10000CEF06F015EF06F03E8C2C50345E2D5094
:100C2000355A2E50365A2F50375A402A190E4064E2
:100C30001CEF06F01EEF06F0DEEF05F03450351025
:100C400036103710D8B427EF06F029EF06F041EF41
:100C500006F03B8041EF06F0D890283629362A3638
:100C60002B363EAE36EF06F038EF06F039EF06F0E1
:100C70002880D8903B363C363D363E363906D8A0E3
:100C80003A062AAE46EF06F048EF06F02CEF06F0E3
:100C9000000E406E3EAE4FEF06F051EF06F075EFDE
:100CA00006F0FF0E3B14306EFF0E3C14316EFF0E4B
:100CB0003D14326E7F0E3E14336E305031103210C0
:100CC0003310D8B466EF06F068EF06F06CEF06F06C
:100CD000010E406E75EF06F028A071EF06F073EF7D
:100CE00006F075EF06F068EF06F04050D8B47BEFE1
:100CF00006F07DEF06F0A1EF06F0010E2826000EAB
:100D000029222A222B222BA088EF06F08AEF06F058
:100D1000A1EF06F028C030F029C031F02AC032F02F
:100D20002BC033F03334333232323132303230C0D0
:100D300028F031C029F032C02AF033C02BF0394AF4
:100D40003A2A3ABEACEF06F03A5008E13928D8A06A
:100D5000ACEF06F0AEEF06F0B9EF06F0000E3A6E1B
:100D60003968000E286E000E296E000E2A6E000EE5
:100D70002B6E3ABEC6EF06F03A5006E13904D8B001
:100D8000C4EF06F0C6EF06F0D4EF06F0000E3A6EA0
:100D9000000E396E000E286E000E296E000E2A6EAF
:100DA000000E2B6E000E386E39C03FF03FA0DBEF17
:100DB00006F0DDEF06F0E0EF06F02A8EE1EF06F038
:100DC0002A9ED8903F302B6E97EF05F012001EC080
:100DD00034F01FC035F020C036F021C037F022C0FB
:100DE00038F023C039F024C03AF025C03BF03BBEB8
:100DF000FCEF06F0FFEF06F0010E00EF07F0000E2B
:100E00003E6E3E50D8B407EF07F009EF07F019EF38
:100E100007F03B1E3A1E391E381E371E361E351E81
:100E2000346C000E352236223722382239223A22FB
:100E30003B220001D0BF27EF07F0D05106E1CF05DC
:100E4000D8B025EF07F027EF07F02DEF07F0000EE1
:100E5000316E010E306E31EF07F0CFC030F0D0C0F0
:100E600031F0CDC032F0CEC033F03E50D8B43BEFBD
:100E700007F03DEF07F054EF07F03206D8A0330635
:100E80003E50D8A446EF07F048EF07F04EEF07F0CA
:100E9000000E2F6E2B0E2E6E52EF07F0000E2F6EEF
:100EA0002D0E2E6E2EC03EF0000E3D6E1F0E3C6EBF
:100EB000000E01011F6FD9EF07F03C06D8A03D06D8
:100EC000000E3C24D96E010E3D20DA6E34C001F0D4
:100ED00035C002F036C003F037C004F038C005F06A
:100EE00039C006F03AC007F03BC008F00A0E096EA0
:100EF000000E0A6E000E0B6E000E0C6E000E0D6ED4
:100F0000000E0E6E000E0F6E000E106EE2EC0DF075
:100F100001C026F002C027F003C028F004C029F069
:100F200005C02AF006C02BF007C02CF008C02DF039
:100F300026C013F027C014F034EC13F01350300F18
:100F4000DF6E3006D8A031063206D8A0330634C092
:100F500001F035C002F036C003F037C004F038C0ED
:100F600005F039C006F03AC007F03BC008F00A0EA1
:100F7000096E000E0A6E000E0B6E000E0C6E000E57
:100F80000D6E000E0E6E000E0F6E000E106E60ECF9
:100F90000CF001C034F002C035F003C036F004C0DC
:100FA00037F005C038F006C039F007C03AF008C085
:100FB0003BF03DBEE4EF07F03D5008E13C04D8A013
:100FC000E4EF07F0E6EF07F002EF08F034503510D9
:100FD00036103710381039103A103B10D8A4F3EF00
:100FE00007F0F5EF07F05DEF07F031BE02EF08F014
:100FF000315006E13004D8B000EF08F002EF08F0FD
:101000005DEF07F03E50D8B408EF08F00AEF08F0A3
:1010100015EF08F03C06D8A03D06000E3C24D96E22
:10102000010E3D20DA6E3EC0DFFF1CC011F01DC076
:1010300012F0000E3C24136E010E3D20146E32C0DF
:1010400015F033C016F0FBEC10F01200D8EC0AF0EB
:10105000786E100E7818D8B430EF08F032EF08F040
:101060002FEF09F00001D6517818D8B43AEF08F004
:101070003CEF08F02FEF09F00B0E7818D8B443EFCF
:1010800008F045EF08F04EEF08F00A0E7818D8A4E3
:101090004CEF08F04EEF08F005EF09F0000E796E06
:1010A00079C07AF07AC07BF07BC07CF0000ED66FFE
:1010B000000E7D6E200E7E6E200EC06F200EBF6F64
:1010C000200EBE6F000E0C6E000E0B6ED8900B340F
:1010D000D96E0C34DA6EC10ED926000EDA22000E5B
:1010E000DE6E000EDD6E0B4A0C2A0CBE81EF08F09E
:1010F0000C5009E1030E0B5CD8A081EF08F083EFE0
:1011000008F066EF08F031EF09F078C07CF07C5011
:10111000096E0A6A7D50020DC10EF324D96E000ECD
:10112000F420DA6E09C0DEFF0AC0DDFF7D50020D3B
:10113000C10EF324D96E000EF420DA6EDF50300FAA
:101140007E6E7CC0DEF07BC0DDF07AC0DCF079C062
:10115000DBF022EF09F078C07BF07B50096E0A6A61
:101160007D50020DC10EF324D96E000EF420DA6E0C
:1011700009C0DEFF0AC0DDFF7D50020DC10EF32461
:10118000D96E000EF420DA6EDF50300FC06FA1EF81
:1011900008F078C07AF07A50096E0A6A7D50020D24
:1011A000C10EF324D96E000EF420DA6E09C0DEFF02
:1011B0000AC0DDFF7D50020DC10EF324D96E000E72
:1011C000F420DA6EDF50300FBF6FA1EF08F078C067
:1011D00079F07950096E0A6A7D50020DC10EF32430
:1011E000D96E000EF420DA6E09C0DEFF0AC0DDFF02
:1011F0007D50020DC10EF324D96E000EF420DA6E7C
:10120000DF50300FBE6FA1EF08F07D50096E0A6A03
:101210000A50000AD8B40FEF09F022EF09F0095084
:10122000000AD8B485EF08F0010AD8B4ABEF08F093
:10123000030AD8B4C9EF08F0010AD8B4E7EF08F000
:1012400022EF09F0030E7D6428EF09F02AEF09F080
:101250002EEF09F0000E7D6E2FEF09F07D2A78C089
:10126000D6F01200096E0950D8B439EF09F03BEFFF
:1012700009F05DEF09F004BE42EF09F040EF09F01C
:101280005DEF09F001C005F002C006F003C007F0F1
:1012900004C008F0051E061E071E081E052A000EC3
:1012A00006220722082205C00BF006C00CF007C07A
:1012B0000DF008C00EF065EF09F001C00BF002C0A0
:1012C0000CF003C00DF004C00EF00150021003102A
:1012D0000410D8A46EEF09F070EF09F07AEF09F06E
:1012E000000E016E000E026E000E036E000E046E04
:1012F0000BEF0AF0960E0A6E84EF09F00A2AD890D6
:101300000E320D320C320B32000E0B14056E000E35
:101310000C14066E000E0D14076EFE0E0E14086EF1
:101320000550061007100810D8A499EF09F09BEF9C
:1013300009F07EEF09F0A9EF09F00A2A010E0B2649
:10134000000E0C220D220E22D8900E320D320C32DD
:101350000B32000E0B14056E000E0C14066E000E00
:101360000D14076EFF0E0E14086E055006100710C0
:101370000810D8A4BEEF09F0C0EF09F09DEF09F006
:10138000C8EF09F00A06D8900B360C360D360E362B
:101390000DBECDEF09F0CFEF09F0D7EF09F0020E47
:1013A0000A60D5EF09F0D7EF09F0C2EF09F00AB0F3
:1013B000DCEF09F0DEEF09F0DFEF09F00D9ED890C9
:1013C0000A320AC005F0066A076A086A05C008F012
:1013D000076A066A056A05500B1206500C12075080
:1013E0000D1208500E120950D8B4F9EF09F0FBEFB6
:1013F00009F003EF0AF004BE02EF0AF000EF0AF072
:1014000003EF0AF00E8E0BC001F00CC002F00DC00D
:1014100003F00EC004F0120041C0D9FF42C0DAFF51
:10142000DECFF6FFDDCFF7FF0800F550250AD8A480
:101430001CEF0AF01EEF0AF0C3EF0AF041C0D9FF1B
:1014400042C0DAFFDE2A000EDD22000E0001CE6F60
:10145000000ECD6FCDC0D5F0CF69D06941C0D9FFA6
:1014600042C0DAFFDECF4FF0DDCF50F04FC0F6FFC5
:1014700050C0F7FF0800F550640AD8B442EF0AF0F4
:1014800044EF0AF052EF0AF04FC0F6FF50C0F7FFEA
:101490000800F550690AD8A450EF0AF052EF0AF09C
:1014A00095EF0AF043C0D9FF44C0DAFFDFCF45F023
:1014B000020EDE26DFCF46F0000EDD2245C0D9FF4A
:1014C00046C0DAFFDECF47F0DDCF48F0000E48BE61
:1014D000FF0E496E4A6E4B6E4C6E4D6E4E6E010E97
:1014E0004F24456E000E5020466E41C0D9FF42C0C9
:1014F000DAFF45C0DEFF46C0DDFF3FC01CF040C044
:101500001DF047C01EF048C01FF049C020F04AC07F
:1015100021F04BC022F04CC023F04DC024F04EC04F
:1015200025F0E7EC06F0D7EF0AF041C0D9FF42C042
:10153000DAFFDECFF6FFDDCFF7FF0800F550250A12
:10154000D8A4A5EF0AF0A7EF0AF0BAEF0AF041C05D
:10155000D9FF42C0DAFFDE2A000EDD22000E026E45
:10156000250E016E3FC003F040C004F08EEC0FF07A
:10157000D7EF0AF041C0D9FF42C0DAFFDE2A000EE1
:10158000DD22D7EF0AF041C0D9FF42C0DAFFDECF3B
:10159000F6FFDDCFF7FF0800F550016E026A3FC08D
:1015A00003F040C004F08EEC0FF0BAEF0AF0120026
:1015B000100E076EF80E936E0F0E956E070E8A12C0
:1015C000010E8A1A000E026E000E016E00F0014A32
:1015D000022A02BEF5EF0AF0025009E10A0E015C90
:1015E000D8A0F5EF0AF0F7EF0AF0E6EF0AF083CFA4
:1015F00008F008B0FEEF0AF000EF0BF002EF0BF07E
:101600000A0E076E08B207EF0BF009EF0BF00BEFB5
:101610000BF0070E076E08B410EF0BF012EF0BF093
:1016200014EF0BF0040E076E08B619EF0BF01BEF6A
:101630000BF01DEF0BF0010E076E030E8A1A000E61
:10164000046E000E036E00F0034A042A04BE32EF5B
:101650000BF0045009E10A0E035CD8A032EF0BF046
:1016600034EF0BF023EF0BF083CF08F008B03BEF23
:101670000BF03DEF0BF03FEF0BF0000E076E08B2E2
:1016800044EF0BF046EF0BF048EF0BF0080E076E3F
:1016900008B44DEF0BF04FEF0BF051EF0BF0050ED0
:1016A000076E08B656EF0BF058EF0BF05AEF0BF041
:1016B000020E076E060E8A1A000E066E000E056EEA
:1016C00000F0054A062A06BE6FEF0BF0065009E14E
:1016D0000A0E055CD8A06FEF0BF071EF0BF060EF16
:1016E0000BF083CF08F008B078EF0BF07AEF0BF037
:1016F0007CEF0BF00B0E076E08B281EF0BF083EF5F
:101700000BF085EF0BF0090E076E08B48AEF0BF0B3
:101710008CEF0BF08EEF0BF0060E076E08B693EF12
:101720000BF095EF0BF097EF0BF0030E076E93683D
:10173000000E956E07501200000E0001D76F200EAC
:101740007E18D8A4A6EF0BF0A8EF0BF0C5EF0BF0B6
:10175000200E7E18D8A4AFEF0BF0B1EF0BF0C5EF61
:101760000BF0200E7E18D8A4B8EF0BF0BAEF0BF0F8
:10177000C5EF0BF0200E7E18D8A4C1EF0BF0C3EF1D
:101780000BF0C5EF0BF05FEF0CF0C1C001F0C2C071
:1017900002F0030E046EE80E036EAAEC13F001C013
:1017A0006CF002C06DF0C3C001F0C4C002F0000EC6
:1017B000046E640E036EAAEC13F001506C246E6E7E
:1017C00002506D206F6EC5C001F0C6C002F0000E61
:1017D000046E0A0E036EAAEC13F001506E24706EB4
:1017E00002506F20716E0001C7517024D16FC85133
:1017F0007120D26FD1C076F0D2C077F0040E775C42
:10180000D8B005EF0CF007EF0CF00DEF0CF076C040
:1018100001F077C002F06EEC13F0000E2C6EC00EDB
:101820002D6E7F0E2E6E440E2F6E000E136E000E68
:10183000146EC80E156E420E166E76C001F077C09B
:1018400002F0036A046A000E32EC09F001C00FF0E6
:1018500002C010F003C011F004C012F005EC03F058
:101860000FC028F010C029F011C02AF012C02BF0D0
:101870001AEC05F028C041F029C042F02AC043F01C
:101880002BC044F094EC0EF041C0D3F042C0D4F031
:10189000C00ECEEC13F0E00E596E000E5A6E010E23
:1018A0005B6E060E5C6ED3C05DF0D4C05EF0A3EC40
:1018B00012F0E00E036E000E046E38EC11F0120010
:1018C000000E126E10BE69EF0CF067EF0CF07BEFAC
:1018D0000CF0101E0F1E0E1E0D1E0C1E0B1E0A1EDF
:1018E000096C000E0A220B220C220D220E220F225E
:1018F0001022010E126E08BE82EF0CF080EF0CF089
:1019000094EF0CF0081E071E061E051E041E031E83
:10191000021E016C000E022203220422052206226E
:1019200007220822010E121A20EE13F0070EDE6ABB
:10193000E806FDE209500A100B100C100D100E10F5
:101940000F101010D8B4A7EF0CF0A9EF0CF0FBEFBC
:101950000CF0010E116EB7EF0CF0D89009360A3674
:101960000B360C360D360E360F361036112A10AEE9
:10197000BCEF0CF0BEEF0CF0ADEF0CF0D8901336CE
:101980001436153616361736183619361A360950E3
:10199000015C0A5002580B5003580C5004580D506B
:1019A00005580E5006580F50075810500858D8A028
:1019B000DCEF0CF0DEEF0CF0EFEF0CF00950015E05
:1019C0000A50025A0B50035A0C50045A0D50055A33
:1019D0000E50065A0F50075A1050085A1380D890CC
:1019E00010320F320E320D320C320B320A32093203
:1019F000112EBEEF0CF01250D8B401EF0DF003EF32
:101A00000DF013EF0DF01A1E191E181E171E161ECC
:101A1000151E141E136C000E1422152216221722F6
:101A2000182219221A2213C001F014C002F015C0A6
:101A300003F016C004F017C005F018C006F019C076
:101A400007F01AC008F01200C9C06EF0CAC06FF0EB
:101A50006EC06CF06FC06DF0D8906C366D36D8905B
:101A60006C366D366CC070F06DC071F070C006F0F1
:101A700071C007F0030E096EE80E086E74EC11F0E9
:101A800006500001DE6F030E046EE80E036E70C098
:101A900001F071C002F047EC12F001C006F002C084
:101AA00007F0000E096E640E086E74EC11F006501B
:101AB0000001DD6F000E046E640E036E70C001F055
:101AC00071C002F047EC12F001C006F002C007F04E
:101AD000000E096E0A0E086E74EC11F0065000013B
:101AE000DC6F70C001F071C002F0000E046E0A0ECF
:101AF000036E47EC12F001500001DB6FD751D8B4F0
:101B000084EF0DF086EF0DF0E1EF0DF0000E2C6E7E
:101B1000C00E2D6E7F0E2E6E440E2F6E000E136EB5
:101B2000000E146EC80E156E420E166E70C001F0D7
:101B300071C002F0036A046A000E32EC09F001C0C1
:101B40000FF002C010F003C011F004C012F005EC59
:101B500003F00FC028F010C029F011C02AF012C005
:101B60002BF01AEC05F028C041F029C042F02AC041
:101B700043F02BC044F094EC0EF041C0D3F042C0CF
:101B8000D4F070C001F071C002F06EEC13F0C00E22
:101B9000CEEC13F0E00E596E000E5A6E010E5B6E25
:101BA000060E5C6ED3C05DF0D4C05EF0A3EC12F004
:101BB000E00E036E000E046E38EC11F0000E000112
:101BC000D76F1200000E126E08BEEBEF0DF0E9EFBA
:101BD0000DF0FDEF0DF0081E071E061E051E041E6B
:101BE000031E021E016C000E0222032204220522A3
:101BF000062207220822010E126E10BE04EF0EF01C
:101C000002EF0EF014EF0EF0101E0F1E0E1E0D1E32
:101C10000C1E0B1E0A1E096C000E0A220B220C223F
:101C20000D220E220F22102209500A100B100C1048
:101C30000D100E100F101010D8B421EF0EF023EF7E
:101C40000EF06BEF0EF0010E116E31EF0EF0D8902A
:101C500009360A360B360C360D360E360F36103670
:101C6000112A10AE36EF0EF038EF0EF027EF0EF01F
:101C70000950015C0A5002580B5003580C5004588C
:101C80000D5005580E5006580F5007581050085860
:101C9000D8A04DEF0EF04FEF0EF05FEF0EF00950B1
:101CA000015E0A50025A0B50035A0C50045A0D5050
:101CB000055A0E50065A0F50075A1050085AD8901D
:101CC00010320F320E320D320C320B320A32093220
:101CD000112E38EF0EF01250D8B471EF0EF073EFF2
:101CE0000EF083EF0EF0081E071E061E051E041ED2
:101CF000031E021E016C000E022203220422052292
:101D000006220722082201C001F002C002F003C02F
:101D100003F004C004F005C005F006C006F007C0DB
:101D200007F008C008F01200433444344A6E4A50A9
:101D3000D8A49DEF0EF09FEF0EF0A9EF0EF0000E6D
:101D4000416E000E426E000E436E000E446E16EFA2
:101D50000FF041C045F042C046F043C047F044C0D8
:101D600048F0200EB9EF0EF0D89048324732463294
:101D70004532E82EB4EF0EF04550496E438EFF0E0B
:101D80004116FF0E4216FF0E4316000E4416960E25
:101D90004A5E4ABED0EF0EF0CEEF0EF0E6EF0EF048
:101DA0004A50800A970FD8B0D8EF0EF0DAEF0EF055
:101DB000DCEF0EF09FEF0EF0D89044324332423207
:101DC00041324A3EDCEF0EF0FEEF0EF01F0E4A6489
:101DD000ECEF0EF0EEEF0EF0F6EF0EF09FEF0EF0E0
:101DE000D89041364236433644364A064A50D8A443
:101DF000FCEF0EF0FEEF0EF0F0EF0EF04950D8B40D
:101E000004EF0FF006EF0FF00EEF0FF0441E431E2D
:101E1000421E416C000E42224322442241C041F046
:101E200042C042F043C043F044C044F012000600F8
:101E3000E1CFEAF0E2CFEBF0D9CFECF0DACFEDF082
:101E4000F3CFEEF0F4CFEFF0F6CFF0F0F7CFF1F004
:101E5000F8CFF2F0F5CFF3F0F2A431EF0FF033EF5B
:101E60000FF03AEF0FF0000ED76E060ED66EF3ECC1
:101E70000FF0F294F2A23FEF0FF041EF0FF049EFB5
:101E80000FF0F2A846EF0FF048EF0FF049EF0FF018
:101E9000F292F0A04EEF0FF050EF0FF058EF0FF06E
:101EA000F0A655EF0FF057EF0FF058EF0FF0F0904E
:101EB000F0A25DEF0FF05FEF0FF067EF0FF0F0A80B
:101EC00064EF0FF066EF0FF067EF0FF0F0929EAC4B
:101ED0006CEF0FF06EEF0FF078EF0FF09DAC73EF3B
:101EE0000FF075EF0FF078EF0FF0E2EC11F09E9C21
:101EF000F3C0F5FFF2C0F8FFF1C0F7FFF0C0F6FF46
:101F0000EFC0F4FFEEC0F3FFEDC0DAFFECC0D9FF85
:101F1000EBC0E2FFEAC0E1FF7F9211000350041022
:101F2000D8B495EF0FF097EF0FF0A0EF0FF003503C
:101F30000410D8A49EEF0FF0A0EF0FF0A5EF0FF064
:101F400001502EEC14F0F2EF0FF020EE09F00350E8
:101F5000D9260450DA22DE50DE10D8B4B2EF0FF0EA
:101F6000B4EF0FF0CFEF0FF020EE09F00350D926B9
:101F70000450DA2210EE03F00350E1260450E2226E
:101F8000DE50E65CE650800A096EDE50800A095891
:101F9000D8B0CDEF0FF0CFEF0FF0F2EF0FF020EE53
:101FA00003F00350D9260450DA22DECF05F0DDCF4E
:101FB00006F003C0D9FF04C0DAFFDECF07F0DDCFA3
:101FC00008F005500724D96E06500820DA6E01C0CB
:101FD000DFFF20EE03F00350D9260450DA22DE2A78
:101FE000000EDD2212000001BA5107E1050EB95DB5
:101FF000D8B0FDEF0FF0FFEF0FF003EF10F0B94B8B
:10200000BA2B0AEF10F04EEC10F0000E0001BA6F80
:10201000010EB96FF651B75DF751B859D8B013EF4B
:1020200010F015EF10F019EF10F0B74BB82B20EFB0
:1020300010F097EC13F0000E0001B86F010EB76FAF
:10204000F451B55DF551B659D8B029EF10F02BEF2A
:1020500010F02FEF10F0B54BB62B33EF10F0000E51
:10206000B66F010EB56FB45107E10A0EB35DD8B07B
:102070003CEF10F03EEF10F042EF10F0B34BB42BFA
:102080004DEF10F026EC08F0A7EC10F024EC0DF06A
:10209000000E0001B46F010EB36F120088EF10F054
:1020A0008984899AA20EDE25D96EDA6A000EDA22B8
:1020B000DF508C6E010ED86FA6EF10F089948986E0
:1020C000A20EDD25D96EDA6A000EDA22DF508C6EA0
:1020D000020ED86FA6EF10F089968988A20EDC2533
:1020E000D96EDA6A000EDA22DF508C6E030ED86FDA
:1020F000A6EF10F08998898AA20EDB25D96EDA6ADC
:10210000000EDA22DF508C6E000ED86FA6EF10F0B2
:102110000001D851016E026A0250000AD8B493EF50
:1021200010F0A6EF10F00150000AD8B450EF10F0F4
:10213000010AD8B45EEF10F0030AD8B46CEF10F0C7
:10214000010AD8B47AEF10F0A6EF10F0120081CF98
:1021500075F075A6AEEF10F0B0EF10F0B4EF10F020
:10216000010E726EB6EF10F0000E726E75A8BBEF26
:1021700010F0BDEF10F0C1EF10F0010E736EC3EF61
:1021800010F0000E736E75AAC8EF10F0CAEF10F0D1
:10219000CEEF10F0010E746ED0EF10F0000E746EE2
:1021A0000001BD51725CD8B0D8EF10F0DAEF10F03A
:1021B000DCEF10F054EC13F00001BC51735CD8B0AC
:1021C000E4EF10F0E6EF10F0E8EF10F021EC14F07F
:1021D0000001BB51745CD8B0F0EF10F0F2EF10F0DA
:1021E000F4EF10F09CEC0BF072C0BDF073C0BCF0CB
:1021F00074C0BBF0120016BE00EF11F002EF11F038
:1022000008EF11F015C01AF016C01BF00CEF11F01A
:10221000000E1B6E000E1A6E000E196E000E186E68
:102220001EEF11F0000E026E200E016E11C003F0C1
:1022300012C004F08EEC0FF0184A192A1A50185CDC
:102240001950800A176E1B50800A1758D8A02BEF20
:1022500011F02DEF11F012EF11F013C00AF014C0BD
:102260000BF011C00CF012C00DF0F1EC12F01200E6
:10227000000E076E55EF11F007500324056E000E97
:102280000420066E05C0F6FF06C0F7FFF86A050ECB
:10229000F76403D00800F55005D0F6CFE1FFF7CF83
:1022A000E2FFE750DFEC13F0072A07500324056E26
:1022B000000E0420066E05C0F6FF06C0F7FFF86AA0
:1022C000050EF76403D00800F55005D0F6CFE1FF06
:1022D000F7CFE2FFE7500009D8A471EF11F073EFD8
:1022E00011F03CEF11F01200000E0B6E000E0A6EA2
:1022F00008500910D8B47FEF11F081EF11F0A9EF69
:1023000011F0010E0C6E89EF11F0D89008360936E5
:102310000C2A09AE8EEF11F090EF11F085EF11F05D
:10232000D8900A360B360850065C09500758D8A0DA
:102330009CEF11F09EEF11F0A3EF11F00850065E34
:102340000950075A0A80D890093208320C2E90EFB3
:1023500011F00AC006F00BC007F0120084928494BA
:102360001A0E0101226FF80EE82EFED7222FFCD79D
:1023700000F08482380E84EC13F0070E0101226F06
:102380007D0EE82EFED7222FFCD7380E84EC13F0FA
:10239000C80E00D0E82EFDD7380E84EC13F0080EDE
:1023A00084EC13F00F0E84EC13F0010E84EC13F0A8
:1023B000380E84EC13F0800E84EC13F00C0E84ECD9
:1023C00013F01200FEEF11F0C4CFC9F0CA6B010E7A
:1023D0000CEC14F02BEC14F0010E0001DF6F14EF85
:1023E00012F0C4CFCBF0CC6B000E0CEC14F02BEC45
:1023F00014F0000E0001DF6F14EF12F00001DF5146
:10240000026E036A0350000AD8B409EF12F014EF09
:1024100012F00250000AD8B4E4EF11F0010AD8B467
:10242000F1EF11F014EF12F01200260EF66E260EE8
:10243000F76E000EF86E00EE80F010EE41F009002D
:10244000F5CFEEFFE550E150FAE15E0EF66E280E94
:10245000F76E000EF86E0900F5CF7EF001EE00F089
:10246000200EEE6AE806FDE100EEC1F0290EEE6AEC
:10247000E806FDE100EE76F0080EEE6AE806FDE102
:102480007F907F92000EF86E0001FDEF13F0035075
:102490000410D8B44EEF12F050EF12F074EF12F0B7
:1024A000010E056E58EF12F0D89003360436052A57
:1024B00004AE5DEF12F05FEF12F054EF12F0035034
:1024C000015C04500258D8A068EF12F06AEF12F0D5
:1024D0006EEF12F00350015E0450025AD89004329D
:1024E0000332052E5FEF12F001C001F002C002F0CE
:1024F00012001DEC14F0BDEC13F0F0EC13F0050E1F
:10250000CA6ECB680C0EBD6E05EC14F0898489860A
:102510008988898A000E0001F76FC80EF66F010ED8
:10252000F56F2C0EF46FAEEC11F029EC14F0000EE8
:102530000001DE6F000EDD6F000EDC6F000EDB6F42
:1025400018EC14F012005D0E5F6E000E606E59C044
:1025500061F05AC062F0000E656E000E646E000EEF
:102560006B6E000E6A6E610E516E000E526E5BC095
:1025700053F05CC054F05F0E556E000E566ECAEC00
:1025800012F064505924D96E65505A20DA6E000E4C
:10259000DF6E120053C057F054C058F0DEEF12F057
:1025A00051C03FF052C040F0570E416E000E426ED7
:1025B00055C043F056C044F00CEC0AF057C0F6FF8B
:1025C00058C0F7FF0800F5500009D8A4EAEF12F050
:1025D000ECEF12F0D0EF12F0000E526E000E516EC2
:1025E0001200000E106E000E0F6E02EF13F00EC000
:1025F00001F0026A0CC003F00DC004F08EEC0FF085
:102600000F4A102A0F500A24D96E10500B20DA6E90
:10261000DF500E6E0E50D8A410EF13F012EF13F02F
:10262000F7EF12F012004142434445464748494AF9
:10263000000000000000004142434445464748492D
:102640004A000000000000003F065B4F666D7D07FA
:102650007F6F777C395E7971000100010001000114
:072660000001010120202010
:1026680014BE41EF13F0145006E11304D8B03FEF45
:1026780013F041EF13F04FEF13F013C015F014C02F
:1026880016F0151E161E154A162A15C013F016C088
:1026980014F053EF13F013C013F014C014F0120029
:1026A800000E776E000E766E010ECEEC13F076C03B
:1026B80001F077C002F06EEC13F0000E0001D76F46
:1026C800C00ECEEC13F0060E036E060E046E38EC48
:1026D80011F01200CF0EBD1601C003F0030E031651
:1026E8000338F00BBD1201C003F002C004F0D8900B
:1026F80004320332D890043203320350BE6E120003
:102708000101216F84820101215113EC14F084949A
:102718000D0EE82EFED700F084920D0EE82EFED79F
:1027280000F084821200800ECEEC13F07E50DFECB5
:1027380013F00001C051DFEC13F00001BF51DFECD2
:1027480013F00001BE51DFEC13F012000150030238
:10275800F3CF05F0F4CF06F001500402F35006263B
:1027680002500302F350062605C001F006C002F02D
:102778001200C30E926E3F0E936EFB0E946E000E07
:10278800956EF90E966E000E896E000E8A6E000E1A
:102798008C6E1200026E8482025025EC14F0849430
:1027A8000D0EE82EFED700F084920D0EE82EFED70F
:1027B80000F084821200026E8482025025EC14F02C
:1027C80084840D0EE82EFED700F084920D0EE82EBC
:1027D800FED700F084821200900EF26E050EF16EA4
:1027E800D80EF06EC10ED56E000ED76E060ED66EE0
:1027F800120079EC12F02DEC14F0FFEF13F007EF54
:1028080000F0010EC26E0D0EC16E140EC06E1200E5
:10281800016E0144E846FC0B0109C26E1200010179
:10282800206F20C183FF1200F28A9D8CF28CF28EF9
:102838001200D09EF29EF29C1200010E0001D76F8A
:102848001200016E01C083FF1200C2821200C28210
:072858001200120012002023
:020000040020DA
:08000000FFFFFFFFFFFFFFFF00
:020000040030CA
:0E000000FF021F1EFF8381FF0FC00FE00F40A5
:00000001FF
